:1000000009308A00A42900000A108A100A11820708
:1000100028340C3401340634D4326D383A100000E0
:100020002E000C00CD30781DA0126400CD346E1D62
:10003000A012640041260001201000000C00DF30F7
:10004000840083130008031932280630F800F701F2
:10005000F70B2828F80B27287B30F700F70B2E2802
:10006000800B25280800B111310883168700831200
:100070008711B1113108831687008312871502306A
:10008000B400FA308316DF0083121F20B40B41281E
:10009000B111310883168700831287118A150A125D
:1000A000BF29831666185828831288135A28831686
:1000B0008312881783168813E618622883120813A0
:1000C00064288316831208178316081366196C2890
:1000D000831288126E28831683128816831688125C
:1000E000E6197628831208127828831683120816D8
:1000F00083160812000083120615831606110330BA
:10010000F700F70B8128831206118316061183125C
:1001100008008316E701881700308312881B01301E
:100120008316E704081700308312081B0130F7001C
:100130000310F70D77088316E70488160030831242
:10014000881A0130F700F70DF70DFC30F705770836
:100150008316E704081600308312081A0130F700EE
:10016000F70DF70DF70DF830F70577088316E7045C
:100170006708F80083120800061283160612881713
:100180000817881608168312861583168611000034
:100190008312061583160611000083128920780841
:1001A0008316E600831206118316061100008312DF
:1001B000061583160611000083128920780883161D
:1001C000E50083120611831606118813081388129E
:1001D0000812660EF700F030F70577086504F8009E
:1001E0007808E500E51BBF28E308031DFB28831200
:1001F0000612FD28831683120616831606120000C7
:10020000831286118316861100008312061183164D
:100210000611640EE5000F30E5056508E60083125F
:100220005120831664080F39E500E600831251203F
:100230000800831688130813881208120611061284
:1002400086118312061283160612831286118316F4
:10025000861183120611831606110F30DF008312F8
:100260001F200130B4003408033C031C4329033031
:100270008316E6008312512005308316DF008312B7
:100280001F20B40A332902308316E600831251205E
:10029000B4013408033C031C5A2934080420B50077
:1002A0008316E301831235088316E4008312BC2011
:1002B000B40A49298A150A12C2298316600B6229D9
:1002C000E10176296008023C031D69294030E10004
:1002D00076296008033C031D70291430E10076295B
:1002E0006008043C031D76295430E10001305F02B0
:1002F000E10761088038E200E3016208E40083124C
:10030000BC20080083165E080C3A831203198F295B
:10031000063A03199B29023A0319A329AA2983162D
:10032000E3010130E4008312BC2002308316DF00B9
:1003300083121F20B12901308316DF000230E00054
:1003400083125D21B1298316E3011030E40083128A
:10035000BC20B12901308316E3005E08E40083125B
:10036000BC2008000B088316DB0083128B13831656
:1003700003178C170C14000000000313DB1FC329A4
:1003800083128B178316831203170C087F39031906
:10039000242A83160313DB00831203170D08831628
:1003A0000313DC00831203170F0883160313DD0009
:1003B0005B08DE008312822183165C088312031718
:1003C0008D00831603135D08831203178F00031338
:1003D0000B088316DE0083128B13831603178C170A
:1003E0000C14000000000313DE1FF92983128B1781
:1003F0008316831203170C0D0E0D7F390319242A5F
:1004000083160313DB00831203170D0883160313EF
:10041000DC00831203170F0883160313DD005B084B
:10042000DE008312822183165C08831203178D007D
:10043000831603135D08831203178F008D0A0319B7
:100440008F0A0313B2290317031308002030B400E6
:10045000B500B600B700B800B900BA00BB00BC00D8
:10046000BD00BE00BF00C000C100C200C3004C30D0
:10047000C4004130C5004D30C6002030C7005130A7
:10048000C8005530C9004130CA004E30CB0047305B
:10049000CC002030CD005430CE005230CF00493057
:1004A000D0002D30D1003130D2003930D30031307E
:1004B000D4003530D5003130D6003030D700383058
:1004C000D8003730D9002030DA00DB00DC00DD0056
:1004D000DE00DF00E000E100E200E300E400E50010
:1004E000E600E700E800E900EA00EB018316A0005F
:1004F000A100A200A300A400A500A600A700A800D8
:10050000A900AA00AB00AC00AD00AE00AF004E30B9
:10051000B0004730B1005530B2005930B30045301B
:10052000B4004E30B5002030B6004430B70049303A
:10053000B8004E30B9004830BA002030BB0041301E
:10054000BC004E30BD002D30BE003130BF00393010
:10055000C0003130C1003530C2003130C30030300E
:10056000C4003630C5003830C6002030C700C8008F
:10057000C900CA00CB00CC00CD00CE00CF00D00017
:10058000D100D200D300D400D500D600D700D801C6
:1005900001308312ED008316DC013430DB005C088F
:1005A000DE005B08DD005E08FA005D08840083134E
:1005B0007A18831780080319E12ADD0A0319DE0A75
:1005C000D32A5B085D02F7005E08FA005C08031C92
:1005D0005C0FFA027708F800103078028312ED1BE6
:1005E000F62A6D020319F62A0318472B0130EC0096
:1005F000EC1BFE2A6C08103C031C262B6C0883168F
:10060000DF000130E00083125D216D086C07FF3EC2
:10061000343E840083130008EE008316DE0083124C
:1006200082216C088316DF000230E00083125D2116
:100630006D086C07FF3EA03E840083130008EE00A7
:100640008316DE0083128221EC0AF82A0230EE00C3
:1006500096308316DF0083121F20EE0B282B3115F6
:1006600031088316870083120719452B311531088D
:10067000831687008312071D362B113003178D0058
:1006800000308F000313B221472BED0ACB2A043030
:10069000EE00FA308316DF0083121F20EE0B492B89
:1006A0008A150A12CE298E30F7003E08F8003D0860
:1006B000F900FA01F808031D672B7908F800F90121
:1006C0000830F702F808031D672BF7016F2B0310A2
:1006D000F81B6E2BF90DF80DF703672BF8130800C4
:1006E00080308318C206C701C8013E08C600420810
:1006F000C6063D080319602CC500F7004108031920
:10070000692CC5020319052C031CC32B4208CB001E
:10071000CB174308CA004408C900C8010310CB0C1A
:10072000CA0CC90CC80CC50B8D2BC61F9A2B4714BD
:100730007D2C471045104716403084008313922CBF
:100740004712C61BAD2B451CB82BCB0CCA0CC90CD1
:10075000C80CF70A0319782CB82BCB1BBB2B031042
:10076000C80DC90DCA0DCB0DF7030319782CAD2B9D
:100770004717252C47133E08C600C61FC12BCB17B1
:10078000712CCB13712C4108C500F7003D08C50240
:100790003E08CB00CB173F08CA004008C900C8017B
:1007A0000310CB0CCA0CC90CC80CC50BCF2BC61F31
:1007B000DC2BC7147D2CC7104510C71644308400AD
:1007C0008313922CC712C61BEF2B451CFA2BCB0CA4
:1007D000CA0CC90CC80CF70A0319782CFA2BCB1BCE
:1007E000FD2B0310C80DC90DCA0DCB0DF70303195E
:1007F000782CEF2BC717252CC7134208C600C61F3D
:10080000032CCB17712CCB13712C4208CB00CB17C8
:100810004308CA004408C900C61F122CCB13471551
:100820007D2C4711C8014510403084008313922C61
:10083000C61B3B2C3E08C600451C252CCB0CCA0C05
:10084000C90CC80CF70A0319782CC81F362CC90A22
:10085000031D362CCA0A031D362CCB0A031D362C69
:10086000CB0CCA0CC90CF70A0319782C471BBA2BFE
:10087000C71BFC2B5A2C8030CB06CB1F432C7D2C66
:100880004208C600502C3E08C600CB08031D502C61
:10089000CA08031D502CC908031D502CF701712CE8
:1008A000CB1B5A2C0310C80DC90DCA0DCB0DF70B6D
:1008B000502C782CC61F5E2CCB17712CCB13712CAF
:1008C0004108F7004208CB004308CA004408C900A9
:1008D000712C3D08F7003E08CB003F08CA004008D5
:1008E000C9004B08F8004A08F9004908FA00B02C82
:1008F000F701F801F901FA01B02CC801C909CA09C8
:10090000CB09C809C80A031D8B2CC90A031D8B2CEF
:10091000CA0A0319CB0A4718992BC718DB2B4719AA
:10092000112C402C0008C907031C9C2CCA0A031D6B
:100930009C2CCB0A0319451484030008CA07031C26
:10094000A42CCB0A0319451484030008801F803AA5
:10095000CB0703184514471AA02BC71AE22B182CF3
:1009600008003D080319762DC90041080319762DAA
:10097000C902031CC02C7F30C9070318762DC62C72
:100980008130C902031C762D0319762D4908F70022
:10099000F801F901FA01C8013E08C700C7173F086E
:1009A000C6004008C5001930C9004408C502031834
:1009B000E92C0130C6020318E92CC7020318E92C00
:1009C000C8020318E92CC80AC70AC60A4408C507A2
:1009D0001B2D4308C6020318042D0130C70203185B
:1009E000042DC8020318042DC80AC70A4308C60705
:1009F0004408C507031C1B2DC60A031D1B2DC70A6F
:100A0000031D1B2DC80A1B2D42088038C70203187E
:100A10001A2D0130C80203181A2DC80A420880385E
:100A2000C7074308C607031CF82CC70A031DF82C88
:100A3000C80AF82C7A14C90B1E2D292D0310C50DD8
:100A4000C60DC70DC80D0310FA0DF90DF80DCA0D2E
:100A5000D52C4A1C312D0310F80CF90CFA0CCA0CD9
:100A6000342DF7030319762DCA1B5D2D0310C50D18
:100A7000C60DC70DC80D4408C5020318492D013025
:100A8000C6020318492DC7020318492DC802031CCA
:100A90006C2D4308C6020318542D0130C7020318F9
:100AA000542DC802031C6C2D42088038C70203185D
:100AB0005D2D0130C802031C6C2DFA0A031D6C2D3C
:100AC000F90A031D6C2DF80A031D6C2DF70A031992
:100AD000762DF80CF90CFA0C3E08C9004208C9063C
:100AE000C91F742DF8177A2DF8137A2DF701F80124
:100AF000F901FA0108008E30F7003C08F7023D08C2
:100B0000F9003E08F800F917F7080319922D0310B1
:100B1000F908031D8E2DF8080319922DF90CF80C15
:100B2000F70B872DBD1F992DF809F909F80A03194C
:100B3000F90A08000030F8001F08C73978049F0040
:100B40002130F700F70BA22DBB01BA01B901B801A2
:100B5000BC013C08633C031CD92D1F151F19AE2D89
:100B60001E08F90083161E08F8007908FA001E080E
:100B70008312BD007908BE00532383103B08C000D8
:100B80003A08BF003908BE003808BD007A08C40022
:100B90007908C3007808C2007708C10070237A087A
:100BA000BB007908BA007808B9007708B800BC0A19
:100BB000A92D3B08C0003A08BF003908BE0038081C
:100BC000BD00C401C3014830C2008530C100B1245A
:100BD0007A08BB007908BA007808B9007708B8002D
:100BE0003808F7003908F8003A08F9003B08FA001D
:100BF0007A08B7007908B6007808B5007708B4001D
:100C00003708C0003608BF003508BE003408BD00F4
:100C1000AA30C400F130C3000230C2008030C100ED
:100C2000B1247A08B7007908B6007808B5007708CB
:100C3000B4003708BF003608BE003508BD003408D0
:100C4000BC007B257908AD007808AC003708BB00F4
:100C50003608BA003508B9003408B8003B08C000AF
:100C60003A08BF003908BE003808BD00C401C301FE
:100C7000C2017F30C100B1247A08BF007908BE00EC
:100C80007808BD007708BC007B257908A3007808A8
:100C9000A2002308BE002208BD00532383143B0892
:100CA000C0003A08BF003908BE003808BD007A0805
:100CB000C4007908C3007808C2007708C100702317
:100CC0007A08BB007908BA007808B9007708B8003C
:100CD0003B08BF003A08BE003908BD003808BC0018
:100CE000C301C2014830C1008530C0003C0803196F
:100CF000E62EC40040080319E62EC4070318872E09
:100D00007F30C402031CE62E0319E62E8B2E8130A1
:100D1000C4070318E62E4408F700F801F901FA01A8
:100D20003D08C800C8173E08C7003F08C600183075
:100D3000C400C501461CB42E4308FA07031CA62EA6
:100D4000F90A031DA62EF80A0319C5174208F90768
:100D5000031CAD2EF80A0319C5174108BE00BE17C3
:100D60003E08F8070318C517C50DF80CF90CFA0C66
:100D7000C80CC70CC60C0310C40B992E0130F70722
:100D80000318E62EF81BCB2EC80DFA0DF90DF80D41
:100D9000F7030319E62EC81FDC2EFA0A031DDC2E0A
:100DA000F90A031DDC2EF80A031DDC2EF80CF90CE1
:100DB000FA0CF70A0319E62E3D08C5004108C506DE
:100DC000C51FE42EF817EA2EF813EA2EF701F801F2
:100DD000F901FA017A08BB007908BA007808B9006D
:100DE0007708B8003B08C0003A08BF003908BE00C9
:100DF0003808BD00C401C301C2017F30C100B12465
:100E00007A08BF007908BE007808BD007708BC00EA
:100E10007B257908A5007808A4002308A7002208EC
:100E2000A6002508A9002408A8008A150A12E029AE
:100E3000F801F901F701FA013908031D222F3808DA
:100E400003193C2F1030BA000310B60DB70DF70D83
:100E5000FA0D39087A02031D2F2F38087702031C78
:100E6000382F3808F702031CFA033908FA02031472
:100E7000F80DF90DBA0B242F080001308316DF009E
:100E8000E00083125D210C3003178D0000308F00CD
:100E90000313B22126082A02031D522F27082B0212
:100EA0000319CC2F2708AB002608AA0009308316A7
:100EB000DF000130E00083125D21103003178D0048
:100EC00000308F000313B221B4080319982F0730A4
:100ED0008316DF000130E00083125D212708B70090
:100EE0002608B600B9010A30B80018277908B700FB
:100EF0007808B6003030B6070318B70A36088316EC
:100F0000DE00831282212708B7002608B600B90147
:100F10000A30B80018277708B6007A08B7003030D2
:100F2000B6070318B70A36088316DE00831282213B
:100F3000B5080319CC2F0A308316DF000130E0001A
:100F400083125D212908B7002808B600B9010A30CC
:100F5000B80018277908B7007808B6003030B6070F
:100F60000318B70A36088316DE0083128221290887
:100F7000B7002808B600B9010A30B800182777086A
:100F8000B6007A08B7003030B6070318B70A36083B
:100F90008316DE0083128221301CF12FAD08031D61
:100FA000D52F2F082C02031CDC2FB111310883161A
:100FB000870083128715F02FAD08031DEA2F2C0838
:100FC0002E02031CEA2FB111310883168700831209
:100FD0008715F02FB111310883168700831287110E
:100FE000F92F3018F92FB1113108831687008312B9
:080FF00087118A150A12ED2990
:101000000B08B5008B13831603178C170C14000004
:10101000000083120313B51B8B1703183B2803171B
:101020000C087F390313B50003170D080313B6002E
:1010300003170F080313B70035088316DE008A1163
:10104000831282218A15360803178D00031337088F
:1010500003178F0003130B08B8008B1383160317B5
:101060008C170C140000000083120313B81B8B179D
:10107000B40B3B285E2803170C0D0E0D7F390313AC
:10108000B50003170D080313B60003170F08031369
:10109000B70035088316DE008A11831282218A1573
:1010A000360803178D000313370803178F008D0AC6
:1010B00003198F0A03100313B40B002808003B0820
:1010C000F8013A02031867283A08F7007328F70175
:1010D0000830BC00BA0DF70D3B0877020318F70083
:1010E000F80DBC0B6A2808002030351E3030B600E1
:1010F0003408F700B41F8428F709F70A7708B4000A
:101100002D30B600B51735143408BA006430BB0072
:101110005F207708B40030307807B7003408BA0091
:101120000A30BB005F2030307707B90030307807D5
:10113000B8003608F700303037020319A328B51479
:10114000B51B3515B7283608B7002030B60030304B
:1011500038020319AF283514B51BB514B728031D81
:101160003514031DB7283708B8002030B7003519EB
:10117000BE28B518C5283518CC28D32836088316BC
:10118000DE008A11831282218A1537088316DE0059
:101190008A11831282218A1538088316DE008A118B
:1011A000831282218A1539088316DE008A11831280
:1011B00082218A15080001308316DF000230E0002A
:1011C0008A1183125D218A15123003178D000030B9
:1011D0008F00031005300313B40000202F08B40063
:1011E0001830B500742009308316DF000230E000AB
:1011F0008A1183125D218A15163003178D00003085
:101200008F00031005300313B40000202E08B40033
:101210001830B5007420301C20290E308316DF00F2
:101220000130E0008A1183125D218A151A300317FC
:101230008D0000308F008A110313B2218A153429E2
:10124000301834290E308316DF000130E0008A1197
:1012500083125D218A151C3003178D0000308F002A
:101260008A110313B2218A1508003114310883163C
:10127000870083120718592905308316DF008A1169
:1012800083121F208A1531143108831687008312B8
:101290000718592931143108831687008312071C57
:1012A0004A292F08283C031858291430AF0059291F
:1012B000AF0ADB20B1143108831687008312871828
:1012C0007E2905308316DF008A1183121F208A15BC
:1012D000B114310883168700831287187E292E08DF
:1012E000283C031876291430AE007729AE0AB114D1
:1012F0003108831687008312871C7729DB2031157C
:1013000031088316870083120719A0290530831638
:10131000DF008A1183121F208A15311531088316C8
:10132000870083120719A0293018982930149929A9
:10133000301031153108831687008312071D992953
:10134000DB208A150A12EF2903081F398300AB013D
:10135000AA011E30AE002030AF003014FF30B100C3
:10136000B301B20183161F149F141F159F1107307C
:101370009C0083138312A001A1018A1133288A15CE
:101380008A1119298A151E3003178D0000308F002D
:101390008A110313B2218A158A11262A8A15831607
:1013A0001F1383121F139F1383169F1783121F147B
:1013B00083161F109F141F159F158A1183129A2DD3
:1013C0008A15C8308316DF008A1183121F208A1500
:1013D0000130B400B5008A113D2F8A153529DB2074
:1013E000C8308316DF008A1183121F208A158316E6
:0413F000DD29630090
:02400E00323F3F
:00000001FF
;PIC16F877A
;CRC=DCDC  CREATED="29-Nov-22 22:34"
