:0400000018EF03F002
:08000800046ED8CF05F0E0CF33
:1000100006F00001E9CF0CF0EACF07F0E1CF08F0DD
:10002000E2CF09F0D9CF0AF0DACF0BF0F3CF12F01C
:10003000F4CF13F0FACF14F0F5CF15F0F6CF16F099
:10004000F7CF17F0F8CF18F0FBCF19F000C00EF083
:1000500001C00FF002C010F003C011F0A0A234EFF5
:1000600000F0A1B282EF00F00EC000F00FC001F06E
:1000700010C002F011C003F00CC0E9FF07C0EAFF96
:10008000078E08C0E1FF09C0E2FF0AC0D9FF0BC01C
:10009000DAFF12C0F3FF13C0F4FF14C0FAFF15C05B
:1000A000F5FF16C0F6FF17C0F7FF18C0F8FF19C01C
:1000B000FBFF045006C0E0FF05C0D8FF1000F76A40
:1000C000D20FF66E000EF722000EF86E0900F55002
:1000D0001200C0F9A4B0999282F880908883C6A1DA
:1000E000868E2E004E4F2044485431310000444F3C
:1000F0004320534149204455204C4945552044480C
:1001000054313100562A0B0EB36EDC0EB26EA19242
:1001100034EF00F064C065F0666B665064C066FF43
:100120006430FEE3665063C066FF6430FEE3120095
:100130001CC064F01BC063F0EDDF97988E88979821
:100140008E9812005750596E591E665059C066FF5E
:100150006430FEE358C059F0591E665059C066FF1E
:100160006430FEE3979E8E8E979E8E9E17EF01F071
:100170005750596E591E665059C066FF6430FEE3F1
:1001800058C059F0591E665059C066FF6430FEE3EE
:1001900098988F8898988F981AEF01F024C064F08F
:1001A00023C063F0B7DF22C064F021C063F0B2DF88
:1001B00020C064F01FC063F0ADDF1EC064F01DC03E
:1001C00063F0A8DF979A8E8A979A8E9A1BEF01F0B8
:1001D000070E576E5750800A7F0811E2036A575086
:1001E000250FE96E000E0320EA6EEF50FF0A586EED
:1001F000665058C066FF6430FEE35706EBD7979C05
:100200008E8C979C8E9C120060C064F05FC063F07F
:1002100081DF62C064F061C063F07CDF93968A8600
:1002200093968A96120084DF576858688BD7576870
:1002300058689ED7B3D7CCDF606B5F6A626B616B27
:10024000E3DF48EF01F0FF0E926EF10E936EC10EE8
:10025000946E949A8B8A94948B9494928B92080EB9
:10026000956E5F0E966E070E976E160E986E9396AD
:100270008A96979C8E9C979A8E9A98988F98979E1C
:100280008E9E97988E9897968E861C6A1B6ACBD7FF
:10029000949A8B9A95948C84959E8C8E639A95985B
:1002A000958A959C200E636E400E646EC050C00B04
:1002B000C06EC08EC280C150C00B0A09C16E77EFFC
:1002C00003F05A6A010E596E5950100814E39796BC
:1002D0008E96740E006E002EFED70000978485A4C3
:1002E00059C05AF097968E86740E006E002EFED777
:1002F0000000592AE9D75AC001F093EF01F0EA6AE9
:100300005A0EE96EEF500DE0060E016E006A002EE7
:10031000FED7012EFBD77B0E006E002EFED7EF2EF0
:10032000F3D71200CED701C058F0585213E05850FE
:10033000100810E3010E5A6EE2DF2D2A2D50575C93
:1003400005E22D6A58C001F007D003D0FF0E016E00
:1003500003D002D0FF0E016ED5EF01F059C05BF063
:100360005AC05CF058C05EF057C05DF05CC060F0F1
:100370005BC05FF05EC062F05DC061F045DF1200FF
:10038000B50EB16E572C04D00B0EB36EDC0EB26EF0
:100390000DEF02F0B16A572C04D00B0EB36EDC0ED9
:1003A000B26E12000A0E576EBDD701C053F0535201
:1003B00046E05350100843E30F0E531653500908FC
:1003C0000CE34BB20AD031C032F030C031F053C030
:1003D00030F0C80E5A6E93DF32D053500A081EE137
:1003E0004B844B823250640DF3CF57F031500A0DDD
:1003F000F35057243024556E5550040805E3050E7C
:10040000556E326A316A306E546A5A6A596A586A4D
:10041000576AA4DF010E576EB3D711D053500B08A3
:1004200006E15A6A596A586A576A98DF08D05350E9
:100430000C0805E14B944B92576AACDF546A14EFF9
:1004400003F01C8A75DE58C059F0592A5906D8B4F1
:1004500003D05A6854DFFAD757C05AF050DF1C9ABD
:1004600067DE4CEF02F04BA417D05650090802E2A9
:10047000566A542A5550545C0FE14BA40DD05A686B
:100480005968586857686ADF4B944B92576A82DF05
:10049000586AC80E576ED5D715EF03F0016A026A85
:1004A000006A036A625102E1615118E0100E636F45
:1004B000D8905F366037003603366251035C02E144
:1004C0006151005C07E36151005ED8A003066251F0
:1004D000035ED88001360236632FEAD71200036A22
:1004E0005950250FE96E000E0320EA6E58C060F0E7
:1004F00057C05FF0626B0A0E616FD0DF00C05DF025
:1005000003C05EF003C003F00050D9DDEF6E010EB2
:100510005924036A250FE96E000E0320EA6E58C0C5
:1005200060F057C05FF0626B0A0E616FB7DF02C008
:100530005EF001C05DF002C060F001C05FF0626B70
:100540000A0E616FABDF00C05DF003C05EF003C058
:1005500003F00050B4DDEF6E020E5924036A250F3C
:10056000E96E000E0320EA6E58C060F057C05FF0DD
:10057000626B640E616F92DF02C05EF001C05DF0DD
:1005800002C060F001C05FF0626B0A0E616F86DF2F
:1005900000C05DF003C05EF003C003F000508FDDCB
:1005A000EF6E5A2C28D0020E5924036A250FE96EEB
:1005B000000E0320EA6EEF50C0081DE1020E592420
:1005C000036A250FE96E000E0320EA6EEF68010E44
:1005D0005924036A250FE96E000E0320EA6EEF50DE
:1005E000C00809E1010E5924036A250FE96E000EC7
:1005F0000320EA6EEF6810EF03F0036A32505FDD0C
:10060000276E036A31505BDD266E036A305057DD7A
:10061000256E586A54C057F0050E596E5A6A5FD756
:10062000D7DD16EF03F0BED61ED7E7D77DEF03F078
:10063000F86AD09E078E639A000E646E210E636E78
:100640009598958A959C7E86080EAF6E020E7F6EF9
:10065000A60EAC6E900EAB6E7C86080E6F6E020E10
:100660007D6EA60E6C6E900E6B6E1C6A1B6A2D6AF8
:1006700038684B90516A050E526E4B924B94C150A4
:10068000C00B0F09C16E070EB46E11D008401D00DB
:1006900008C0FF084030001200393033150316023D
:1006A0002190903030100820022090960000000E1B
:1006B000F86E060EF76E8C0EF66E0900F550006EA1
:1006C000000A13E00900F550016EE8BE05D00F0BDB
:1006D000EA6E0900F5CFE9FF01BC090001AC090091
:1006E000F5CFEEFF004EE9D7F9D7F86AACD5C00ECA
:0E06F000F212A082566A546A96D7FED7030013
:020000040030CA
:0E00000000C21E1E0385B100FFC0FFE0FF40DE
:00000001FF
;PIC18F6722
;CRC=08D5  CREATED="19-Oct-22 10:54"
