:0400000037EF03F0E3
:08000800046ED8CF05F0E0CF33
:1000100006F00001E9CF0CF0EACF07F0E1CF08F0DD
:10002000E2CF09F0D9CF0AF0DACF0BF0F3CF12F01C
:10003000F4CF13F0FACF14F0F5CF15F0F6CF16F099
:10004000F7CF17F0F8CF18F0FBCF19F000C00EF083
:1000500001C00FF002C010F003C011F0A0A234EFF5
:1000600000F0A1B27CEF00F00EC000F00FC001F074
:1000700010C002F011C003F00CC0E9FF07C0EAFF96
:10008000078E08C0E1FF09C0E2FF0AC0D9FF0BC01C
:10009000DAFF12C0F3FF13C0F4FF14C0FAFF15C05B
:1000A000F5FF16C0F6FF17C0F7FF18C0F8FF19C01C
:1000B000FBFF045006C0E0FF05C0D8FF1000F76A40
:1000C000D20FF66E000EF722000EF86E0900F55002
:1000D000120080C094D42E004E4F20444854313139
:1000E0000000444F4320534149204455204C49458A
:1000F0005520444854313100562A0B0EB36EDC0EA5
:10010000B26EA19234EF00F04F4E00004F46460011
:1001100044494555204B4849454E2042555A3A20BE
:10012000000054484F49204749414E204341493A35
:10013000200054484F49204749414E2044454D3AFC
:10014000200065C066F0676B665065C066FF64306E
:10015000FEE3665064C066FF6430FEE312001CC01C
:1001600065F01BC064F0EDDF97988E8897988E98A5
:100170002CEF01F058505A6E5A1E66505AC066FF56
:100180006430FEE359C05AF05A1E66505AC066FFEA
:100190006430FEE3979E8E8E979E8E9E2FEF01F029
:1001A0005D505F6E5F1E66505FC066FF6430FEE3A9
:1001B0005EC05FF05F1E66505FC066FF6430FEE3A6
:1001C00098988F8898988F98120024C065F023C063
:1001D00064F0B7DF22C065F021C064F0B2DF20C058
:1001E00065F01FC064F0ADDF1EC065F01DC064F097
:1001F000A8DF979A8E8A979A8E9A33EF01F0070EAE
:10020000586E5850800A7F0811E2036A5850250F33
:10021000E96E000E0320EA6EEF50FF0A596E665039
:1002200059C066FF6430FEE35806EBD7979C8E8C6E
:10023000979C8E9C34EF01F061C065F060C064F063
:1002400080DF63C065F062C064F07BDF93968A86CE
:1002500093968A96120083D7586859688BD75D6841
:100260005E689EDFB2D7CBD7616B606B636B626BEE
:10027000E3DF60EF01F0FF0E926EF10E936EC10EA0
:10028000946E949A8B8A94948B9494928B92080E89
:10029000956E5F0E966E070E976E160E986E93967D
:1002A0008A96979C8E9C979A8E9A98988F98979EEC
:1002B0008E9E97988E9897968E861C6A1B6ACBD7CF
:1002C000949A8B9A95948C84959E8C8E639A95982B
:1002D000958A959C200E636E400E646EC050C00BD4
:1002E000C06EC08EC280C150C00B0A09C16E97EFAC
:1002F00003F0388038C05DF05CC05EF051DF200E46
:10030000006E002EFED700D00000389038C05DF09F
:100310005CC05EF045DF120038945BC05CF0E9DF42
:100320001200EA6A5A0EE96EEF500DE0060E016EF9
:10033000006A002EFED7012EFBD77B0E006E002E2A
:10034000FED7EF2EF3D712003890389238843896C3
:10035000380E5B6EE1DF420E006E002EFED700000D
:100360000C0E5B6ED9DF420E006E002EFED7000031
:10037000010E5B6ED1DF020E5A6ED3DF060E5B6E8E
:10038000CBDF420E006E002EFED7000098EF03F088
:100390005AC05CF05BC05DF059C05FF058C05EF0C1
:1003A0005DC061F05CC060F05FC063F05EC062F091
:1003B00043DF1200036A585082DE59245A6E5B6E86
:1003C000ABDF120038845BC05CF093DF12000900E1
:1003D000F55210E0F6CF58F0F7CF59F0F8CF5AF0B9
:1003E000F5CF5BF0EFDF58C0F6FF59C0F7FF5AC0FA
:1003F000F8FFEDD712005950016A585C03E258C06B
:1004000000F00CD0006A080E5A6E5836003659506B
:10041000005CD8B0006E01365A2EF7D71200586A29
:10042000596AC8DF100EF66E010EF76E000EF86EF8
:10043000CEDF010E586E596ABDDF220EF66E010E38
:10044000F76E000EF86EC3DF020E586E596AB2DF07
:10045000320EF66E010EF76E000EF86EB8DF010E6A
:10046000586E100E596EA6DF55C058F00A0E596E20
:10047000C2DF300E0124586E5B6EA4DF55C058F009
:100480000A0E596EB8DF300E0024586E5B6E9ADF8C
:10049000020E586E100E596E8DDF57C058F00A0EBE
:1004A000596EA9DF300E0124586E5B6E8BDF57C08A
:1004B00058F00A0E596E9FDF300E0024586E5B6EA6
:1004C00081DFA4EF03F05B6A010E5A6E5A501008E8
:1004D00014E397968E96740E006E002EFED70000E1
:1004E000978485A45AC05BF097968E86740E006E32
:1004F000002EFED700005A2AE9D75BC001F082EF38
:1005000002F0E1D701C059F0595213E059501008D8
:1005100010E3010E5A6E05DF2D2A2D50585C05E2BE
:100520002D6A59C001F007D003D0FF0E016E03D031
:1005300002D0FF0E016EB2EF02F0B50EB16E582C74
:1005400004D00B0EB36EDC0EB26EE3EF02F0B16AB4
:10055000582C04D00B0EB36EDC0EB26E12000A0ED5
:10056000586ECFD701C053F0535247E05350100894
:1005700044E30F0E53165350090818E34BB216D03C
:1005800030C031F053C030F0C80E5A6ECADE315060
:100590000A0DF3503024556E55503B0806E23B0ED1
:1005A000556E050E316E090E306E27D053500A0875
:1005B0000BE15B6A5A6A596A586AEADE4B844B82DD
:1005C000010E586EBAD719D053500C080AE103D067
:1005D0004B8600A006D05B6A5A6A596A586AD8DE10
:1005E0000CD053500B0801E108D053500E0805E120
:1005F0004B944B92586AABDF576AA5EF03F0586AE9
:10060000100E596ED7DE080EF66E010EF76E000E54
:10061000F86EDDDE080E586EFA0E5A6E82DE582E27
:10062000FBD7586A100E596EC5DE0C0EF66E010E21
:10063000F76E000EF86ECBDE35EF03F04BA415D04D
:100640005650090802E2566A572A5550575C0DE188
:100650004BA40BD05B685A685968586899DE4B9474
:100660004B92586A74DF4B86CAD7A6EF03F0F86A3C
:10067000D09E078E639A000E646E210E636E95986D
:10068000958A959C7E86080EAF6E020E7F6EA60E32
:10069000AC6E900EAB6E7C86080E6F6E020E7D6E99
:1006A000A60E6C6E900E6B6E1C6A1B6A2D6A386803
:1006B0004B90516A050E526E4B924B944B96C15023
:1006C000C00B0F09C16E070EB46E11D008401D009B
:1006D00008C0FF08403000120039303315031602FD
:1006E0002190903030100820022090960000000EDB
:1006F000F86E060EF76ECC0EF66E0900F550006E21
:10070000000A13E00900F550016EE8BE05D00F0B9A
:10071000EA6E0900F5CFE9FF01BC090001AC090050
:10072000F5CFEEFF004EE9D7F9D7F86AA4D50CD67D
:10073000C00EF212A082566A576A556A5B685A6800
:100740005968586825DE6BD60AD778D7FCD70300DE
:020000040030CA
:0E00000000C21E1E0385B100FFC0FFE0FF40DE
:00000001FF
;PIC18F6722
;CRC=BCAB  CREATED="09-Nov-22 11:41"
