:1000000087EF01F0F76A180FF66E000EF722000E68
:10001000F86E0900F5501200C0F9A4B0999282F868
:1000200080908883C6A1868E2E004E4F204448546F
:1000300031310000444F4320534149204455204C66
:100040004945552044485431310042C043F0446A88
:10005000665042C066FF6430FEE3665041C066FFF2
:100060006430FEE3120005C042F004C041F0EDDF51
:1000700097988E8897988E98B1EF00F03D503F6E1C
:100080003F1E66503FC066FF6430FEE33EC03FF057
:100090003F1E66503FC066FF6430FEE3979E8E8E23
:1000A000979E8E9EB4EF00F03D503F6E3F1E66500F
:1000B0003FC066FF6430FEE33EC03FF03F1E665027
:1000C0003FC066FF6430FEE398988F8898988F98B9
:1000D000B7EF00F00DC042F00CC041F0B6DF0BC02E
:1000E00042F00AC041F0B1DF09C042F008C041F05F
:1000F000ACDF07C042F006C041F0A7DF979A8E8AB6
:10010000979A8E9AB8EF00F0070E3D6E3D50800A28
:100110007F0811E2036A3D500E0FE96E000E0320C6
:10012000EA6EEF50FF0A3E6E66503EC066FF6430D6
:10013000FEE33D06EBD7979C8E8C979C8E9C12001D
:100140003EC042F03DC041F080DF40C042F03FC0C1
:1001500041F07BDF93968A8693968A96BEEF00F0F5
:1001600082D73D683E688AD73D683E689DD7B2D742
:10017000CBDF3E6A3D6A406A3F6AE2D7E5EF00F0B6
:10018000FF0E926EF10E936EC10E946E949A8B8A4E
:1001900094948B9494928B92080E956E5F0E966E4B
:1001A000070E976E160E986E93968A96979C8E9C65
:1001B000979A8E9A98988F98979E8E9E97988E98D9
:1001C00097968E86056A046ACBD7949A8B9A9594F3
:1001D0008C84959E8C8E639A9598958A959C200E1A
:1001E000636E400E646EC050C00BC06EC08EC28085
:1001F000C150C00B0A09C16EE3EF01F0406A010E65
:100200003F6E3F50100814E397968E96740E006E62
:10021000002EFED70000978485A43FC040F097963B
:100220008E86740E006E002EFED700003F2AE9D79E
:1002300040C001F030EF01F0EA6A3F0EE96EEF5086
:100240000DE0060E016E006A002EFED7012EFBD7D0
:100250007B0E006E002EFED7EF2EF3D71200CED706
:1002600001C03EF03E5213E03E50100810E3010E74
:100270003F6EE2DF162A16503D5C05E2166A3EC06C
:1002800001F007D003D0FF0E016E03D002D0FF0EA5
:10029000016E70EF01F0070E3D6E3D521CE0036AE7
:1002A0003D500E0F016E000E032201C03EF003C050
:1002B0003FF0010E3D5C036A0E0FE96E000E032055
:1002C000EA6EEFCF40F03FC0EAFF01C0E9FF40C057
:1002D000EFFF3D06E2D778EF01F00A0E3D6EBFD783
:1002E00001C03CF03C5211E03C5010080EE3D3D763
:1002F0003C500F0B036A86DE0E6E06DF020E3D6E6B
:10030000FA0E3F6E99DF3D2EFBD7E4EF01F0F86A5D
:10031000D09E639A000E646E210E636E9598958A46
:10032000959C7E86080EAF6E020E7F6EA60EAC6E9A
:10033000900EAB6E7C86080E6F6E020E7D6EA60E62
:100340006C6E900E6B6E056A046A166A21683490B2
:100350003A6A050E3B6EC150C00B0F09C16E070E05
:10036000B46E11D00840060008C0FF084019001202
:1003700000223033150316022190903030100820EF
:10038000022090960000000EF86E030EF76E640EC9
:10039000F66E0900F550006E000A13E00900F550F2
:1003A000016EE8BE05D00F0BEA6E0900F5CFE9FF3C
:1003B00001BC090001AC0900F5CFEEFF004EE9D702
:0C03C000F9D7F86ADDD689D7FED7030014
:020000040030CA
:0E00000000C21E1E0385B100FFC0FFE0FF40DE
:00000001FF
;PIC18F6722
;CRC=D1B4  CREATED="12-Oct-22 09:29"
