:10000000F0EF0DF0F76A180FF66E000EF722000EF3
:10001000F86E0900F550120080C094D4F76A300FD2
:10002000F66E000EF722000EF86E0900F550120071
:10003000070F1F1F1F1F1F1F1F1F1F000000000093
:100040001C1E1F1F1F1F1F1F00000000001F1F1F5F
:100050001F1F1F1F1F1F0F071F1F1F1F1F1F1E1CDC
:100060001F1F1F0000001F1F1F1F1F1F1F1F1F1FFD
:100070002E004E4F2044485431310000444F43205D
:10008000534149204455204C49455520444854315A
:10009000310043616D206269656E20646F206B687A
:1000A0006F616E67200053484152502047503244E0
:1000B00031323A31302D3830636D00002E0043C0AC
:1000C00044F0456A665043C066FF6430FEE3665004
:1000D00042C066FF6430FEE3120005C043F004C076
:1000E00042F0EDDF97988E8897988E98EDEF00F0AC
:1000F0003E50406E401E665040C066FF6430FEE3D6
:100100003FC040F0401E665040C066FF6430FEE3D2
:10011000979E8E8E979E8E9EF0EF00F04F50516E00
:10012000511E665051C066FF6430FEE350C051F06E
:10013000511E665051C066FF6430FEE398988F8868
:1001400098988F9812000DC043F00CC042F0B7DFB2
:100150000BC043F00AC042F0B2DF09C043F008C050
:1001600042F0ADDF07C043F006C042F0A8DF979A27
:100170008E8A979A8E9AF4EF00F0070E4A6E4A50D4
:10018000800A7F0814E2036A4A50006EE8BE030644
:100190000E0FE96E000E0320EA6EEF50FF0A4B6E61
:1001A00066504BC066FF6430FEE34A06E8D7979C72
:1001B0008E8C979C8E9C12003FC043F03EC042F054
:1001C0007EDF41C043F040C042F079DF93968A86DB
:1001D00093968A96FAEF00F080D73E683F6888D7FA
:1001E0004F6850689BDFAFD7C8DF3F6A3E6A416AFD
:1001F000406AE2D721EF01F0FF0E926EF10E936E8E
:10020000C10E946E949A8B8A94948B9494928B9250
:10021000080E956E5F0E966E070E976E160E986E10
:1002200093968A96979C8E9C979A8E9A98988F9878
:10023000979E8E9E97988E9897968E86056A046AEA
:10024000CBD7949A8B9A95948C84959E8C8E639A36
:100250009598958A959C200E636E400E646EC050F2
:10026000C00BC06EC08EC280C150C00B0A09C16EE7
:1002700057EF0EF0218021C04FF04EC050F04EDFFE
:10028000210E006E002EFED7219021C04FF04EC0EF
:1002900050F044DF120021944DC04EF0EBDF12000D
:1002A000EA6A3E0EE96EEF500DE0060E016E006A3E
:1002B000002EFED7012EFBD77B0E006E002EFED740
:1002C000EF2EF3D77EEF01F0219021922184219629
:1002D000380E4D6EE0DF420E006E002EFED700009D
:1002E0000C0E4D6ED8DF420E006E002EFED70000C1
:1002F000010E4D6ED0DF020E3E6ED2D7060E4D6E51
:10030000CADF420E006E002EFED7000059EF0EF03D
:1003100021844DC04EF0AEDF1200400E4D6EBBDFAB
:100320003E6A3E503F0808E3036A3E5077DE3F6E68
:100330004D6EEEDF3E2AF5D75BEF0EF0036A4A50B2
:1003400061DE4B244C6E4D6EA6DF12000900F552A3
:1003500010E0F6CF4AF0F7CF4BF0F8CF4CF0F5CFE6
:100360004DF0D6DF4AC0F6FF4BC0F7FF4CC0F8FF98
:10037000EDD712004A6A4B6AE1DF920EF66E000E6C
:10038000F76E000EF86EE2DF010E4A6E4B6AD6DFA2
:10039000A60EF66E000EF76E000EF86ED7DF5DEF5C
:1003A0000EF08E0E006E7FC001F07EC002F0036A78
:1003B000015209E102C001F0026A080E005E01521A
:1003C00002E1006A08D0D89001BE04D0023601369E
:1003D0000006F9D7019E1200800ED8B2831B886BED
:1003E000896B7FC087F08351871B7E51D8B4DCD0E6
:1003F000866F006E8251D8B4E0D0865FD8B481D0C9
:100400003DE383C08CF08C8F84C08BF085C08AF074
:10041000896BD8908C338B338A338933862FF8D706
:1004200087AF03D08881DDD0889186918889EA6A78
:10043000810EE96EE9D0889987BF0AD086A113D0D2
:100440008C338B338A338933002AD8B4C5D00BD090
:100450008CBF0CD0D89089378A378B378C37000601
:10046000D8B4BAD0F5D7888D6BD0889D7FC087F07F
:100470007FAF02D08C8FA9D08C9FA7D082C086F08E
:1004800082C000F07E51865F7FC08CF08C8F80C070
:100490008BF081C08AF0896BD8908C338B338A3390
:1004A0008933862FF8D787AF03D088839AD0889373
:1004B0008691888BEA6A850EE96EA6D0889B87BFF5
:1004C0000AD086A113D08C338B338A338933002A28
:1004D000D8B482D00BD08CBF0CD0D89089378A3753
:1004E0008B378C370006D8B477D0F5D7888F28D0D3
:1004F000889F83C087F083AF02D08C8F66D08C9F9B
:1005000064D083C08CF08C8F84C08BF085C08AF05F
:1005100087AF04D08C9F888564D08895896B86913D
:10052000EA6A810EE96E70D087BF1CD07FC087F069
:1005300086A106D08C338B338A338933002A4CE072
:1005400089AF0BD08A2B09E18B2B07E18C2B05E1BE
:100550008C338B338A33002A3FE088BD86D788BF2F
:10056000C7D71CD0800E8C1B8CAF04D03AD083C070
:1005700087F00AD07FC087F08C5306E18B5304E1EB
:100580008A5302E1006A21D08CBF08D0D890893705
:100590008A378B378C37002EF7D71ED087AF02D023
:1005A0008C8F13D08C9F11D082C000F083C08CF050
:1005B00084C08BF085C08AF008D07EC000F07FC078
:1005C0008CF080C08BF081C08AF08CC001F08BC0B1
:1005D00002F08AC003F034D0006A016A026A036A3A
:1005E0002FD0896B8A1F8B1F8C1F891F892B05E1D8
:1005F0008A2B03E18B2B01E18C2B88B115D788B3B3
:1006000056D788B58AD7B3D7EF508A2705E38B2B07
:1006100003E18C2BD8B48681ED52EF508B2703E396
:100620008C2BD8B48681ED52EF50EFBE01D0800AFA
:100630008C27D8B0868188B9FED688BB3FD774D7BF
:1006400012007351D8B4A5D07F6F7751D8B4A1D020
:100650007F5F05E37F0E7F27D8B09BD006D0810E49
:100660007F5FD8A096D0D8B494D07FC000F0016A44
:10067000026A036A7E6B74C07DF07D8F75C07CF06A
:1006800076C07BF0190E7F6F7A517B5F0DE2010E11
:100690007C5F0AE27D5F08E27E5F06E27E2B7D2BB7
:1006A0007C2B7A517B2728D079517C5F12E2010E96
:1006B0007D5F0FE27E5F0DE27E2B7D2B79517C27E3
:1006C0007A517B2719E37C2B17E17D2B15E17E2BDB
:1006D00013D0785180097D5F0EE2010E7E5F0BE240
:1006E0007E2B785180097D2779517C27E9E37D2B8A
:1006F000E7E17E2BE5D703807F2F01D00BD0D89088
:100700007B377C377D377E37D8900336023601360B
:100710008037BAD780A106D0D89001320232033296
:10072000803302D0000635E080BF1ED0D8907B37E2
:100730007C377D377E377A517B5F07E2010E7C5F25
:1007400004E27D5F02E27E5F1AE379517C5F05E29D
:10075000010E7D5F02E27E5F12E3785180097D5FCA
:1007600003E2010E7E5F0BE3032A09E1022A07E19F
:10077000012A05E1002A0DE001320232033274C081
:100780007FF078517F1B7FAF02D0018E06D0019E93
:1007900004D0006A016A026A036A12004B34006ED8
:1007A0000036FC0E0016C250C30B0010C26E210EA4
:1007B000006E002EFED74F6A4E6A4D6A4C6A506A30
:1007C0004A50505C2AE2C282C2B2FED7C4CF02F0C5
:1007D000C3CF01F0C4CF03F0C3CF7EF0C4CF7FF00E
:1007E000E0DDD8924FC081F04EC080F04DC07FF068
:1007F0004CC07EF003C085F002C084F001C083F0DD
:1008000000C082F0E9DD03C04FF002C04EF001C02D
:100810004DF000C04CF0502AD3D77F6B4AC07EF019
:10082000C0DD4FC076F04EC075F04DC074F04CC0C6
:1008300073F003C07AF002C079F001C078F000C014
:1008400077F0FFDE03C04FF002C04EF001C04DF064
:1008500000C04CF04CC000F04DC001F04EC002F0A2
:100860004FC003F00AEF0DF07BC082F07F51821B76
:1008700082AF05D0D894D8907BBFD8802FD07BC0D2
:1008800082F07EC083F07A51835F06E082AF26D08B
:10089000D850010AD86E22D07FC083F07B51835F8D
:1008A00006E082AF1BD0D850010AD86E17D080C0A6
:1008B00083F07C51835F06E082AF10D0D850010AEC
:1008C000D86E0CD081C083F07D51835F06E082AF8B
:1008D00005D0D850010AD86E01D0D89012008E0EE3
:1008E000006E7A51005E7BC002F07CC001F0028E87
:1008F000005209E0D890025202E1015204E00232B3
:100900000132002EF7D77BAF05D0011E021E012A4F
:10091000D8B4022A12007A51D8B471D0006E7E5138
:10092000D8B46DD0002604E3810E002668E204D01E
:100930007F0E005E64E363E07BC082F07F51821B28
:100940007B8F7F8F7D518103F4CF84F07C518003B6
:10095000F4CF03F0F3CF83F08103F3508427F450F6
:100960008323000E03227D518003F3508427F4502B
:100970008323000E026A032202227B518103F3507B
:100980008327F4500322000E02227B518003F35090
:100990000326F4500222000E016A01227D517F03DA
:1009A000F3508327F4500322000E022201227C51CF
:1009B0007F03F3500326F4500222000E01227B51E4
:1009C0007F03F3500226F4500122002A01BE05D015
:1009D00083370336023601360006000E83AF0AD095
:1009E000032A02220122015005E1025003E10350D3
:1009F00001E1002A82BF018E82AF019E04D0006A0D
:100A0000016A026A036A120079916DC072F06CC0CB
:100A100071F06BC070F06AC06FF06DC07DF06CC09B
:100A20007CF06BC07BF06AC07AF0816B806B7F6B6F
:100A30007E6B1ADF04E379817051800A706F72C097
:100A40007DF071C07CF070C07BF06FC07AF0816B7C
:100A5000806B7F6B8E0E7E6F07DF01E217E172C045
:100A60007DF071C07CF070C07BF06FC07AF037DF32
:100A700002C07FF001C07EF094DC03C076F002C0BB
:100A800075F001C074F000C073F0BFD072C07DF08B
:100A900071C07CF070C07BF06FC07AF0800E816F07
:100AA000960E806F180E7F6F960E7E6FDDDED8A0DB
:100AB000A4D072C07DF071C07CF070C07BF06FC0BC
:100AC0007AF0816B806B7F6B700E7E6F24DF03C0CA
:100AD0007DF002C07CF001C07BF000C07AF0FFDE48
:100AE00002C078F001C077F072C07DF071C07CF078
:100AF00070C07BF06FC07AF0816B806B7F6B700E83
:100B00007E6F09DF03C07DF002C07CF001C07BF086
:100B100000C07AF078C07FF077C07EF042DCD882E7
:100B20007DC081F07CC080F07BC07FF07AC07EF019
:100B300003C085F002C084F001C083F000C082F0E1
:100B40004BDC7D6B7C6B7B6B8E0E7A6F03C081F010
:100B500002C080F001C07FF000C07EF0DCDE03C088
:100B600072F002C071F001C070F000C06FF078C088
:100B70007FF077C07EF015DC7D6B7C6B7B6B8E0E1F
:100B80007A6F03C081F002C080F001C07FF000C026
:100B90007EF0C1DE03C076F002C075F001C074F0D3
:100BA00000C073F072C07DF071C07CF070C07BF04B
:100BB0006FC07AF094DE02C07FF001C07EF0D1EC0D
:100BC00001F0D89276C081F075C080F074C07FF0DB
:100BD00073C07EF003C085F002C084F001C083F0D2
:100BE00000C082F0ECEC01F003C076F002C075F0BA
:100BF00001C074F000C073F008D072C076F071C00C
:100C000075F070C074F06FC073F072C07DF071C089
:100C10007CF070C07BF06FC07AF061DE02C07FF0C4
:100C200001C07EF0D1EC01F0D88272C081F071C0B9
:100C300080F070C07FF06FC07EF003C085F002C00E
:100C400084F001C083F000C082F0ECEC01F003C03E
:100C500072F002C071F001C070F000C06FF079A1B5
:100C600003D07451800A746F72C07DF071C07CF043
:100C700070C07BF06FC07AF0816B806B7F6B7E6B96
:100C8000F3DD38E079A11AD06E5318E1D88276C02E
:100C900081F075C080F074C07FF073C07EF0856B0A
:100CA000846B836B7F0E826FECEC01F003C076F0F7
:100CB00002C075F001C074F000C073F079B11AD0B1
:100CC0006E2D18D0D89276C081F075C080F074C0B7
:100CD0007FF073C07EF0856B846B836B7F0E826FB9
:100CE000ECEC01F003C076F002C075F001C074F0C6
:100CF00000C073F06DC07DF06CC07CF06BC07BF009
:100D00006AC07AF0816B806B7F6B7E6BADDD04E136
:100D1000766B756B746B736B73C000F074C001F00D
:100D200075C002F076C003F0120069C06DF068C0B3
:100D30006CF067C06BF066C06AF0010E6E6F64DE27
:100D400006EF07F069C06DF068C06CF067C06BF02B
:100D500066C06AF06E6B58DE29EF07F05DC07DF06B
:100D60005CC07CF05BC07BF05AC07AF0816B806B1A
:100D70007F6B7E6B79DDD8B499D059C076F058C0BE
:100D800075F057C074F056C073F05DC07AF05CC067
:100D900079F05BC078F05AC077F053DC03C065F09F
:100DA00002C064F001C063F000C062F003C07DF0D7
:100DB00002C07CF001C07BF000C07AF0816B806BD8
:100DC0007F6B7E6B51DD23E359C076F058C075F020
:100DD00057C074F056C073F05DC07AF05CC079F013
:100DE0005BC078F05AC077F02CDC03C065F002C01D
:100DF00064F001C063F000C062F003C069F002C09B
:100E000068F001C067F000C066F08FD722D059C0EB
:100E100076F058C075F057C074F056C073F05DC0DE
:100E20007AF05CC079F05BC078F05AC077F009DCEA
:100E300003C065F002C064F001C063F000C062F05E
:100E400003C069F002C068F001C067F000C066F03E
:100E500079D703C061F002C060F001C05FF000C04C
:100E60005EF061C07DF060C07CF05FC07BF05EC072
:100E70007AF05DC081F05CC080F05BC07FF05AC04A
:100E80007EF049DDD88259C081F058C080F057C04B
:100E90007FF056C07EF003C085F002C084F001C030
:100EA00083F000C082F0ECEC01F000D012008E0E56
:100EB000006E71C001F070C002F0036A71AF05D01E
:100EC000011E021E022A01E1012A015209E102C0AB
:100ED00001F0026A080E005E015202E1006A0AD0C7
:100EE000D89001BE04D0023601360006F9D771BF92
:100EF00001D0019E12005DC061F05CC060F05BC07B
:100F00005FF05AC05EF061C07DF060C07CF05FC0F1
:100F10007BF05EC07AF0816B806B7F6B7F0E7E6FA3
:100F2000A3DCD8B480D15E0EE96EEA6A7E0EEF6E65
:100F3000D88261C081F060C080F05FC07FF05EC089
:100F40007EF0856B846B836B7F0E826FECEC01F01F
:100F500003C072F002C071F001C070F000C06FF009
:100F6000D89261C081F060C080F05FC07FF05EC049
:100F70007EF0856B846B836B7F0E826FECEC01F0EF
:100F800072C076F071C075F070C074F06FC073F00D
:100F900003C07AF002C079F001C078F000C077F0A9
:100FA00021EC03F003C061F002C060F001C05FF00B
:100FB00000C05EF061C07DF060C07CF05FC07BF07F
:100FC0005EC07AF061C081F060C080F05FC07FF0E9
:100FD0005EC07EF0A0DC03C06DF002C06CF001C00A
:100FE0006BF000C06AF0990E7D6F470E7C6F8A0E21
:100FF0007B6F7F0E7A6F6DC081F06CC080F06BC02C
:101000007FF06AC07EF087DC03C072F002C071F02E
:1010100001C070F000C06FF0D89203C081F002C030
:1010200080F001C07FF000C07EF0856B846B836B25
:10103000800E826FECEC01F003C065F002C064F03A
:1010400001C063F000C062F04C0E7D6FF30E7C6F48
:101050003A0E7B6F7B0E7A6F6DC081F06CC080F0B2
:101060006BC07FF06AC07EF056DC03C072F002C035
:1010700071F001C070F000C06FF0D89203C081F031
:1010800002C080F001C07FF000C07EF02B0E856FA3
:101090009D0E846FDF0E836F7E0E826FECEC01F08D
:1010A00003C069F002C068F001C067F000C066F0DC
:1010B00069C07DF068C07CF067C07BF066C07AF0E4
:1010C0006DC081F06CC080F06BC07FF06AC07EF0B4
:1010D00022DC03C072F002C071F001C070F000C0E9
:1010E0006FF0D89203C081F002C080F001C07FF0A1
:1010F00000C07EF0856B846B836B7F0E826FECEC9F
:1011000001F003C069F002C068F001C067F000C0E0
:1011100066F061C07DF060C07CF05FC07BF05EC0B7
:101120007AF065C081F064C080F063C07FF062C077
:101130007EF08BEC04F003C072F002C071F001C0CD
:1011400070F000C06FF003C076F002C075F001C00F
:1011500074F000C073F069C07AF068C079F067C0BD
:1011600078F066C077F021EC03F003C065F002C0B0
:1011700064F001C063F000C062F05A0EE96EEA6AE2
:101180007E0EEF5C6E6F6EAF12D0000ED8806E5583
:10119000716B706F70BF71078ADE00C066F001501E
:1011A000800A676F02C068F003C069F00ED0716BEF
:1011B0006EC070F070BF71077ADE03C069F002C0C4
:1011C00068F001C067F000C066F069C07DF068C0DB
:1011D0007CF067C07BF066C07AF0180E816F720EEB
:1011E000806F310E7F6F7E0E7E6F8BEC04F0D89295
:1011F00065C081F064C080F063C07FF062C07EF0A3
:1012000003C085F002C084F001C083F000C082F00A
:10121000ECEC01F003C065F002C064F001C063F0C3
:1012200000C062F004D0656B646B636B626B62C07C
:1012300000F063C001F064C002F065C003F012006A
:101240005DC07DF05CC07CF05BC07BF05AC07AF082
:101250003B0E816FAA0E806F380E7F6F7F0E7E6F00
:101260008BEC04F003C07DF002C07CF001C07BF089
:1012700000C07AF06FEC04F001C06AF06B915DC0C1
:1012800061F05CC060F05BC05FF05AC05EF05DC0B2
:101290007DF05CC07CF05BC07BF05AC07AF0816B63
:1012A000806B7F6B7E6B34EC04F005E36B816A6DC1
:1012B0005F50800A5F6E656B646B636B626B620E7E
:1012C000E96EEA6A7F0E6A25EF6E61C07DF060C04C
:1012D0007CF05FC07BF05EC07AF03B0E816FAA0E9F
:1012E000806F380E7F6F7F0E7E6F8BEC04F003C033
:1012F0006FF002C06EF001C06DF000C06CF0716B59
:101300006AC070F070BF7107D2DDD8826FC081F003
:101310006EC080F06DC07FF06CC07EF003C085F0C1
:1013200002C084F001C083F000C082F0ECEC01F058
:1013300003C061F002C060F001C05FF000C05EF069
:101340007C0E7D6F880E7C6F590E7B6F720E7A6FEC
:1013500061C081F060C080F05FC07FF05EC07EF051
:101360008BEC04F003C06FF002C06EF001C06DF0B2
:1013700000C06CF0D89203C081F002C080F001C0C0
:101380007FF000C07EF0E00E856F970E846F260E12
:10139000836F750E826FECEC01F003C069F002C040
:1013A00068F001C067F000C066F069C07DF068C0F9
:1013B0007CF067C07BF066C07AF061C081F060C0ED
:1013C00080F05FC07FF05EC07EF08BEC04F003C065
:1013D0006FF002C06EF001C06DF000C06CF0D892EA
:1013E00003C081F002C080F001C07FF000C07EF039
:1013F000C40E856F1D0E846F1E0E836F780E826F74
:10140000ECEC01F003C069F002C068F001C067F0C5
:1014100000C066F069C07DF068C07CF067C07BF0FA
:1014200066C07AF061C081F060C080F05FC07FF07C
:101430005EC07EF08BEC04F003C06FF002C06EF073
:1014400001C06DF000C06CF0D89203C081F002C002
:1014500080F001C07FF000C07EF05E0E856F500E00
:10146000846F630E836F7A0E826FECEC01F003C021
:1014700069F002C068F001C067F000C066F069C0A2
:101480007DF068C07CF067C07BF066C07AF061C018
:1014900081F060C080F05FC07FF05EC07EF08BECBA
:1014A00004F003C06FF002C06EF001C06DF000C028
:1014B0006CF0D89203C081F002C080F001C07FF0D0
:1014C00000C07EF01A0E856FFE0E846F750E836F5E
:1014D0007C0E826FECEC01F003C069F002C068F092
:1014E00001C067F000C066F069C07DF068C07CF0A4
:1014F00067C07BF066C07AF061C081F060C080F0A8
:101500005FC07FF05EC07EF08BEC04F003C06FF034
:1015100002C06EF001C06DF000C06CF0D89203C044
:1015200081F002C080F001C07FF000C07EF0180E94
:10153000856F720E846F310E836F7E0E826FECECBE
:1015400001F003C069F002C068F001C067F000C09C
:1015500066F061C07DF060C07CF05FC07BF05EC073
:101560007AF069C081F068C080F067C07FF066C023
:101570007EF08BEC04F0D892816B806B7F6B7F0EDA
:101580007E6F03C085F002C084F001C083F000C00C
:1015900082F0ECEC01F065C07DF064C07CF063C0CB
:1015A0007BF062C07AF003C081F002C080F001C01D
:1015B0007FF000C07EF08BEC04F003C065F002C049
:1015C00064F001C063F000C062F06BA117D0766BCD
:1015D000756B746B7F0E736F65C07AF064C079F0C1
:1015E00063C078F062C077F021EC03F003C065F0CF
:1015F00002C064F001C063F000C062F062C000F09D
:1016000063C001F064C002F065C003F0120051C075
:101610007DF050C07CF04FC07BF04EC07AF0816B03
:10162000806B7F6B7E6B34EC04F0D8A0C0D055C0CB
:1016300059F054C058F053C057F052C056F05D6A8C
:101640005C6A5B6A7F0E5A6EAEEC06F003C059F01E
:1016500002C058F001C057F000C056F003C07DF042
:1016600002C07CF001C07BF000C07AF0816B806B1F
:101670007F6B7E6B34EC04F0D8A499D055C059F040
:1016800054C058F053C057F052C056F05D6A5C6ABF
:101690005B6A800E5A6EAEEC06F003C059F002C0D1
:1016A00058F001C057F000C056F003C07DF002C0F2
:1016B0007CF001C07BF000C07AF0816B806B7F6BA7
:1016C0007E6B34EC04F038E14F50800A576E51C005
:1016D0005DF050C05CF05B6E4EC05AF00CDC03C095
:1016E00059F002C058F001C057F000C056F003C0D6
:1016F0007DF002C07CF001C07BF000C07AF055C0E4
:1017000081F054C080F053C07FF052C07EF08BEC6B
:1017100004F003C059F002C058F001C057F000C0F7
:1017200056F003C05DF002C05CF001C05BF000C089
:101730005AF086DDD1D03AD04F50800A576E51C052
:101740005DF050C05CF05B6E4EC05AF07BEC07F071
:1017500003C059F002C058F001C057F000C056F065
:1017600003C07DF002C07CF001C07BF000C07AF0C5
:1017700055C081F054C080F053C07FF052C07EF05D
:101780008BEC04F003C059F002C058F001C057F0D0
:1017900000C056F003C05DF002C05CF001C05BF019
:1017A00000C05AF04DDD800E011A96D095D051C080
:1017B0007DF050C07CF04FC07BF04EC07AF0816B62
:1017C000806B7F6B7E6B34EC04F02CE355C059F0DA
:1017D00054C058F053C057F052C056F05D6A5C6A6E
:1017E0005B6A7F0E5A6EAEEC06F003C059F002C081
:1017F00058F001C057F000C056F003C07DF002C0A1
:101800007CF001C07BF000C07AF0816B806B7F6B55
:101810007E6B34EC04F006E0006A016A026A036A37
:101820005BD05AD051C07DF050C07CF04FC07BF0EF
:101830004EC07AF0816B806B7F6B7E6B34EC04F072
:1018400010E155C07DF054C07CF053C07BF052C015
:101850007AF0816B806B7F6B7E6B34EC04F001E27D
:1018600037E151C05DF050C05CF04FC05BF04EC03E
:101870005AF07BEC07F003C059F002C058F001C0E9
:1018800057F000C056F003C07DF002C07CF001C0EC
:101890007BF000C07AF055C081F054C080F053C096
:1018A0007FF052C07EF08BEC04F003C059F002C010
:1018B00058F001C057F000C056F003C05DF002C000
:1018C0005CF001C05BF000C05AF0BADC05D004D077
:1018D000006A016A026A036A3CEF0DF04DC076F0BF
:1018E0004CC075F04BC074F04AC073F07A6B796BE2
:1018F000786B7F0E776F21EC03F003C07DF002C0A0
:101900007CF001C07BF000C07AF06FEC04F002C004
:1019100038F001C037F038C07FF037C07EF0D1EC2E
:1019200001F0D8824DC081F04CC080F04BC07FF0F8
:101930004AC07EF003C085F002C084F001C083F08D
:1019400000C082F0ECEC01F003C04DF002C04CF09E
:1019500001C04BF000C04AF04DC07DF04CC07CF09F
:101960004BC07BF04AC07AF0816B806B480E7F6F72
:10197000850E7E6F8BEC04F003C04DF002C04CF07E
:1019800001C04BF000C04AF04DC076F04CC075F07D
:101990004BC074F04AC073F07A6B796B786B7F0E32
:1019A000776F21EC03F003C07DF002C07CF001C032
:1019B0007BF000C07AF06FEC04F002C03AF001C096
:1019C00039F064EF0DF0016A026A006A036A4D5053
:1019D00002E14C5018E0100E4E6ED8904A364B364D
:1019E000003603364D50035C02E14C50005C07E3C7
:1019F0004C50005ED8A003064D50035ED8800136DF
:101A000002364E2EEAD712003EC04AF0030E4B6E4D
:101A1000CEEF03F003C043F002C042F001C041F03A
:101A200000C040F0766BA80E756F050E746F8B0EBC
:101A3000736F43C07AF042C079F041C078F040C083
:101A400077F021EC03F003C04DF002C04CF001C070
:101A50004BF000C04AF003C051F002C050F001C08A
:101A60004FF000C04EF0680E556E910E546E0D0E84
:101A7000536E7F0E526ECBD503C043F002C042F0CE
:101A800001C041F000C040F07D6B7C6B200E7B6F8D
:101A9000850E7A6F43C081F042C080F041C07FF074
:101AA00040C07EF034EC04F006E3436A426A200E44
:101AB000416E850E406E43C04DF042C04CF041C0B7
:101AC0004BF040C04AF00AD738C045F037C044F068
:101AD0003AC047F039C046F0020E4A6E4B6E9EEC9B
:101AE00001F0BC0EF66E000EF76E000EF86EA6EC5E
:101AF00001F04450485C03E14550495C39E045C081
:101B000049F044C048F0020E4A6E4B6A9EEC01F068
:101B100045C04BF044C04AF04D6A0A0E4C6E53DF8C
:101B200002C04BF001C04AF0300E4A26000E4B2294
:101B30004AC04DF088EC01F0020E4A6E010E4B6E69
:101B40009EEC01F045C04BF044C04AF04D6A0A0ECD
:101B50004C6E39DF00C04AF003C04BF0300E4A260D
:101B6000000E4B224AC04DF088EC01F0BDEC00F0B5
:101B70003F5234E0020E4A6E030E4B6E9EEC01F0B3
:101B800047C04BF046C04AF04D6A0A0E4C6E1BDF50
:101B900002C04BF001C04AF0300E4A26000E4B2224
:101BA0004AC04DF088EC01F0020E4A6E040E4B6EF6
:101BB0009EEC01F047C04BF046C04AF04D6A0A0E59
:101BC0004C6E01DF00C04AF003C04BF0300E4A26D5
:101BD000000E4B224AC04DF088EC01F075EF0EF07C
:101BE000F86AD09E94869488310EC86E280EC66E10
:101BF000C78EC79C639A000E646E200E636E959824
:101C0000958A959C7E86080EAF6E020E7F6EA60E9C
:101C1000AC6E900EAB6E7C86080E6F6E020E7D6E03
:101C2000A60E6C6E900E6B6E056A046A166A2168C9
:101C3000236A226A36903C6A050E3D6EC150C00B85
:101C40000F09C16E070EB46E11D00840060008C01F
:101C5000FF084019001200243033150316022190AA
:101C6000903030100820022090960000000EF86E90
:101C70001C0EF76E4A0EF66E0900F550006E000A53
:101C800013E00900F550016EE8BE05D03F0BEA6E87
:101C90000900F5CFE9FF01BC090001AC0900F5CF4F
:101CA000EEFF004EE9D7F9D7F86AFCEF00F064EFD9
:101CB00001F08DEF01F0BAEF01F0020E4A6E4B6AAF
:101CC0009EEC01F0380E4D6E88EC01F0020E4A6E6B
:101CD000010E4B6E9EEC01F0300E4D6E88EC01F063
:0E1CE0000A0E3E6E010E3F6E8FD6FAD703003D
:020000040030CA
:0E00000000C21E1EF385B100FFC0FFE0FF40EE
:00000001FF
;PIC18F6722
;CRC=6DB3  CREATED="30-Nov-22 08:32"
