:100000006FEF01F02E004E4F204448543131000074
:10001000444F4320534149204455204C49455520E5
:100020004448543131004BC04CF04D6A66504BC0CF
:1000300066FF6430FEE366504AC066FF6430FEE34C
:10004000120005C04BF004C04AF0EDDF97988E888F
:1000500097988E98A0EF00F04650486E481E665064
:1000600048C066FF6430FEE347C048F0481E665053
:1000700048C066FF6430FEE3979E8E8E979E8E9EEC
:10008000A3EF00F04650486E481E665048C066FF19
:100090006430FEE347C048F0481E665048C066FF23
:1000A0006430FEE398988F8898988F98A6EF00F0B8
:1000B0000DC04BF00CC04AF0B6DF0BC04BF00AC0CD
:1000C0004AF0B1DF09C04BF008C04AF0ACDF07C00E
:1000D0004BF006C04AF0A7DF979A8E8A979A8E9ABD
:1000E000A7EF00F0070E466E4650800A7F0811E227
:1000F000036A46500E0FE96E000E0320EA6EEF50C1
:10010000FF0A476E665047C066FF6430FEE346064E
:10011000EBD7979C8E8C979C8E9CA8EF00F047C0E5
:100120004BF046C04AF07FDF49C04BF048C04AF070
:100130007ADF93968A8693968A96ADEF00F081D700
:100140004668476889D7466847689CD7B1D7CAD7F9
:10015000476A466A496A486AE2D7D4EF00F0FF0E60
:10016000926EF10E936EC10E946E949A8B8A949453
:100170008B9494928B92080E956E5F0E966E070E7E
:10018000976E160E986E93968A96979C8E9C979A69
:100190008E9A98988F98979E8E9E97988E989796FD
:1001A0008E86056A046ACBD7949A8B9A95948C8430
:1001B000959E8C8E639A9598958A959C200E636E79
:1001C000400E646EC050C00BC06EC08EC280C15065
:1001D000C00B0A09C16ED4EF01F0496A010E486EE6
:1001E0004850100814E397968E96740E006E002EF9
:1001F000FED70000978485A448C049F097968E8664
:10020000740E006E002EFED70000482AE9D749C0C0
:1002100001F020EF01F0EA6A480EE96EEF500DE0C0
:10022000060E016E006A002EFED7012EFBD77B0E54
:10023000006E002EFED7EF2EF3D72AEF01F0CDD7B8
:1002400001C047F0475213E04750100810E3010E79
:10025000486EE1D7162A1650465C05E2166A47C07A
:1002600001F007D003D0FF0E016E03D002D0FF0EC5
:10027000016E57EF01F0665046C066FF6430FEE342
:10028000665047C066FF6430FEE3665048C066FFB4
:100290006430FEE3665049C066FF6430FEE3939627
:1002A0008A8693968A9612000A0E466EC8D701C0B7
:1002B0003CF03C5212E03C5008080FE33D1E3D521A
:1002C00007E1466A476A486A3CC049F0D4DF05D076
:1002D000466A476A486A496ACEDFD5EF01F0F86A94
:1002E000D09E639A000E646E210E636E9598958A77
:1002F000959C7E86080EAF6E020E7F6EA60EAC6ECB
:10030000900EAB6E7C86080E6F6E020E7D6EA60E92
:100310006C6E900E6B6E056A046A166A21683490E2
:100320003A6A050E3B6E3D6A3E6A3F6A406A416A20
:10033000426A436A446A456AC150C00B0F09C16EE4
:10034000070EB46E11D00840060008C0FF0840191F
:100350000012002230331503160221909030301025
:100360000820022090960000000EF86E030EF76E33
:10037000460EF66E0900F550006E000A13E0090003
:10038000F550016EE8BE05D00F0BEA6E0900F5CFFF
:10039000E9FF01BC090001AC0900F5CFEEFF004EFA
:0E03A000E9D7F9D7F86ADBD67FD7FED703007E
:020000040030CA
:0E00000000C21E1E0385B100FFC0FFE0FF40DE
:00000001FF
;PIC18F6722
;CRC=DCED  CREATED="19-Oct-22 09:39"
