:100000007FEF01F0F76A180FF66E000EF722000E70
:10001000F86E0900F550120080C094D42E004E4FA7
:100020002044485431310000444F4320534149207B
:100030004455204C494555204448543131006B68A3
:100040006F61206469656E202D206469656E20747F
:1000500075200000626D206469656E7475636F6E53
:1000600067206E6768696570000041C042F0436AAE
:10007000665041C066FF6430FEE3665040C066FFD4
:100080006430FEE3120005C041F004C040F0EDDF33
:1000900097988E8897988E98C1EF00F03C503E6EEE
:1000A0003E1E66503EC066FF6430FEE33DC03EF03B
:1000B0003E1E66503EC066FF6430FEE3979E8E8E05
:1000C000979E8E9EC4EF00F04150436E431E6650D3
:1000D00043C066FF6430FEE342C043F0431E6650F7
:1000E00043C066FF6430FEE398988F8898988F9895
:1000F00012000DC041F00CC040F0B7DF0BC041F062
:100100000AC040F0B2DF09C041F008C040F0ADDFE6
:1001100007C041F006C040F0A8DF979A8E8A979AF0
:100120008E9AC8EF00F0070E3C6E3C50800A7F08A4
:1001300011E2036A3C500E0FE96E000E0320EA6ED6
:10014000EF50FF0A3D6E66503DC066FF6430FEE32F
:100150003C06EBD7979C8E8C979C8E9CC9EF00F049
:100160003DC041F03CC040F080DF3FC041F03EC0A8
:1001700040F07BDF93968A8693968A96CEEF00F0C6
:1001800082D73C683D688AD7416842689DDFB1D715
:10019000CAD73D6A3C6A3F6A3E6AE2D7F5EF00F093
:1001A000FF0E926EF10E936EC10E946E949A8B8A2E
:1001B00094948B9494928B92080E956E5F0E966E2B
:1001C000070E976E160E986E93968A96979C8E9C45
:1001D000979A8E9A98988F98979E8E9E97988E98B9
:1001E00097968E86056A046ACBD7949A8B9A9594D3
:1001F0008C84959E8C8E639A9598958A959C200EFA
:10020000636E400E646EC050C00BC06EC08EC28064
:10021000C150C00B0A09C16EDBEF01F0218021C083
:1002200041F040C042F050DF200E006E002EFED79D
:1002300000D00000219021C041F040C042F044DFD6
:10024000120021943FC040F0E9DF1200EA6A3D0E3F
:10025000E96EEF500DE0060E016E006A002EFED72B
:10026000012EFBD77B0E006E002EFED7EF2EF3D7AC
:1002700012002190219221842196380E3F6EE1DFF9
:10028000420E006E002EFED700000C0E3F6ED9DF2E
:10029000420E006E002EFED70000010E3F6ED1DF31
:1002A000020E3D6ED3DF060E3F6ECBDF420E006EB8
:1002B000002EFED70000DCEF01F0036A3C50A2DE06
:1002C0003D243E6E3F6EBDDF120021843FC040F0F2
:1002D000A5DF77EF01F00900F55210E0F6CF3CF012
:1002E000F7CF3DF0F8CF3EF0F5CF3FF0EED73CC072
:1002F000F6FF3DC0F7FF3EC0F8FFEDD71200F86AE9
:10030000D09E639A000E646E210E636E9598958A56
:10031000959C7E86080EAF6E020E7F6EA60EAC6EAA
:10032000900EAB6E7C86080E6F6E020E7D6EA60E72
:100330006C6E900E6B6E056A046A166A21683490C2
:100340003A6A050E3B6EC150C00B0F09C16E070E15
:10035000B46E11D00840060008C0FF084019001212
:1003600000223033150316022190903030100820FF
:10037000022090960000000EF86E030EF76E540EE9
:10038000F66E0900F550006E000A13E00900F55002
:10039000016EE8BE05D00F0BEA6E0900F5CFE9FF4C
:1003A00001BC090001AC0900F5CFEEFF004EE9D712
:1003B000F9D7F86AF5D65DD73C6A3D6A7EDF3E0E16
:1003C000F66E000EF76E000EF86E85DF010E3C6EC5
:1003D0003D6A73DF540EF66E000EF76E000EF86E77
:1003E0007ADF040E3C6EFA0E3D6E30DF3C2EFBD7FA
:1003F000180E3F6E26DF040E3C6EFA0E3D6E26DFB1
:080400003C2EFBD7F5D70300E9
:020000040030CA
:0E00000000C21E1E0385B100FFC0FFE0FF40DE
:00000001FF
;PIC18F6722
;CRC=82F7  CREATED="09-Nov-22 08:03"
