:100000006BEF01F02E004E4F204448543131000078
:10001000444F4320534149204455204C49455520E5
:100020004448543131004DC04EF04F6A66504DC0C7
:1000300066FF6430FEE366504CC066FF6430FEE34A
:10004000120005C04DF004C04CF0EDDF97988E888B
:1000500097988E989FEF00F04050426E421E665077
:1000600042C066FF6430FEE341C042F0421E66506B
:1000700042C066FF6430FEE3979E8E8E979E8E9EF2
:10008000A2EF00F04050426E421E665042C066FF32
:100090006430FEE341C042F0421E665042C066FF3B
:1000A0006430FEE398988F8898988F98A5EF00F0B9
:1000B0000DC04DF00CC04CF0B6DF0BC04DF00AC0C7
:1000C0004CF0B1DF09C04DF008C04CF0ACDF07C008
:1000D0004DF006C04CF0A7DF979A8E8A979A8E9AB9
:1000E000A6EF00F0070E406E4050800A7F0811E234
:1000F000036A40500E0FE96E000E0320EA6EEF50C7
:10010000FF0A416E665041C066FF6430FEE3400660
:10011000EBD7979C8E8C979C8E9CA7EF00F049C0E4
:100120004DF048C04CF07FDF4BC04DF04AC04CF062
:100130007ADF93968A8693968A96120082D74068D1
:1001400041688AD7406841689DD7B2D7CBD7496A02
:10015000486A4B6A4A6AE3DFD3EF00F0FF0E926E03
:10016000F10E936EC10E946E949A8B8A94948B9434
:1001700094928B92080E956E5F0E966E070E976E98
:10018000160E986E93968A96979C8E9C979A8E9A46
:1001900098988F98979E8E9E97988E9897968E8611
:1001A000056A046ACBD7949A8B9A95948C84959E11
:1001B0008C8E639A9598958A959C200E636E400E5E
:1001C000646EC050C00BC06EC08EC280C150C00BE8
:1001D0000A09C16EC7EF01F042C044F043C045F0C8
:1001E00041C047F040C046F045C049F044C048F027
:1001F00047C04BF046C04AF092DF1200EA6A400E58
:10020000E96EEF500DE0060E016E006A002EFED77B
:10021000012EFBD77B0E006E002EFED7EF2EF3D7FC
:100220001200938C81BC24D00A0E406EE7DF938CC1
:1002300081AC1ED0D8903C34416E3D34426E3E3489
:10024000436E3F34446E010E41243C6E000E42204A
:100250003D6E000E43203E6E000E44203F6E3FC0B8
:1002600043F03EC042F03DC041F03CC040F0B4DF3E
:10027000D5EF01F0938881B814D00A0E406EBEDF2E
:10028000938881A80ED0D8903F323E323D323C3226
:100290003FC043F03EC042F03DC041F03CC040F0A2
:1002A0009BDFD6EF01F0938E81BE13D00A0E406E15
:1002B000A5DF938E81AE0DD03F6A3E6A3D6A3C6AEF
:1002C0003FC043F03EC042F03DC041F03CC040F072
:1002D00083DFD7EF01F0F86AD09E639A000E646E58
:1002E000210E636E9598958A959C7E86080EAF6E5A
:1002F000020E7F6EA60EAC6E900EAB6E7C86080E64
:100300006F6E020E7D6EA60E6C6E900E6B6E056AA1
:10031000046A166A216834903A6A050E3B6EC15031
:10032000C00B0F09C16E070EB46E11D00840060055
:1003300008C0FF08401900120022303315031602CE
:100340002190903030100820022090960000000E7E
:10035000F86E030EF76E2C0EF66E0900F550006E67
:10036000000A13E00900F550016EE8BE05D00F0B3E
:10037000EA6E0900F5CFE9FF01BC090001AC0900F4
:10038000F5CFEEFF004EE9D7F9D7F86AE7D63F6A16
:100390003E6A3D6A3C6A3FC043F03EC042F03DC009
:1003A00041F03CC040F018DF3CD764D77CD7FCD785
:0203B000030048
:020000040030CA
:0E00000000C21E1E0385B100FFC0FFE0FF40DE
:00000001FF
;PIC18F6722
;CRC=A5C2  CREATED="07-Sep-22 10:09"
