:100000002BEF02F02E004E4F2044485431310000B7
:10001000444F4320534149204455204C49455520E5
:1000200044485431310051C052F0536A665051C0B7
:1000300066FF6430FEE3665050C066FF6430FEE346
:10004000120005C051F004C050F0EDDF97988E8883
:1000500097988E989FEF00F03D503F6E3F1E665080
:100060003FC066FF6430FEE33EC03FF03F1E665077
:100070003FC066FF6430FEE3979E8E8E979E8E9EF5
:10008000A2EF00F03D503F6E3F1E66503FC066FF3E
:100090006430FEE33EC03FF03F1E66503FC066FF47
:1000A0006430FEE398988F8898988F98A5EF00F0B9
:1000B0000DC051F00CC050F0B6DF0BC051F00AC0BB
:1000C00050F0B1DF09C051F008C050F0ACDF07C0FC
:1000D00051F006C050F0A7DF979A8E8A979A8E9AB1
:1000E000A6EF00F0070E3D6E3D50800A7F0811E23A
:1000F000036A3D500E0FE96E000E0320EA6EEF50CA
:10010000FF0A3E6E66503EC066FF6430FEE33D0669
:10011000EBD7979C8E8C979C8E9CA7EF00F04DC0E0
:1001200051F04CC050F07FDF4FC051F04EC050F046
:100130007ADF93968A8693968A96120082D73D68D4
:100140003E688AD73D683E689DD7B2D7CBD74D6A07
:100150004C6A4F6A4E6AE3DFD3EF00F0FF0E926EF7
:10016000F10E936EC10E946E949A8B8A94948B9434
:1001700094928B92080E956E5F0E966E070E976E98
:10018000160E986E93968A96979C8E9C979A8E9A46
:1001900098988F98979E8E9E97988E9897968E8611
:1001A000056A046ACBD7949A8B9A95948C84959E11
:1001B0008C8E639A9598958A959C200E636E400E5E
:1001C000646EC050C00BC06EC08EC280C150C00BE8
:1001D0000A09C16E87EF02F0EA6A450EE96EEF5038
:1001E0000DE0060E016E006A002EFED7012EFBD731
:1001F0007B0E006E002EFED7EF2EF3D71200938CED
:1002000081BC1DD0140E456EE7DF938C81BC14D0E9
:100210003D5203E0938C81ACFDD73FC040F0402AB3
:100220004006D8B403D04568D7DFFAD73EC045F0C2
:10023000D3DF010E016E05D0000E016E02D0000E5C
:10024000016E05EF02F0978285B21DD0140E456E47
:10025000C3DF978285B214D03D5203E0978285A216
:10026000FDD73FC040F0402A4006D8B403D04568CF
:10027000B3DFFAD73EC045F0AFDF010E016E05D007
:10028000000E016E02D0000E016E10EF02F046C0AB
:1002900048F047C049F045C04BF044C04AF049C05F
:1002A0004DF048C04CF04BC04FF04AC04EF037DF25
:1002B0001200436A426A416A406A3F6A3F501F081F
:1002C0002CE3D8904034456E4134466E4234476E3C
:1002D0004334486E010E4524406E000E4620416EA8
:1002E000000E4720426E000E4820436E43C047F088
:1002F00042C046F041C045F040C044F0C8DF3EC0B7
:1003000044F0442A4406D8B403D0456865DFFAD7E0
:100310003DC045F061DF3F2AD1D73F6A3F501F08FB
:100320001CE3D890403641364236433643C047F04E
:1003300042C046F041C045F040C044F0A8DF3EC096
:1003400044F0442A4406D8B403D0456845DFFAD7C0
:100350003DC045F041DF3F2AE1D722EF02F0436A7A
:10036000426A416A406A3F6A3F501F0827E3D890BB
:100370004330486E4230476E4130466E4030406EEA
:1003800046C041F047C042F0800E4824436E43C04F
:1003900047F042C046F041C045F040C044F077DF2E
:1003A0003EC044F0442A4406D8B403D0456814DF64
:1003B000FAD73DC045F010DF3F2AD6D73F6A3F50FD
:1003C0001F081CE3D890433242324132403243C0CE
:1003D00047F042C046F041C045F040C044F057DF0E
:1003E0003EC044F0442A4406D8B403D04568F4DE45
:1003F000FAD73DC045F0F0DE3F2AE1D729EF02F001
:10040000010E3D6E3F6A3E6AFAD6012C04D03C5084
:10041000010801E33C2A010E3D6E3F6A3E6A13D794
:10042000012C03D03C5201E03C063C5205E1476AF6
:10043000466A456A446A2BDF3C2C04D03E6AC80EEB
:100440003D6E37D73C50020804E13E6AC80E3D6E4F
:1004500086D789EF02F0F86AD09E639A000E646E28
:10046000210E636E9598958A959C7E86080EAF6ED8
:10047000020E7F6EA60EAC6E900EAB6E7C86080EE2
:100480006F6E020E7D6EA60E6C6E900E6B6E056A20
:10049000046A166A216834903A6A050E3B6EC150B0
:1004A000C00B0F09C16E070EB46E11D008400600D4
:1004B00008C0FF084019001200223033150316024D
:1004C0002190903030100820022090960000000EFD
:1004D000F86E040EF76EAC0EF66E0900F550006E65
:1004E000000A13E00900F550016EE8BE05D00F0BBD
:1004F000EA6E0900F5CFE9FF01BC090001AC090073
:10050000F5CFEEFF004EE9D7F9D7F86A27D63C6A57
:0605100077D7FED70300BF
:020000040030CA
:0E00000000C21E1E0385B100FFC0FFE0FF40DE
:00000001FF
;PIC18F6722
;CRC=851B  CREATED="14-Sep-22 09:10"
