:0400000099EF02F082
:08000800046ED8CF05F0E0CF33
:1000100006F00001E9CF0CF0EACF07F0E1CF08F0DD
:10002000E2CF09F0D9CF0AF0DACF0BF0F3CF12F01C
:10003000F4CF13F0FACF14F0F5CF15F0F6CF16F099
:10004000F7CF17F0F8CF18F0FBCF19F000C00EF083
:1000500001C00FF002C010F003C011F0A0A234EFF5
:1000600000F0A1B282EF00F00EC000F00FC001F06E
:1000700010C002F011C003F00CC0E9FF07C0EAFF96
:10008000078E08C0E1FF09C0E2FF0AC0D9FF0BC01C
:10009000DAFF12C0F3FF13C0F4FF14C0FAFF15C05B
:1000A000F5FF16C0F6FF17C0F7FF18C0F8FF19C01C
:1000B000FBFF045006C0E0FF05C0D8FF1000F76A40
:1000C000D20FF66E000EF722000EF86E0900F55002
:1000D0001200C0F9A4B0999282F880908883C6A1DA
:1000E000868E2E004E4F2044485431310000444F3C
:1000F0004320534149204455204C4945552044480C
:1001000054313100562A0B0EB36EDC0EB26EA19242
:1001100034EF00F064C065F0666B665064C066FF43
:100120006430FEE3665063C066FF6430FEE3120095
:100130001CC064F01BC063F0EDDF97988E88979821
:100140008E9815EF01F05750596E591E665059C0E0
:1001500066FF6430FEE358C059F0591E665059C01E
:1001600066FF6430FEE3979E8E8E979E8E9E18EFFC
:1001700001F05750596E591E665059C066FF6430E1
:10018000FEE358C059F0591E665059C066FF6430EE
:10019000FEE398988F8898988F981BEF01F024C001
:1001A00064F023C063F0B6DF22C064F021C063F0C6
:1001B000B1DF20C064F01FC063F0ACDF1EC064F08C
:1001C0001DC063F0A7DF979A8E8A979A8E9A1CEFCC
:1001D00001F0070E576E5750800A7F0811E2036A3C
:1001E0005750250FE96E000E0320EA6EEF50FF0A0C
:1001F000586E665058C066FF6430FEE35706EBD772
:10020000979C8E8C979C8E9C120060C064F05FC09F
:1002100063F080DF62C064F061C063F07BDF9396BF
:100220008A8693968A96120083D7576858688BD728
:10023000576858689ED7B3D7CCDF606B5F6A626B34
:10024000616BE3DF49EF01F0FF0E926EF10E936EEA
:10025000C10E946E949A8B8A94948B9494928B9200
:10026000080E956E5F0E966E070E976E160E986EC0
:1002700093968A96979C8E9C979A8E9A98988F9828
:10028000979E8E9E97988E9897968E861C6A1B6A6C
:10029000CBD7949A8B9A95948C84959E8C8E639AE6
:1002A0009598958A959C200E636E400E646EC050A2
:1002B000C00BC06EC08EC280C150C00B0A09C16E97
:1002C000F8EF02F05A6A010E596E5950100814E303
:1002D00097968E96740E006E002EFED700009784BF
:1002E00085A459C05AF097968E86740E006E002E23
:1002F000FED70000592AE9D75AC001F094EF01F067
:10030000EA6A590EE96EEF500DE0060E016E006AC2
:10031000002EFED7012EFBD77B0E006E002EFED7DF
:10032000EF2EF3D71200CED701C058F0585213E089
:100330005850100810E3010E596EE2DF2D2A2D509F
:10034000575C05E22D6A58C001F007D003D0FF0EBC
:10035000016E03D002D0FF0E016ED6EF01F059C03E
:100360005BF05AC05CF058C05EF057C05DF05CC0F6
:1003700060F05BC05FF05EC062F05DC061F045DFC1
:100380001200B50EB16E572C04D00B0EB36EDC0EFE
:10039000B26E06EF02F0B16A572C04D00B0EB36EAA
:1003A000DC0EB26E12000A0E576EBDD701C053F0BC
:1003B00053523EE0535010083BE30F0E5316535078
:1003C00009080AE34BB208D030C031F053C030F016
:1003D000C80E596E95DF2CD053500A0818E14B8493
:1003E0004B8231500A0DF3503024556E555004089D
:1003F00004E3050E556E316A306E546A5A6A596AC2
:10040000586A576AACDF010E576EBBD711D05350F4
:100410000B0806E15A6A596A586A576AA0DF08D081
:1004200053500C0805E14B944B92576AB4DF546A61
:1004300095EF02F04BA413D05650090802E2566A19
:10044000542A5550545C0BE14BA409D05A685968A2
:100450005868576884DF4B944B92576A9CDF96EF3D
:1004600002F05E50016A5D5C03E25DC000F00CD0FA
:10047000006A080E5F6E5D3600365E50005CD8B0D4
:10048000006E01365F2EF7D71200036A5850250F11
:10049000E96E000E0320EA6E57C05DF00A0E5E6E34
:1004A000E0DF036A00500BDEEF6E010E5824036A92
:1004B000250FE96E000E0320EA6E57C05DF00A0EAC
:1004C0005E6ECFDF01C05DF00A0E5E6ECADF036AAA
:1004D0000050F5DDEF6E592C14D0010E5824036A3C
:1004E000250FE96E000E0320EA6EEF50C00809E107
:1004F000010E5824036A250FE96E000E0320EA6EF0
:10050000EF6891EF02F0036A3150D9DD266E036A7D
:100510003050D5DD256E54C057F0060E586E596A1E
:10052000B4D757DE97EF02F03ED784D7ECD7FEEF73
:1005300002F0F86AD09E078E639A000E646E210E58
:10054000636E9598958A959C7E86080EAF6E020E16
:100550007F6EA60EAC6E900EAB6E7C86080E6F6E34
:10056000020E7D6EA60E6C6E900E6B6E1C6A1B6A80
:100570002D6A38684B90516A050E526E4B924B941F
:10058000C150C00B0F09C16E070EB46E11D00840E8
:100590001D0008C0FF084030001200393033150339
:1005A0001602219090303010082002209096000012
:1005B000000EF86E050EF76E8E0EF66E0900F55001
:1005C000006E000A13E00900F550016EE8BE05D088
:1005D0000F0BEA6E0900F5CFE9FF01BC090001AC81
:1005E0000900F5CFEEFF004EE9D7F9D7F86A2CD60F
:1005F000C00EF212A082566A546A96D7FED7030044
:020000040030CA
:0E00000000C21E1E0385B100FFC0FFE0FF40DE
:00000001FF
;PIC18F6722
;CRC=45B1  CREATED="26-Oct-22 10:53"
