:1000000072EF01F02E004E4F204448543131000071
:10001000444F4320534149204455204C49455520E5
:100020004448543131004BC04CF04D6A66504BC0CF
:1000300066FF6430FEE366504AC066FF6430FEE34C
:10004000120005C04BF004C04AF0EDDF97988E888F
:1000500097988E989FEF00F03E50406E401E66507D
:1000600040C066FF6430FEE33FC040F0401E665073
:1000700040C066FF6430FEE3979E8E8E979E8E9EF4
:10008000A2EF00F03E50406E401E665040C066FF3A
:100090006430FEE33FC040F0401E665040C066FF43
:1000A0006430FEE398988F8898988F98A5EF00F0B9
:1000B0000DC04BF00CC04AF0B6DF0BC04BF00AC0CD
:1000C0004AF0B1DF09C04BF008C04AF0ACDF07C00E
:1000D0004BF006C04AF0A7DF979A8E8A979A8E9ABD
:1000E000A6EF00F0070E3E6E3E50800A7F0811E238
:1000F000036A3E500E0FE96E000E0320EA6EEF50C9
:10010000FF0A3F6E66503FC066FF6430FEE33E0666
:10011000EBD7979C8E8C979C8E9CA7EF00F047C0E6
:100120004BF046C04AF07FDF49C04BF048C04AF070
:100130007ADF93968A8693968A96120082D73E68D3
:100140003F688AD73E683F689DD7B2D7CBD7476A0A
:10015000466A496A486AE3DFD3EF00F0FF0E926E09
:10016000F10E936EC10E946E949A8B8A94948B9434
:1001700094928B92080E956E5F0E966E070E976E98
:10018000160E986E93968A96979C8E9C979A8E9A46
:1001900098988F98979E8E9E97988E9897968E8611
:1001A000056A046ACBD7949A8B9A95948C84959E11
:1001B0008C8E639A9598958A959C200E636E400E5E
:1001C000646EC050C00BC06EC08EC280C150C00BE8
:1001D0000A09C16ECFEF01F040C042F041C043F0C8
:1001E0003FC045F03EC044F043C047F042C046F037
:1001F00045C049F044C048F092DFD8EF01F0EA6A08
:100200003E0EE96EEF500DE0060E016E006A002E04
:10021000FED7012EFBD77B0E006E002EFED7EF2EF1
:10022000F3D71200938C81BC27D00A0E3E6EE7DF15
:10023000938C81AC21D034A20BD0D8903C343E6E4C
:100240003D343F6E010E3E243C6E000E3F203D6E5D
:1002500034B208D0D8903D303F6E3C303C6E800EBA
:100260003F243D6E3DC047F03CC046F0496A486AB5
:1002700056DF640E3E6EC3DFD9EF01F0938881B87C
:100280001AD00A0E3E6EBBDF938881A814D034A228
:1002900003D0D8903D323C3234B203D0D8903C36B3
:1002A0003D363DC047F03CC046F0496A486A37DFFA
:1002B000640E3E6EA4DFDAEF01F0938E81BE10D0A3
:1002C0000A0E3E6E9CDF938E81AE0AD03D6A3C6A78
:1002D0003DC047F03CC046F0496A486A20DF3472AE
:1002E000DBEF01F0F86AD09E639A000E646E210E77
:1002F000636E9598958A959C7E86080EAF6E020E69
:100300007F6EA60EAC6E900EAB6E7C86080E6F6E86
:10031000020E7D6EA60E6C6E900E6B6E056A046A00
:10032000166A216834903A6A050E3B6E3482C150D9
:10033000C00B0F09C16E070EB46E11D00840060045
:1003400008C0FF08401900120022303315031602BE
:100350002190903030100820022090960000000E6E
:10036000F86E030EF76E3C0EF66E0900F550006E47
:10037000000A13E00900F550016EE8BE05D00F0B2E
:10038000EA6E0900F5CFE9FF01BC090001AC0900E4
:10039000F5CFEEFF004EE9D7F9D7F86ADFD63D6A10
:1003A0003C6A416A406A3DC03FF03CC03EF014D711
:0A03B00039D764D782D7FCD70300C9
:020000040030CA
:0E00000000C21E1E0385B100FFC0FFE0FF40DE
:00000001FF
;PIC18F6722
;CRC=CD54  CREATED="07-Sep-22 10:40"
