:1000000053EF06F0F76A180FF66E000EF722000E97
:10001000F86E0900F5501200C0F9A4B0999282F868
:1000200080908883C6A1868EF76A3C0FF66E000E1C
:10003000F722000EF86E0900F550120080C094D42B
:10004000F76A540FF66E000EF722000EF86E0900E4
:10005000F5501200070F1F1F1F1F1F1F1F1F1F001C
:10006000000000001C1E1F1F1F1F1F1F000000009C
:10007000001F1F1F1F1F1F1F1F1F0F071F1F1F1FD7
:100080001F1F1E1C1F1F1F0000001F1F1F1F1F1FE1
:100090001F1F1F1F2E004E4F2044485431310000B7
:1000A000444F4320534149204455204C4945552055
:1000B0004448543131002E004C4D3335410047C087
:1000C00048F0496A665047C066FF6430FEE36650F8
:1000D00046C066FF6430FEE3120005C047F004C06E
:1000E00046F0EDDF97988E8897988E98EAEF00F0AB
:1000F0004250446E441E665044C066FF6430FEE3C6
:1001000043C044F0441E665044C066FF6430FEE3C2
:10011000979E8E8E979E8E9EEDEF00F04C504E6E09
:100120004E1E66504EC066FF6430FEE34DC04EF07A
:100130004E1E66504EC066FF6430FEE398988F886E
:1001400098988F9812000DC047F00CC046F0B7DFAA
:100150000BC047F00AC046F0B2DF09C047F008C044
:1001600046F0ADDF07C047F006C046F0A8DF979A1B
:100170008E8A979A8E9AF1EF00F0070E446E4450E3
:10018000800A7F0811E2036A44500E0FE96E000EE8
:100190000320EA6EEF50FF0A456E665045C066FFC9
:1001A0006430FEE34406EBD7979C8E8C979C8E9C24
:1001B000120043C047F042C046F081DF45C047F01F
:1001C00044C046F07CDF93968A8693968A96F7EF32
:1001D00000F083D7426843688BD74C684D689EDF38
:1001E000B2D7CBDF436A426A456A446AE2D71EEF60
:1001F00001F0FF0E926EF10E936EC10E946E949A02
:100200008B8A94948B9494928B92080E956E5F0EC9
:10021000966E070E976E160E986E93968A96979C1A
:100220008E9C979A8E9A98988F98979E8E9E979864
:100230008E9897968E86056A046ACBD7949A8B9A85
:1002400095948C84959E8C8E639A9598958A959CAE
:10025000200E636E400E646EC050C00BC06EC08E28
:10026000C280C150C00B0A09C16EB2EF06F02180F6
:1002700021C04CF04BC04DF051DF200E006E002E1F
:10028000FED700D00000219021C04CF04BC04DF0B3
:1002900045DF120021944AC04BF0E9DF1200EA6A00
:1002A000420EE96EEF500DE0060E016E006A002E60
:1002B000FED7012EFBD77B0E006E002EFED7EF2E51
:1002C000F3D712002190219221842196380E4A6E94
:1002D000E1DF420E006E002EFED700000C0E4A6ECB
:1002E000D9DF420E006E002EFED70000010E4A6ECE
:1002F000D1DF020E426ED3DF060E4A6ECBDF420E16
:10030000006E002EFED70000B4EF06F0218449C035
:100310004BF0ADDF1200400E4A6EBCDF426A425025
:100320003F0808E3036A42508BDE436E496EEEDFFE
:10033000422AF5D7B6EF06F0036A475075DE482427
:10034000496E4A6EA7DF12000900F55210E0F6CFA1
:1003500046F0F7CF47F0F8CF48F0F5CF49F0D6DFB9
:1003600046C0F6FF47C0F7FF48C0F8FFEDD71200C0
:100370008E0E006E4FC001F04EC002F0036A0152B3
:1003800009E102C001F0026A080E005E015202E1BA
:10039000006A08D0D89001BE04D0023601360006AB
:1003A000F9D7019E1200800ED8B2531A586A596AC2
:1003B0004FC057F05350571A4E50D8B4DCD0566E39
:1003C000006E5250D8B4E0D0565ED8B481D03DE330
:1003D00053C05CF05C8E54C05BF055C05AF0596A53
:1003E000D8905C325B325A325932562EF8D757AE1B
:1003F00003D05880DDD0589056905888EA6A510E44
:10040000E96EE9D0589857BE0AD056A013D05C3296
:100410005B325A325932002AD8B4C5D00BD05CBEF8
:100420000CD0D89059365A365B365C360006D8B4B4
:10043000BAD0F5D7588C6BD0589C4FC057F04FAE00
:1004400002D05C8EA9D05C9EA7D052C056F052C09C
:1004500000F04E50565E4FC05CF05C8E50C05BF0BA
:1004600051C05AF0596AD8905C325B325A325932D4
:10047000562EF8D757AE03D058829AD0589256903D
:10048000588AEA6A550EE96EA6D0589A57BE0AD025
:1004900056A013D05C325B325A325932002AD8B49B
:1004A00082D00BD05CBE0CD0D89059365A365B3611
:1004B0005C360006D8B477D0F5D7588E28D0589E31
:1004C00053C057F053AE02D05C8E66D05C9E64D0B1
:1004D00053C05CF05C8E54C05BF055C05AF057AE10
:1004E00004D05C9E588464D05894596A5690EA6A45
:1004F000510EE96E70D057BE1CD04FC057F056A0B9
:1005000006D05C325B325A325932002A4CE059AE86
:100510000BD05A2A09E15B2A07E15C2A05E15C322B
:100520005B325A32002A3FE058BC86D758BEC7D744
:100530001CD0800E5C1A5CAE04D03AD053C057F089
:100540000AD04FC057F05C5206E15B5204E15A52A8
:1005500002E1006A21D05CBE08D0D89059365A36E4
:100560005B365C36002EF7D71ED057AE02D05C8EBD
:1005700013D05C9E11D052C000F053C05CF054C048
:100580005BF055C05AF008D04EC000F04FC05CF090
:1005900050C05BF051C05AF05CC001F05BC002F08B
:1005A0005AC003F034D0006A016A026A036A2FD08D
:1005B000596A5A1E5B1E5C1E591E592A05E15A2AA9
:1005C00003E15B2A01E15C2A58B015D758B256D72F
:1005D00058B48AD7B3D7EF505A2605E35B2A03E114
:1005E0005C2AD8B45680ED52EF505B2603E35C2AB8
:1005F000D8B45680ED52EF50EFBE01D0800A5C2691
:10060000D8B0568058B8FED658BA3FD774D7120023
:100610004E50D8B4A5D05A6E5250D8B4A1D05A5E1C
:1006200005E37F0E5A26D8B09BD006D0810E5A5EC5
:10063000D8A096D0D8B494D05AC000F0016A026A0B
:10064000036A596A4FC058F0588E50C057F051C0D5
:1006500056F0190E5A6E5550565E0DE2010E575E59
:100660000AE2585E08E2595E06E2592A582A572AD9
:100670005550562628D05450575E12E2010E585E4F
:100680000FE2595E0DE2592A582A54505726555008
:10069000562619E3572A17E1582A15E1592A13D08B
:1006A00053508009585E0EE2010E595E0BE2592A42
:1006B00053508009582654505726E9E3582AE7E159
:1006C000592AE5D703805A2E01D00BD0D890563640
:1006D000573658365936D8900336023601365B36CF
:1006E000BAD75BA006D0D8900132023203325B3217
:1006F00002D0000635E05BBE1ED0D8905636573685
:10070000583659365550565E07E2010E575E04E2E0
:10071000585E02E2595E1AE35450575E05E2010E3C
:10072000585E02E2595E12E353508009585E03E2BC
:10073000010E595E0BE3032A09E1022A07E1012AAF
:1007400005E1002A0DE00132023203324FC05AF0B7
:1007500053505A1A5AAE02D0018E06D0019E04D0D0
:10076000006A016A026A036A12004834006E0036A9
:10077000FC0E0016C250C30B0010C26E200E006E9D
:10078000002EFED700D000004C6A4B6A4A6A496AC4
:100790004D6A47504D5C26E2C282C2B2FED7C4CF3A
:1007A00003F0C3CF4EF0C4CF4FF0E2DDD8924CC07F
:1007B00051F04BC050F04AC04FF049C04EF003C05A
:1007C00055F002C054F001C053F000C052F0EBDD10
:1007D00003C04CF002C04BF001C04AF000C049F029
:1007E0004D2AD7D74F6A47C04EF0C2DD4CC051F0FA
:1007F0004BC050F04AC04FF049C04EF003C055F016
:1008000002C054F001C053F000C052F001DF03C039
:100810004CF002C04BF001C04AF000C049F049C0A2
:1008200000F04AC001F04BC002F04CC003F022EFD0
:1008300005F08E0E006E4B50005E4CC002F04DC0B5
:1008400001F0028E005209E0D890025202E10152FA
:1008500004E002320132002EF7D74CAE05D0011E63
:10086000021E012AD8B4022A12004B50D8B471D00B
:10087000006E4F50D8B46DD0002604E3810E0026E0
:1008800068E204D07F0E005E64E363E04CC053F086
:100890005050531A4C8E508E4E505202F4CF55F099
:1008A0004D505102F4CF03F0F3CF54F05202F35005
:1008B0005526F4505422000E03224E505102F3509C
:1008C0005526F4505422000E026A032202224C5094
:1008D0005202F3505426F4500322000E02224C50D0
:1008E0005102F3500326F4500222000E016A012245
:1008F0004E505002F3505426F4500322000E0222B0
:1009000001224D505002F3500326F4500222000EF3
:1009100001224C505002F3500226F4500122002ACA
:1009200001BE05D054360336023601360006000EED
:1009300054AE0AD0032A02220122015005E10250DE
:1009400003E1035001E1002A53BE018E53AE019E24
:1009500004D0006A016A026A036AF8EF04F04AC030
:1009600051F049C050F048C04FF047C04EF0556AB2
:10097000546A536A7F0E526E4BDE03C04EF002C0C3
:100980004DF001C04CF000C04BF053DF02C036F018
:1009900001C035F036C04FF035C04EF0E9DCD882EA
:1009A0004AC051F049C050F048C04FF047C04EF027
:1009B00003C055F002C054F001C053F000C052F023
:1009C000F2DC03C04AF002C049F001C048F000C0A8
:1009D00047F04AC04EF049C04DF048C04CF047C007
:1009E0004BF0526A516A480E506E850E4F6E3DD7DD
:1009F00003C04AF002C049F001C048F000C047F00F
:100A00004AC051F049C050F048C04FF047C04EF0C6
:100A1000556A546A536A7F0E526EFADD03C04EF077
:100A200002C04DF001C04CF000C04BF002DF02C02C
:100A300038F001C037F04CEF05F042C047F0040E2B
:100A4000486E93D603C046F002C045F001C044F0A2
:100A500000C043F046C051F045C050F044C04FF0D4
:100A600043C04EF0AA0E556EF10E546E020E536E38
:100A7000800E526ECDDD03C046F002C045F001C0CD
:100A800044F000C043F046C04AF045C049F044C0BD
:100A900048F043C047F063D736C03DF035C03CF066
:100AA00038C03FF037C03EF0C5EF06F0016A026A79
:100AB000006A036A495002E1485018E0100E4A6E7D
:100AC000D89046364736003603364950035C02E17B
:100AD0004850005C07E34850005ED8A00306495028
:100AE000035ED880013602364A2EEAD712003C5007
:100AF000405C04E13D50415CD8B473D03DC041F04E
:100B00003CC040F0020E4324466E42C047F0486E9F
:100B100013DCB60EF66E000EF76E000EF86E14DCE7
:100B200044522DE042C047F043C048F005DC3DC0D0
:100B300047F03CC046F0496A0A0E486EB7DF02C073
:100B400047F001C046F0300E4626000E472246C050
:100B500049F086EC01F03DC047F03CC046F0496AE0
:100B60000A0E486EA3DF00C046F003C047F0300E07
:100B70004626000E472246C049F086EC01F0455259
:100B800030E0030E4324466E42C047F0486E9CECB2
:100B900001F03FC047F03EC046F0496A0A0E486E79
:100BA00085DF02C047F001C046F0300E4626000E39
:100BB000472246C049F086EC01F03FC047F03EC0F6
:100BC00046F0496A0A0E486E71DF00C046F003C065
:100BD00047F0300E4626000E472246C049F086EC0C
:100BE00001F0CBEF06F04B50016A4A5C03E24AC0C9
:100BF00000F00CD0006A080E4C6E4A3600364B509E
:100C0000005CD8B0006E01364C2EF7D71200036A94
:100C100045500E0FE96E000E0320EA6E44C04AF004
:100C20000A0E4B6EE0DF036A005002EC00F0EF6E3C
:100C3000010E4524036A0E0FE96E000E0320EA6ED2
:100C400044C04AF00A0E4B6ECEDF01C04AF00A0ED5
:100C50004B6EC9DF036A005002EC00F0EF6E462CC9
:100C600014D0010E4524036A0E0FE96E000E032016
:100C7000EA6EEF50C00809E1010E4524036A0E0F29
:100C8000E96E000E0320EA6EEF684FEF06F0435264
:100C900008E03CC044F042C045F0466AB8D7BDEC1D
:100CA00000F0D0EF06F0F86AD09E639A000E646EF2
:100CB000210E636E9598958A959C7E86080EAF6E80
:100CC000020E7F6EA60EAC6E900EAB6E7C86080E8A
:100CD0006F6E020E7D6EA60E6C6E900E6B6E056AC8
:100CE000046A166A216834903A6A050E3B6E416ABE
:100CF000406AC150C00B0F09C16E070EB46E11D00F
:100D00000840060008C0FF084019001200223033D6
:100D10001503160221909030301008200220909682
:100D20000000000EF86E0D0EF76E000EF66E090054
:100D3000F550006E000A13E00900F550016EE8BEA0
:100D400005D00F0BEA6E0900F5CFE9FF01BC0900E1
:100D500001AC0900F5CFEEFF004EE9D7F9D7F86AEC
:100D6000F9EF00F062EF01F08BEF01F0476A486A9B
:100D70009CEC01F0B80EF66E000EF76E000EF86EE9
:100D8000A4EC01F0640E426E58D6010E426E436A26
:100D9000446E456EACD6060E426E010E436E77D79A
:0C0DA000C80E426E4FEC01F0EDD70300CE
:020000040030CA
:0E00000000C21E1E0385B100FFC0FFE0FF40DE
:00000001FF
;PIC18F6722
;CRC=6057  CREATED="23-Nov-22 10:33"
