:10000000D7EF01F02E004E4F20444854313100000C
:10001000444F4320534149204455204C49455520E5
:100020004448543131004FC050F0516A66504FC0BF
:1000300066FF6430FEE366504EC066FF6430FEE348
:10004000120005C04FF004C04EF0EDDF97988E8887
:1000500097988E989FEF00F04250446E441E665071
:1000600044C066FF6430FEE343C044F0441E665063
:1000700044C066FF6430FEE3979E8E8E979E8E9EF0
:10008000A2EF00F04250446E441E665044C066FF2A
:100090006430FEE343C044F0441E665044C066FF33
:1000A0006430FEE398988F8898988F98A5EF00F0B9
:1000B0000DC04FF00CC04EF0B6DF0BC04FF00AC0C1
:1000C0004EF0B1DF09C04FF008C04EF0ACDF07C002
:1000D0004FF006C04EF0A7DF979A8E8A979A8E9AB5
:1000E000A6EF00F0070E426E4250800A7F0811E230
:1000F000036A42500E0FE96E000E0320EA6EEF50C5
:10010000FF0A436E665043C066FF6430FEE342065A
:10011000EBD7979C8E8C979C8E9CA7EF00F04BC0E2
:100120004FF04AC04EF07FDF4DC04FF04CC04EF054
:100130007ADF93968A8693968A96120082D74268CF
:1001400043688AD7426843689DD7B2D7CBD74B6AFA
:100150004A6A4D6A4C6AE3DFD3EF00F0FF0E926EFD
:10016000F10E936EC10E946E949A8B8A94948B9434
:1001700094928B92080E956E5F0E966E070E976E98
:10018000160E986E93968A96979C8E9C979A8E9A46
:1001900098988F98979E8E9E97988E9897968E8611
:1001A000056A046ACBD7949A8B9A95948C84959E11
:1001B0008C8E639A9598958A959C200E636E400E5E
:1001C000646EC050C00BC06EC08EC280C150C00BE8
:1001D0000A09C16E33EF02F03C6A416A406A3F6A25
:1001E0003E6A1200EA6A440EE96EEF500DE0060E18
:1001F000016E006A002EFED7012EFBD77B0E006E2B
:10020000002EFED7EF2EF3D71200938C81BC17D0AF
:10021000172AD8B4182A010E446EE4DF4350185C44
:100220000AE303E14250175C06E3186A176A010EFD
:10023000016E07D003D0000E016E03D002D0000E75
:10024000016E45EF01F0978285B217D0172AD8B416
:10025000182A010E446EC6DF4350185C0AE303E11E
:100260004250175C06E3186A176A010E016E07D048
:1002700003D0000E016E03D002D0000E016E50EFCD
:1002800001F0436A020E426EC0D7012C05D03D50EA
:10029000010802E33D2AA0DF436A020E426ED3D773
:1002A000012C04D03D5202E03D0696DF36EF02F00D
:1002B00044C046F045C047F043C049F042C048F052
:1002C00047C04BF046C04AF049C04DF048C04CF022
:1002D00026DF12003C501F0820E3D8903E34436EC6
:1002E0003F34446E4034456E4134466E010E432423
:1002F0003E6E000E44203F6E000E4520406E000E04
:100300004620416E41C045F040C044F03FC043F03C
:100310003EC042F0CDDF3C2A14D03C503F0810E3F1
:10032000D8903E363F364036413641C045F040C059
:1003300044F03FC043F03EC042F0BADF3C2A01D057
:100340004BDF40EF02F03C501F081BE3D8904130D8
:10035000466E4030456E3F30446E3E303E6E44C087
:100360003FF045C040F0800E4624416E41C045F04C
:1003700040C044F03FC043F03EC042F099DF3C2A09
:1003800014D03C503F0810E3D890413240323F3205
:100390003E3241C045F040C044F03FC043F03EC053
:1003A00042F086DF3C2A01D017DF44EF02F0F86A02
:1003B000D09E639A000E646E210E636E9598958AA6
:1003C000959C7E86080EAF6E020E7F6EA60EAC6EFA
:1003D000900EAB6E7C86080E6F6E020E7D6EA60EC2
:1003E0006C6E900E6B6E056A046A166A2168349012
:1003F0003A6A050E3B6EC150C00B0F09C16E070E65
:10040000B46E11D00840060008C0FF084019001261
:10041000002230331503160221909030301008204E
:10042000022090960000000EF86E040EF76E040E87
:10043000F66E0900F550006E000A13E00900F55051
:10044000016EE8BE05D00F0BEA6E0900F5CFE9FF9B
:1004500001BC090001AC0900F5CFEEFF004EE9D761
:10046000F9D7F86A7BD63D6AB7DE0BD73D5205E176
:10047000456A446A436A426A1BDF3D2C01D02AD791
:100480003D500208D8B45FD7C80E446EABDEEDD73E
:02049000030067
:020000040030CA
:0E00000000C21E1E0385B100FFC0FFE0FF40DE
:00000001FF
;PIC18F6722
;CRC=1825  CREATED="14-Sep-22 11:27"
