:10000000C9EF06F0F76A180FF66E000EF722000E21
:10001000F86E0900F5501200C0F9A4B0999282F868
:1000200080908883C6A1868EF76A3C0FF66E000E1C
:10003000F722000EF86E0900F550120080C094D42B
:10004000F76A540FF66E000EF722000EF86E0900E4
:10005000F55012000001020403050102200307030A
:10006000060602040303060602030305070307202E
:100070002007070606030305000606040305010121
:1000800007202007000602040305000602030305FB
:10009000F76AA40FF66E000EF722000EF86E090044
:1000A000F5501200070F1F1F1F1F1F1F1F1F1F00CC
:1000B000000000001C1E1F1F1F1F1F1F000000004C
:1000C000001F1F1F1F1F1F1F1F1F0F071F1F1F1F87
:1000D0001F1F1E1C1F1F1F0000001F1F1F1F1F1F91
:1000E0001F1F1F1F2E004E4F204448543131000067
:1000F000444F4320534149204455204C4945552005
:10010000444854313100484353523034000045C014
:1001100046F0476A665045C066FF6430FEE36650AD
:1001200044C066FF6430FEE3120005C045F004C021
:1001300044F0EDDF97988E8897988E9812EF01F033
:100140004050426E421E665042C066FF6430FEE37D
:1001500041C042F0421E665042C066FF6430FEE37A
:10016000979E8E8E979E8E9E15EF01F058505A6E78
:100170005A1E66505AC066FF6430FEE359C05AF0FA
:100180005A1E66505AC066FF6430FEE398988F8806
:1001900098988F9812000DC045F00CC044F0B7DF5E
:1001A0000BC045F00AC044F0B2DF09C045F008C0FA
:1001B00044F0ADDF07C045F006C044F0A8DF979AD1
:1001C0008E8A979A8E9A19EF01F0070E466E465066
:1001D000800A7F0811E2036A46500E0FE96E000E96
:1001E0000320EA6EEF50FF0A476E665047C066FF75
:1001F0006430FEE34606EBD7979C8E8C979C8E9CD2
:10020000120041C045F040C044F081DF43C045F0DA
:1002100042C044F07CDF93968A8693968A961FEFBD
:1002200001F083D7406841688BD7586859689EDFD2
:10023000B2D7CBDF416A406A436A426AE2D746EFEF
:1002400001F0FF0E926EF10E936EC10E946E949AB1
:100250008B8A94948B9494928B92080E956E5F0E79
:10026000966E070E976E160E986E93968A96979CCA
:100270008E9C979A8E9A98988F98979E8E9E979814
:100280008E9897968E86056A046ACBD7949A8B9A35
:1002900095948C84959E8C8E639A9598958A959C5E
:1002A000200E636E400E646EC050C00BC06EC08ED8
:1002B000C280C150C00B0A09C16E26EF07F0218031
:1002C00021C058F057C059F051DF200E006E002EAB
:1002D000FED700D00000219021C058F057C059F03F
:1002E00045DF1200219456C057F0E9DF1200EA6A98
:1002F000400EE96EEF500DE0060E016E006A002E12
:10030000FED7012EFBD77B0E006E002EFED7EF2E00
:10031000F3D7A5EF01F02190219221842196380E88
:10032000566EE0DF420E006E002EFED700000C0E6F
:10033000566ED8DF420E006E002EFED70000010E72
:10034000566ED0DF020E406ED2D7060E566ECADF52
:10035000420E006E002EFED7000028EF07F0218429
:1003600053C057F0ACDF1200400E566EBBDF406A40
:1003700040503F0808E3036A40508ADE416E536EE6
:10038000EEDF402AF5D72AEF07F0036A53504CDE20
:100390005424556E566EA6DF12000900F55210E087
:1003A000F6CF49F0F7CF4AF0F8CF4BF0F5CF53F046
:1003B000D6DF49C0F6FF4AC0F7FF4BC0F8FFEDD7C4
:1003C0001200020E536E0E0E546EDFDF060EF66E36
:1003D000010EF76E000EF86EE0DF2CEF07F08E0EC8
:1003E000006E4BC001F04AC002F0036A015209E1FD
:1003F00002C001F0026A080E005E015202E1006ACA
:1004000008D0D89001BE04D0023601360006F9D7D4
:10041000019E1200969E8D8E200E006E002EFED73D
:1004200000D00000969E8D9EB36AB26A968C84AC12
:10043000FDD7B50EB16E968C84BCFDD7B16AB250B3
:10044000B3CF03F04A6EB3CF4BF0C9DF03C03FF028
:1004500002C03EF001C03DF000C03CF062EF06F08B
:100460004A50D8B471D0006E4E50D8B46DD000262A
:1004700004E3810E002668E204D07F0E005E64E390
:1004800063E04BC052F04F50521A4B8E4F8E4D507E
:100490005102F4CF54F04C505002F4CF03F0F3CF9C
:1004A00053F05102F3505426F4505322000E03220D
:1004B0004D505002F3505426F4505322000E026A5D
:1004C000032202224B505102F3505326F4500322D0
:1004D000000E02224B505002F3500326F450022229
:1004E000000E016A01224D504F02F3505326F45082
:1004F0000322000E022201224C504F02F350032629
:10050000F4500222000E01224B504F02F3500226FB
:10051000F4500122002A01BE05D0533603360236BC
:1005200001360006000E53AE0AD0032A0222012231
:10053000015005E1025003E1035001E1002A52BEDF
:10054000018E52AE019E04D0006A016A026A036AFB
:1005500012004A50D8B4A5D0566E4E50D8B4A1D08F
:10056000565E05E37F0E5626D8B09BD006D0810E8E
:10057000565ED8A096D0D8B494D056C000F0016A88
:10058000026A036A556A4BC054F0548E4CC053F053
:100590004DC052F0190E566E5150525E0DE2010ED2
:1005A000535E0AE2545E08E2555E06E2552A542A7A
:1005B000532A5150522628D05050535E12E2010E59
:1005C000545E0FE2555E0DE2552A542A50505326D0
:1005D0005150522619E3532A17E1542A15E1552A9E
:1005E00013D04F508009545E0EE2010E555E0BE2AF
:1005F000552A4F508009542650505326E9E3542A77
:10060000E7E1552AE5D70380562E01D00BD0D890CC
:100610005236533654365536D890033602360136A4
:100620005736BAD757A006D0D890013202320332DB
:10063000573202D0000635E057BE1ED0D890523651
:100640005336543655365150525E07E2010E535E12
:1006500004E2545E02E2555E1AE35050535E05E236
:10066000010E545E02E2555E12E34F508009545E63
:1006700003E2010E555E0BE3032A09E1022A07E1BA
:10068000012A05E1002A0DE00132023203324BC09B
:1006900056F04F50561A56AE02D0018E06D0019E2B
:1006A00004D0006A016A026A036A12008E0E006EAC
:1006B0004A50005E4BC002F04CC001F0028E005266
:1006C00009E0D890025202E1015204E00232013204
:1006D000002EF7D74BAE05D0011E021E012AD8B45A
:1006E000022A1200800ED8B24F1A546A556A4BC0C3
:1006F00053F04F50531A4A50D8B4DCD0526E006EAB
:100700004E50D8B4E0D0525ED8B481D03DE34FC053
:1007100058F0588E50C057F051C056F0556AD890D6
:100720005832573256325532522EF8D753AE03D084
:100730005480DDD0549052905488EA6A4D0EE96E90
:10074000E9D0549853BE0AD052A013D05832573231
:1007500056325532002AD8B4C5D00BD058BE0CD072
:10076000D89055365636573658360006D8B4BAD0D3
:10077000F5D7548C6BD0549C4BC053F04BAE02D089
:10078000588EA9D0589EA7D04EC052F04EC000F04F
:100790004A50525E4BC058F0588E4CC057F04DC076
:1007A00056F0556AD8905832573256325532522E3A
:1007B000F8D753AE03D054829AD054925290548AB0
:1007C000EA6A510EE96EA6D0549A53BE0AD052A0DE
:1007D00013D05832573256325532002AD8B482D00C
:1007E0000BD058BE0CD0D8905536563657365836A2
:1007F0000006D8B477D0F5D7548E28D0549E4FC079
:1008000053F04FAE02D0588E66D0589E64D04FC081
:1008100058F0588E50C057F051C056F053AE04D027
:10082000589E548464D05494556A5290EA6A4D0E8E
:10083000E96E70D053BE1CD04BC053F052A006D00E
:100840005832573256325532002A4CE055AE0BD052
:10085000562A09E1572A07E1582A05E1583257324A
:100860005632002A3FE054BC86D754BEC7D71CD0AE
:10087000800E581A58AE04D03AD04FC053F00AD068
:100880004BC053F0585206E1575204E1565202E170
:10089000006A21D058BE08D0D89055365636573603
:1008A0005836002EF7D71ED053AE02D0588E13D034
:1008B000589E11D04EC000F04FC058F050C057F0B5
:1008C00051C056F008D04AC000F04BC058F04CC0A0
:1008D00057F04DC056F058C001F057C002F056C056
:1008E00003F034D0006A016A026A036A2FD0556AA5
:1008F000561E571E581E551E552A05E1562A03E15D
:10090000572A01E1582A54B015D754B256D754B4D7
:100910008AD7B3D7EF50562605E3572A03E1582A62
:10092000D8B45280ED52EF50572603E3582AD8B47A
:100930005280ED52EF50EFBE01D0800A5826D8B059
:10094000528054B8FED654BA3FD774D7DAEF04F0C9
:1009500049C04DF048C04CF047C04BF046C04AF08B
:10096000516A506A4F6A7F0E4E6EF3DD03C04DF040
:1009700002C04CF001C04BF000C04AF097DE02C04C
:1009800036F001C035F036C04BF035C04AF027DDF7
:10099000D88249C04DF048C04CF047C04BF046C02B
:1009A0004AF003C051F002C050F001C04FF000C047
:1009B0004EF098D603C049F002C048F001C047F09D
:1009C00000C046F049C04DF048C04CF047C04BF065
:1009D00046C04AF0516A506A480E4F6E850E4E6E00
:1009E0003FDD03C049F002C048F001C047F000C03D
:1009F00046F049C04DF048C04CF047C04BF046C0EF
:100A00004AF0516A506A4F6A7F0E4E6EA2DD03C0F3
:100A10004DF002C04CF001C04BF000C04AF046DE81
:100A200002C038F001C037F09CEF06F0016A026A9C
:100A3000006A036A525002E1515018E0100E536EE2
:100A4000D8904F365036003603365250035C02E1E0
:100A50005150005C07E35150005ED8A0030652508D
:100A6000035ED88001360236532EEAD71200006AA0
:100A7000016A5250D89053B000260032013253B26E
:100A800000260032013253B400260032013253B640
:100A900000260032013253B800260032013253BA28
:100AA00000260032013253BC00260032013253BE10
:100AB00000260032013275EF05F04FC053F050C0F0
:100AC00054F063DC516A5150050820E3515003088B
:100AD00007E1010E4F24526E536E50C054F055DCA6
:100AE0004EC052F0060E536EC2D70150536A526E7A
:100AF000036A51505224016E53500322015020ECDE
:100B000000F0526E536E2BDC512ADDD712004DC01F
:100B100053F04EC054F039DC4F6A4F5005080FE3D4
:100B20004F50030807E1010E4D24506E536E4EC026
:100B300054F02BDC200E536E12DC4F2AEED7DFEF81
:100B400005F048C053F049C054F01FDC47C050F0D6
:100B500046C04FF0526A0A0E516E68DF02C04EF076
:100B600001C04DF002C050F001C04FF0526A0A0EB1
:100B7000516E5CDF00C04BF047C050F046C04FF0F4
:100B8000526A0A0E516E52DF00C04CF04BC04EF05C
:100B900048C04FF049C050F090DF030E49244D6E1D
:100BA0004CC04EF048C04FF0506E87DF4B5207E10B
:100BB0004A5205E048C04DF049C04EF0A8D7B7EF03
:100BC00006F04D50016A4C5C03E24CC000F00CD0C2
:100BD000006A080E4E6E4C3600364D50005CD8B0A0
:100BE000006E01364E2EF7D71200036A47500E0FE3
:100BF000E96E000E0320EA6E46C04CF00A0E4D6E00
:100C0000E0DF036A005002EC00F0EF6E010E4724B3
:100C1000036A0E0FE96E000E0320EA6E46C04CF028
:100C20000A0E4D6ECEDF01C04CF00A0E4D6EC9DFCC
:100C3000036A005002EC00F0EF6E482C14D0010E55
:100C40004724036A0E0FE96E000E0320EA6EEF5090
:100C5000C00809E1010E4724036A0E0FE96E000E79
:100C60000320EA6EEF68BEEF06F047C053F048C0BD
:100C700054F0C5EC01F0E40EF66E000EF76E000EB7
:100C8000F86ECDEC01F046C04CF00A0E4D6E99DFC7
:100C900001C04CF00A0E4D6E94DF300E0024496EF8
:100CA000536EAFEC01F046C04CF00A0E4D6E89DF7A
:100CB000300E0024496E536EAFEC01F0C7EF06F022
:100CC0000AEF02F03FC04DF03EC04CF03DC04BF08B
:100CD0003CC04AF0CD0E516ECC0E506E4C0E4F6E95
:100CE0007F0E4E6E30EC02F003C03FF002C03EF0CB
:100CF00001C03DF000C03CF03FC04DF03EC04CF0A4
:100D00003DC04BF03CC04AF0516A506A680E4F6ECD
:100D1000840E4E6E1EDC03C03FF002C03EF001C0E8
:100D20003DF000C03CF03FC049F03EC048F03DC03F
:100D300047F03CC046F00CD636C041F035C040F01C
:100D400038C043F037C042F04050445C03E14150AA
:100D5000455C16E041C045F040C044F041C047F05A
:100D600040C046F0020E486E496A4A6AEAD640C060
:100D700046F0030E476E010E486E37D7E5EC00F0E3
:100D800042C046F0030E476E060E486E6ED72DEF3A
:100D900007F0F86AD09E639A000E646E210E636EAF
:100DA0009598958A959C7E86080EAF6E020E7F6E92
:100DB000A60EAC6E900EAB6E7C86080E6F6E020EA9
:100DC0007D6EA60E6C6E900E6B6E056A046A166AD6
:100DD000216834903A6A050E3B6EC150C00B0F0972
:100DE000C16E070EB46E11D00840060008C0FF089F
:100DF0004019001200223033150316022190903062
:100E000030100820022090960000000EF86E0D0EA3
:100E1000F76EE80EF66E0900F550006E000A13E05A
:100E20000900F550016EE8BE05D00F0BEA6E09000F
:100E3000F5CFE9FF01BC090001AC0900F5CFEEFFD9
:100E4000004EE9D7F9D7F86A21EF01F08BEF01F0F6
:0E0E5000B4EF01F0E1EF01F033D7FED703005D
:020000040030CA
:0E00000000C21E1E0385B100FFC0FFE0FF40DE
:00000001FF
;PIC18F6722
;CRC=C71B  CREATED="16-Nov-22 11:19"
