:100000001EEF02F0F76A180FF66E000EF722000ED0
:10001000F86E0900F5501200C0F9A4B0999282F868
:1000200080908883C6A1868E2E004E4F204448546F
:1000300031310000444F4320534149204455204C66
:100040004945552044485431310062C063F0646B27
:10005000665062C066FF6430FEE3665061C066FFB2
:100060006430FEE3120005C062F004C061F0EDDF11
:1000700097988E8897988E98B1EF00F05D505F6EDC
:100080005F1E66505FC066FF6430FEE35EC05FF0D7
:100090005F1E66505FC066FF6430FEE3979E8E8EE3
:1000A000979E8E9EB4EF00F05D505F6E5F1E6650AF
:1000B0005FC066FF6430FEE35EC05FF05F1E6650A7
:1000C0005FC066FF6430FEE398988F8898988F9899
:1000D000B7EF00F00DC062F00CC061F0B6DF0BC0EE
:1000E00062F00AC061F0B1DF09C062F008C061F0DF
:1000F000ACDF07C062F006C061F0A7DF979A8E8A76
:10010000979A8E9AB8EF00F0070E5D6E5D50800AE8
:100110007F0811E2036A5D500E0FE96E000E0320A6
:10012000EA6EEF50FF0A5E6E66505EC066FF643096
:10013000FEE35D06EBD7979C8E8C979C8E9C1200FD
:100140005EC062F05DC061F080DF60C062F05FC0E1
:1001500061F07BDF93968A8693968A96BEEF00F0D5
:1001600082D75D685E688AD75D685E689DD7B2D7C2
:10017000CBDF5E6A5D6A606B5F6AE2D7E5EF00F035
:10018000FF0E926EF10E936EC10E946E949A8B8A4E
:1001900094948B9494928B92080E956E5F0E966E4B
:1001A000070E976E160E986E93968A96979C8E9C65
:1001B000979A8E9A98988F98979E8E9E97988E98D9
:1001C00097968E86056A046ACBD7949A8B9A9594F3
:1001D0008C84959E8C8E639A9598958A959C200E1A
:1001E000636E400E646EC050C00BC06EC08EC28085
:1001F000C150C00B0A09C16E8BEF02F0606B010E9B
:100200005F6E5F50100814E397968E96740E006E22
:10021000002EFED70000978485A45FC060F09796FB
:100220008E86740E006E002EFED700005F2AE9D77E
:1002300060C001F030EF01F0EA6A5F0EE96EEF5046
:100240000DE0060E016E006A002EFED7012EFBD7D0
:100250007B0E006E002EFED7EF2EF3D71200CED706
:1002600001C05EF05E5213E05E50100810E3010E14
:100270005F6EE2DF162A16505D5C05E2166A5EC00C
:1002800001F007D003D0FF0E016E03D002D0FF0EA5
:10029000016EE3EF01F066505DC066FF6430FEE37F
:1002A00066505EC066FF6430FEE366505FC066FF66
:1002B0006430FEE3665060C066FF6430FEE39396F0
:1002C0008A8693968A96F0EF01F00F0E5D6E5D526E
:1002D00025E0D8905D34036A3D0F016E000E0322C5
:1002E00003C05FF0010E5D5C006ED89000360050D8
:1002F000036A3D0FE96E000E0320EA6EECCF03F0B7
:10030000ED52EFCF60F05FC0EAFF01C0E9FF03C02C
:10031000ECFFED5260C0EFFF5D06D9D712005D6AB9
:100320005D50070821E3036A5D500E0F016E000E59
:10033000032203C05FF0040E5D24006ED8900036E7
:100340000050036A3D0FE96E000E0320EA6EECCF09
:1003500003F0ED52EFCF60F05FC0EAFF01C0E9FFAC
:1003600060C0EFFF5D2ADCD712005D6A5D500E08A9
:1003700025E3D8905D34036A3D0F016E000E032221
:1003800003C05FF0010E5D24006ED890003600506F
:10039000036A3D0FE96E000E0320EA6EECCF03F016
:1003A000ED52EFCF60F05FC0EAFF01C0E9FF03C08C
:1003B000ECFFED5260C0EFFF5D2AD8D706EF02F0E8
:1003C0000A0E5D6E4CD701C03CF03C521BE03C5025
:1003D000090818E35D6A5E6A5F6A3CC060F05BD73B
:1003E00074DF3C500F0B036A0DDE036A456E03C0D9
:1003F00046F095DF89DE020E5D6EFA0E5F6E1CDF41
:100400005D2EFBD73C500D080AE1AFD788DF7CDEBC
:10041000020E5D6EFA0E5F6E0FDF5D2EFBD73C5055
:100420000F080AE152DF7BDF6FDE020E5D6EFA0E0F
:100430005F6E02DF5D2EFBD78CEF02F0F86AD09E74
:10044000639A000E646E210E636E9598958A959C52
:100450007E86080EAF6E020E7F6EA60EAC6E900EFC
:10046000AB6E7C86080E6F6E020E7D6EA60E6C6EF5
:10047000900E6B6E056A046A166A216834903A6AB7
:10048000050E3B6EC150C00B0F09C16E070EB46E56
:1004900022D00840060008C0FF08401900120022C0
:1004A00030331503160221909030301008200220BE
:1004B000909620003DFF00FF00FF00FF00FF00FFBF
:1004C00000FF00FF00FF00FF00FF00FF00FF00FF34
:1004D00000FF00FF0000000EF86E040EF76E920E93
:1004E000F66E0900F550006E000A13E00900F550A1
:1004F000016EE8BE05D00F0BEA6E0900F5CFE9FFEB
:1005000001BC090001AC0900F5CFEEFF004EE9D7B0
:0C051000F9D7F86A35D654D7FED703009F
:020000040030CA
:0E00000000C21E1E0385B100FFC0FFE0FF40DE
:00000001FF
;PIC18F6722
;CRC=43AE  CREATED="12-Oct-22 11:35"
