:1000000081EF02F0F76A180FF66E000EF722000E6D
:10001000F86E0900F5501200C0F9A4B0999282F868
:1000200080908883C6A1868E2E004E4F204448546F
:1000300031310000444F4320534149204455204C66
:10004000494555204448543131004EC04FF0506A64
:1000500066504EC066FF6430FEE366504DC066FFDA
:100060006430FEE3120005C04EF004C04DF0EDDF39
:1000700097988E8897988E98B0EF00F04050426E17
:10008000421E665042C066FF6430FEE341C042F04B
:10009000421E665042C066FF6430FEE3979E8E8E1D
:1000A000979E8E9EB3EF00F04050426E421E665007
:1000B00042C066FF6430FEE341C042F0421E66501B
:1000C00042C066FF6430FEE398988F8898988F98B6
:1000D000B6EF00F00DC04EF00CC04DF0B6DF0BC017
:1000E0004EF00AC04DF0B1DF09C04EF008C04DF02F
:1000F000ACDF07C04EF006C04DF0A7DF979A8E8A9E
:10010000979A8E9AB7EF00F0070E416E4150800A21
:100110007F0811E2036A41500E0FE96E000E0320C2
:10012000EA6EEF50FF0A426E665042C066FF6430CE
:10013000FEE34106EBD7979C8E8C979C8E9C120019
:100140004AC04EF049C04DF080DF4CC04EF04BC06D
:100150004DF07BDF93968A8693968A96120083D71A
:10016000406841688BD7406841689ED7B3D7CCDFE1
:100170004A6A496A4C6A4B6AE3DFE4EF00F0FF0E1B
:10018000926EF10E936EC10E946E949A8B8A949433
:100190008B9494928B92080E956E5F0E966E070E5E
:1001A000976E160E986E93968A96979C8E9C979A49
:1001B0008E9A98988F98979E8E9E97988E989796DD
:1001C0008E86056A046ACBD7949A8B9A95948C8410
:1001D000959E8C8E639A9598958A959C200E636E59
:1001E000400E646EC050C00BC06EC08EC280C15045
:1001F000C00B0A09C16EDFEF02F0436A010E426EC6
:100200004250100814E397968E96740E006E002EDE
:10021000FED70000978485A442C043F097968E864F
:10022000740E006E002EFED70000422AE9D743C0AC
:1002300001F02FEF01F0EA6A420EE96EEF500DE097
:10024000060E016E006A002EFED7012EFBD77B0E34
:10025000006E002EFED7EF2EF3D71200CED701C0CE
:1002600041F0415213E04150100810E3010E426E7C
:10027000E2DF162A1650405C05E2166A41C001F022
:1002800007D003D0FF0E016E03D002D0FF0E016E27
:100290004DEF01F00A0E406EE1D701C03DF03D5236
:1002A00011E03D5009080EE30F0E3D163D500908C0
:1002B00009E334B207D019C01AF03DC019F0C80ED6
:1002C000426EB9DFE7EF02F0938C81BC17D0172A9A
:1002D000D8B4182A010E426EAEDF4150185C0AE312
:1002E00003E14050175C06E3186A176A010E016EBD
:1002F00007D003D0000E016E03D002D0000E016EB5
:10030000C2EF01F0938881B817D0172AD8B4182A01
:10031000010E426E90DF4150185C0AE303E1405049
:10032000175C06E3186A176A010E016E07D003D046
:10033000000E016E03D002D0000E016ECFEF01F06F
:10034000978285B217D0172AD8B4182A010E426EA8
:1003500072DF4150185C0AE303E14050175C06E38A
:10036000186A176A010E016E07D003D0000E016EE5
:1003700003D002D0000E016ED6EF01F0416A960E56
:10038000406EA2D7012C07D0348434821A500A0D53
:10039000F35019243C6E416A960E406EB3D7012C7F
:1003A00001D03494416A960E406ECAD7012C03D016
:1003B0003484D76AD66AE8EF02F04850016A475C95
:1003C00003E247C000F00CD0006A080E496E4736C1
:1003D00000364850005CD8B0006E0136492EF7D781
:1003E0001200036A42500E0FE96E000E0320EA6EFF
:1003F00041C047F00A0E486EE0DF036A005002DE9B
:10040000EF6E010E4224036A0E0FE96E000E032008
:10041000EA6E41C047F00A0E486ECFDF01C047F0D8
:100420000A0E486ECADF036A0050ECDDEF6E432C03
:1004300014D0010E4224036A0E0FE96E000E032051
:10044000EA6EEF50C00809E1010E4224036A0E0F64
:10045000E96E000E0320EA6EEF683CEF02F0036ADB
:100460001A50D0DD126E036A1950CCDD116E3EC0F9
:1004700041F0426A436AB5D747DE120043C045F0F7
:1004800044C046F042C048F041C047F046C04AF080
:1004900045C049F048C04CF047C04BF051DE120057
:1004A00034A42DD0D6503E6E3E503F5C28E03EC076
:1004B0003FF0D5DF3C503E5C22E334A420D0D76A25
:1004C000D66A406A405003081AE3446843684268A9
:1004D0004168D4DF020E416EC80E426EACDE412E82
:1004E000FBD7446A436A426A416AC8DF020E416E22
:1004F000C80E426EA0DE412EFBD7402AE3D7E9EFBB
:1005000002F0F86AD09E639A000E646E210E636E4C
:100510009598958A959C7E86080EAF6E020E7F6E2A
:10052000A60EAC6E900EAB6E7C86080E6F6E020E41
:100530007D6EA60E6C6E900E6B6E056A046A166A6E
:10054000216834903A6A050E3B6E34923494C1505F
:10055000C00B0F09C16E070EB46E11D00840060023
:1005600008C0FF084019001200223033150316029C
:100570002190903030100820022090960000000E4C
:10058000F86E050EF76E5C0EF66E0900F550006E03
:10059000000A13E00900F550016EE8BE05D00F0B0C
:1005A000EA6E0900F5CFE9FF01BC090001AC0900C2
:1005B000F5CFEEFF004EE9D7F9D7F86AE0D5A80EDF
:1005C000D56ED76AD66A3C6A010E3F6E63D6D6D620
:0805D00067D745DFFBD70300EC
:020000040030CA
:0E00000000C21E1E0385B100FFC0FFE0FF40DE
:00000001FF
;PIC18F6722
;CRC=5997  CREATED="09-Nov-22 08:23"
