:1000000043EF01F02E004E4F2044485431310000A0
:10001000444F4320534149204455204C49455520E5
:1000200044485431310046C047F0486A665046C0E3
:1000300066FF6430FEE3665045C066FF6430FEE351
:10004000120005C046F004C045F0EDDF97988E8899
:1000500097988E989FEF00F03C503E6E3E1E665083
:100060003EC066FF6430FEE33DC03EF03E1E66507B
:100070003EC066FF6430FEE3979E8E8E979E8E9EF6
:10008000A2EF00F03C503E6E3E1E66503EC066FF42
:100090006430FEE33DC03EF03E1E66503EC066FF4B
:1000A0006430FEE398988F8898988F98A5EF00F0B9
:1000B0000DC046F00CC045F0B6DF0BC046F00AC0DC
:1000C00045F0B1DF09C046F008C045F0ACDF07C01D
:1000D00046F006C045F0A7DF979A8E8A979A8E9AC7
:1000E000A6EF00F0070E3C6E3C50800A7F0811E23C
:1000F000036A3C500E0FE96E000E0320EA6EEF50CB
:10010000FF0A3D6E66503DC066FF6430FEE33C066C
:10011000EBD7979C8E8C979C8E9CA7EF00F042C0EB
:1001200046F041C045F07FDF44C046F043C045F093
:100130007ADF93968A8693968A96120082D73C68D5
:100140003D688AD73C683D689DD7B2D7CBD7426A15
:10015000416A446A436AE3DFD3EF00F0FF0E926E18
:10016000F10E936EC10E946E949A8B8A94948B9434
:1001700094928B92080E956E5F0E966E070E976E98
:10018000160E986E93968A96979C8E9C979A8E9A46
:1001900098988F98979E8E9E97988E9897968E8611
:1001A000056A046ACBD7949A8B9A95948C84959E11
:1001B0008C8E639A9598958A959C200E636E400E5E
:1001C000646EC050C00BC06EC08EC280C150C00BE8
:1001D0000A09C16E9FEF01F0EA6A420EE96EEF5024
:1001E0000DE0060E016E006A002EFED7012EFBD731
:1001F0007B0E006E002EFED7EF2EF3D71200406A62
:100200003F6A3E6A3E500F0820E3D8903F34416E6B
:100210004034426E010E41243F6E000E4220406E7B
:10022000426A416A40C044F03FC043F078DF3DC0BD
:1002300041F0412A4106D8B403D04268CDDFFAD755
:100240003CC042F0C9DF3E2ADDD73E6A3E500F086F
:1002500018E3D8903F364036426A416A40C044F0C5
:100260003FC043F05CDF3DC041F0412A4106D8B4B5
:1002700003D04268B1DFFAD73CC042F0ADDF3E2A7E
:10028000E5D7A3EF01F0F86AD09E639A000E646E82
:10029000210E636E9598958A959C7E86080EAF6EAA
:1002A000020E7F6EA60EAC6E900EAB6E7C86080EB4
:1002B0006F6E020E7D6EA60E6C6E900E6B6E056AF2
:1002C000046A166A216834903A6A050E3B6EC15082
:1002D000C00B0F09C16E070EB46E11D008400600A6
:1002E00008C0FF084019001200223033150316021F
:1002F0002190903030100820022090960000000ECF
:10030000F86E020EF76EDC0EF66E0900F550006E08
:10031000000A13E00900F550016EE8BE05D00F0B8E
:10032000EA6E0900F5CFE9FF01BC090001AC090044
:10033000F5CFEEFF004EE9D7F9D7F86A0FD73D6A3F
:0A034000280E3C6E5CD7FBD70300CB
:020000040030CA
:0E00000000C21E1E0385B100FFC0FFE0FF40DE
:00000001FF
;PIC18F6722
;CRC=12C6  CREATED="24-Aug-22 09:24"
