:10000000DAEF0EF0F76A180FF66E000EF722000E08
:10001000F86E0900F550120080C094D4F76A300FD2
:10002000F66E000EF722000EF86E0900F550120071
:10003000070F1F1F1F1F1F1F1F1F1F000000000093
:100040001C1E1F1F1F1F1F1F00000000001F1F1F5F
:100050001F1F1F1F1F1F0F071F1F1F1F1F1F1E1CDC
:100060001F1F1F0000001F1F1F1F1F1F1F1F1F1FFD
:100070002E004E4F2044485431310000444F43205D
:10008000534149204455204C49455520444854315A
:100090003100547269202D203139313531303837F3
:1000A00000002E00543A20004FC050F0516A6650B4
:1000B0004FC066FF6430FEE366504EC066FF64309A
:1000C000FEE3120005C04FF004C04EF0EDDF97983C
:1000D0008E8897988E9812004250446E441E665047
:1000E00044C066FF6430FEE343C044F0441E6650E3
:1000F00044C066FF6430FEE3979E8E8E979E8E9E70
:10010000E3EF00F05350556E551E665055C066FF24
:100110006430FEE354C055F0551E665055C066FF6E
:100120006430FEE398988F8898988F9812000DC0DD
:100130004FF00CC04EF0B8DF0BC04FF00AC04EF0CD
:10014000B3DF09C04FF008C04EF0AEDF07C04FF07C
:1001500006C04EF0A9DF979A8E8A979A8E9AE7EF9B
:1001600000F0070E4E6E4E50800A7F0814E2036ABC
:100170004E50006EE8BE03060E0FE96E000E03201F
:10018000EA6EEF50FF0A4F6E66504FC066FF643054
:10019000FEE34E06E8D7979C8E8C979C8E9C1200AF
:1001A0004BC04FF04AC04EF07FDF4DC04FF04CC007
:1001B0004EF07ADF93968A8693968A96120082DFB3
:1001C0004268436889D7536854689CDFB0D7C9DF59
:1001D0004B6A4A6A4D6A4C6AE3DF14EF01F0FF0E86
:1001E000926EF10E936EC10E946E949A8B8A9494D3
:1001F0008B9494928B92080E956E5F0E966E070EFE
:10020000976E160E986E93968A96979C8E9C979AE8
:100210008E9A98988F98979E8E9E97988E9897967C
:100220008E86056A046ACBD7949A8B9A95948C84AF
:10023000959E8C8E639A9598958A959C200E636EF8
:10024000400E646EC050C00BC06EC08EC280C150E4
:10025000C00B0A09C16E44EF0FF0218021C053F09A
:1002600052C054F04FDF210E006E002EFED72190B9
:1002700021C053F052C054F045DF1200219451C008
:1002800052F0EBDF1200EA6A430EE96EEF500DE028
:10029000060E016E006A002EFED7012EFBD77B0EE4
:1002A000006E002EFED7EF2EF3D712002190219280
:1002B00021842196380E516EE1DF420E006E002E31
:1002C000FED700000C0E516ED9DF420E006E002EDC
:1002D000FED70000010E516ED1DF020E436ED3DF58
:1002E000060E516ECBDF420E006E002EFED70000D0
:1002F00046EF0FF0218451C052F0AFDF1200400EE4
:10030000516EBCDF426A42503F0808E3036A425024
:1003100085DE436E516EEEDF422AF5D748EF0FF0CF
:10032000036A4E506FDE4F24506E516EA7DF1200ED
:100330000900F55210E0F6CF4EF0F7CF4FF0F8CFAE
:1003400050F0F5CF51F0D6DF4EC0F6FF4FC0F7FFAB
:1003500050C0F8FFEDD712004E6A4F6AE1DF920EEF
:10036000F66E000EF76E000EF86EE2DF4AEF0FF049
:100370008E0E006E83C001F082C002F0036A01524B
:1003800009E102C001F0026A080E005E015202E1BA
:10039000006A08D0D89001BE04D0023601360006AB
:1003A000F9D7019E1200800ED8B2871B8C6B8D6B23
:1003B00083C08BF087518B1B8251D8B4DCD08A6FFD
:1003C000006E8651D8B4E0D08A5FD8B481D03DE3C6
:1003D00087C090F0908F88C08FF089C08EF08D6BB1
:1003E000D89090338F338E338D338A2FF8D78BAFDD
:1003F00003D08C81DDD08C918A918C89EA6A850E3C
:10040000E96EE9D08C998BBF0AD08AA113D09033C2
:100410008F338E338D33002AD8B4C5D00BD090BF24
:100420000CD0D8908D378E378F3790370006D8B4E0
:10043000BAD0F5D78C8D6BD08C9D83C08BF083AFF9
:1004400002D0908FA9D0909FA7D086C08AF086C096
:1004500000F082518A5F83C090F0908F84C08FF04B
:1004600085C08EF08D6BD89090338F338E338D3363
:100470008A2FF8D78BAF03D08C839AD08C938A9134
:100480008C8BEA6A890EE96EA6D08C9B8BBF0AD052
:100490008AA113D090338F338E338D33002AD8B492
:1004A00082D00BD090BF0CD0D8908D378E378F373D
:1004B00090370006D8B477D0F5D78C8F28D08C9F92
:1004C00087C08BF087AF02D0908F66D0909F64D0AA
:1004D00087C090F0908F88C08FF089C08EF08BAF6E
:1004E00004D0909F8C8564D08C958D6B8A91EA6A3C
:1004F000850EE96E70D08BBF1CD083C08BF08AA1B3
:1005000006D090338F338E338D33002A4CE08DAF7D
:100510000BD08E2B09E18F2B07E1902B05E1903357
:100520008F338E33002A3FE08CBD86D78CBFC7D770
:100530001CD0800E901B90AF04D03AD087C08BF0B7
:100540000AD083C08BF0905306E18F5304E18E53A1
:1005500002E1006A21D090BF08D0D8908D378E3745
:100560008F379037002EF7D71ED08BAF02D0908FE9
:1005700013D0909F11D086C000F087C090F088C043
:100580008FF089C08EF008D082C000F083C090F058
:1005900084C08FF085C08EF090C001F08FC002F053
:1005A0008EC003F034D0006A016A026A036A2FD059
:1005B0008D6B8E1F8F1F901F8D1F8D2B05E18E2B36
:1005C00003E18F2B01E1902B8CB115D78CB356D75B
:1005D0008CB58AD7B3D7EF508E2705E38F2B03E175
:1005E000902BD8B48A81ED52EF508F2703E3902BE4
:1005F000D8B48A81ED52EF50EFBE01D0800A902727
:10060000D8B08A818CB9FED68CBB3FD774D7120084
:100610007751D8B4A5D0836F7B51D8B4A1D0835F74
:1006200005E37F0E8327D8B09BD006D0810E835F71
:10063000D8A096D0D8B494D083C000F0016A026AE2
:10064000036A826B78C081F0818F79C080F07AC0B4
:100650007FF0190E836F7E517F5F0DE2010E805F88
:100660000AE2815F08E2825F06E2822B812B802B07
:100670007E517F2728D07D51805F12E2010E815F7D
:100680000FE2825F0DE2822B812B7D5180277E510C
:100690007F2719E3802B17E1812B15E1822B13D0E3
:1006A0007C518009815F0EE2010E825F0BE2822B9A
:1006B0007C51800981277D518027E9E3812BE7E187
:1006C000822BE5D70380832F01D00BD0D8907F37C2
:1006D000803781378237D890033602360136843727
:1006E000BAD784A106D0D8900132023203328433C3
:1006F00002D0000635E084BF1ED0D8907F37803707
:10070000813782377E517F5F07E2010E805F04E20E
:10071000815F02E2825F1AE37D51805F05E2010E94
:10072000815F02E2825F12E37C518009815F03E214
:10073000010E825F0BE3032A09E1022A07E1012A85
:1007400005E1002A0DE001320232033278C083F065
:100750007C51831B83AF02D0018E06D0019E04D052
:10076000006A016A026A036A12004F34006E0036A2
:10077000FC0E0016C250C30B0010C26E210E006E9C
:10078000002EFED7536A526A516A506A546A4E501C
:10079000545C2AE2C282C2B2FED7C4CF02F0C3CFF9
:1007A00001F0C4CF03F0C3CF82F0C4CF83F0E0DD0B
:1007B000D89253C085F052C084F051C083F050C02D
:1007C00082F003C089F002C088F001C087F000C049
:1007D00086F0E9DD03C053F002C052F001C051F0D1
:1007E00000C050F0542AD3D7836B4EC082F0C0DDD6
:1007F00053C07AF052C079F051C078F050C077F011
:1008000003C07EF002C07DF001C07CF000C07BF030
:10081000FFDE03C053F002C052F001C051F000C02F
:1008200050F050C000F051C001F052C002F053C06F
:1008300003F0F1EF0CF07FC086F08351861B86AF8A
:1008400005D0D894D8907FBFD8802FD07FC086F0B5
:1008500082C087F07E51875F06E086AF26D0D850F1
:10086000010AD86E22D083C087F07F51875F06E0EF
:1008700086AF1BD0D850010AD86E17D084C087F03D
:100880008051875F06E086AF10D0D850010AD86E3D
:100890000CD085C087F08151875F06E086AF05D018
:1008A000D850010AD86E01D0D89012008E0E006E7A
:1008B0007E51005E7FC002F080C001F0028E0052C7
:1008C00009E0D890025202E1015204E00232013202
:1008D000002EF7D77FAF05D0011E021E012AD8B423
:1008E000022A12007E51D8B471D0006E8251D8B461
:1008F0006DD0002604E3810E002668E204D07F0E4E
:10090000005E64E363E07FC086F08351861B7F8FC7
:10091000838F81518503F4CF88F080518403F4CF15
:1009200003F0F3CF87F08503F3508827F450872333
:10093000000E032281518403F3508827F45087234B
:10094000000E026A032202227F518503F35087279B
:10095000F4500322000E02227F518403F350032639
:10096000F4500222000E016A012281518303F350E8
:100970008727F4500322000E0222012280518303B4
:10098000F3500326F4500222000E01227F5183030C
:10099000F3500226F4500122002A01BE05D0873709
:1009A0000336023601360006000E87AF0AD0032A4E
:1009B00002220122015005E1025003E1035001E14E
:1009C000002A86BF018E86AF019E04D0006A016AAC
:1009D000026A036A12007D9171C076F070C075F0F2
:1009E0006FC074F06EC073F071C081F070C080F0A1
:1009F0006FC07FF06EC07EF0856B846B836B826B03
:100A00001ADF04E37D817451800A746F76C081F02F
:100A100075C080F074C07FF073C07EF0856B846B0E
:100A2000836B8E0E826F07DF01E217E176C081F0E3
:100A300075C080F074C07FF073C07EF037DF02C0F5
:100A400083F001C082F094DC03C07AF002C079F038
:100A500001C078F000C077F0BFD076C081F075C0DB
:100A600080F074C07FF073C07EF0800E856F960EAC
:100A7000846F180E836F960E826FDDDED8A0A4D02F
:100A800076C081F075C080F074C07FF073C07EF0D6
:100A9000856B846B836B700E826F24DF03C081F0E3
:100AA00002C080F001C07FF000C07EF0FFDE02C017
:100AB0007CF001C07BF076C081F075C080F074C01E
:100AC0007FF073C07EF0856B846B836B700E826FDA
:100AD00009DF03C081F002C080F001C07FF000C0D8
:100AE0007EF07CC083F07BC082F042DCD88281C083
:100AF00085F080C084F07FC083F07EC082F003C0A8
:100B000089F002C088F001C087F000C086F04BDC9D
:100B1000816B806B7F6B8E0E7E6F03C085F002C091
:100B200084F001C083F000C082F0DCDE03C076F008
:100B300002C075F001C074F000C073F07CC083F097
:100B40007BC082F015DC816B806B7F6B8E0E7E6FBD
:100B500003C085F002C084F001C083F000C082F0C1
:100B6000C1DE03C07AF002C079F001C078F000C0A5
:100B700077F076C081F075C080F074C07FF073C0EC
:100B80007EF094DE02C083F001C082F0B8EC01F088
:100B9000D8927AC085F079C084F078C083F077C0AD
:100BA00082F003C089F002C088F001C087F000C065
:100BB00086F0D3EC01F003C07AF002C079F001C0F6
:100BC00078F000C077F008D076C07AF075C079F080
:100BD00074C078F073C077F076C081F075C080F093
:100BE00074C07FF073C07EF061DE02C083F001C08C
:100BF00082F0B8EC01F0D88276C085F075C084F040
:100C000074C083F073C082F003C089F002C088F022
:100C100001C087F000C086F0D3EC01F003C076F08D
:100C200002C075F001C074F000C073F07DA103D064
:100C30007851800A786F76C081F075C080F074C0FA
:100C40007FF073C07EF0856B846B836B826BF3DD0A
:100C500038E07DA11AD0725318E1D8827AC085F0AD
:100C600079C084F078C083F077C082F0896B886B9C
:100C7000876B7F0E866FD3EC01F003C07AF002C061
:100C800079F001C078F000C077F07DB11AD0722DF4
:100C900018D0D8927AC085F079C084F078C083F0FB
:100CA00077C082F0896B886B876B7F0E866FD3EC81
:100CB00001F003C07AF002C079F001C078F000C002
:100CC00077F071C081F070C080F06FC07FF06EC0AF
:100CD0007EF0856B846B836B826BADDD04E17A6B98
:100CE000796B786B776B77C000F078C001F079C0D2
:100CF00002F07AC003F012006DC071F06CC070F0A9
:100D00006BC06FF06AC06EF0010E726F64DEEDEFC3
:100D100006F06DC071F06CC070F06BC06FF06AC00F
:100D20006EF0726B58DE10EF07F061C081F060C0AA
:100D300080F05FC07FF05EC07EF0856B846B836B5C
:100D4000826B79DDD8B499D05DC07AF05CC079F05F
:100D50005BC078F05AC077F061C07EF060C07DF073
:100D60005FC07CF05EC07BF053DC03C069F002C062
:100D700068F001C067F000C066F003C081F002C0F7
:100D800080F001C07FF000C07EF0856B846B836BC8
:100D9000826B51DD23E35DC07AF05CC079F05BC00B
:100DA00078F05AC077F061C07EF060C07DF05FC01F
:100DB0007CF05EC07BF02CDC03C069F002C068F000
:100DC00001C067F000C066F003C06DF002C06CF0B7
:100DD00001C06BF000C06AF08FD722D05DC07AF0FE
:100DE0005CC079F05BC078F05AC077F061C07EF0EB
:100DF00060C07DF05FC07CF05EC07BF009DC03C0AA
:100E000069F002C068F001C067F000C066F003C07E
:100E10006DF002C06CF001C06BF000C06AF079D7D1
:100E200003C065F002C064F001C063F000C062F06E
:100E300065C081F064C080F063C07FF062C07EF066
:100E400061C085F060C084F05FC083F05EC082F056
:100E500049DDD8825DC085F05CC084F05BC083F062
:100E60005AC082F003C089F002C088F001C087F048
:100E700000C086F0D3EC01F000D012008E0E006EA0
:100E800075C001F074C002F0036A75AF05D0011E91
:100E9000021E022A01E1012A015209E102C001F009
:100EA000026A080E005E015202E1006A0AD0D89080
:100EB00001BE04D0023601360006F9D775BF01D055
:100EC000019E120061C065F060C064F05FC063F015
:100ED0005EC062F065C081F064C080F063C07FF0E6
:100EE00062C07EF0856B846B836B7F0E826FA3DCA8
:100EF000D8B480D1620EE96EEA6A7E0EEF6ED882B7
:100F000065C085F064C084F063C083F062C082F085
:100F1000896B886B876B7F0E866FD3EC01F003C003
:100F200076F002C075F001C074F000C073F0D89282
:100F300065C085F064C084F063C083F062C082F055
:100F4000896B886B876B7F0E866FD3EC01F076C060
:100F50007AF075C079F074C078F073C077F003C090
:100F60007EF002C07DF001C07CF000C07BF008EC98
:100F700003F003C065F002C064F001C063F000C07C
:100F800062F065C081F064C080F063C07FF062C031
:100F90007EF065C085F064C084F063C083F062C0F9
:100FA00082F0A0DC03C071F002C070F001C06FF0ED
:100FB00000C06EF0990E816F470E806F8A0E7F6FB2
:100FC0007F0E7E6F71C085F070C084F06FC083F0BB
:100FD0006EC082F087DC03C076F002C075F001C0FD
:100FE00074F000C073F0D89203C085F002C084F0A2
:100FF00001C083F000C082F0896B886B876B800E24
:10100000866FD3EC01F003C069F002C068F001C044
:1010100067F000C066F04C0E816FF30E806F3A0EE1
:101020007F6F7B0E7E6F71C085F070C084F06FC0E3
:1010300083F06EC082F056DC03C076F002C075F01B
:1010400001C074F000C073F0D89203C085F002C0F4
:1010500084F001C083F000C082F02B0E896F9D0EDA
:10106000886FDF0E876F7E0E866FD3EC01F003C0B2
:101070006DF002C06CF001C06BF000C06AF06DC092
:1010800081F06CC080F06BC07FF06AC07EF071C0F0
:1010900085F070C084F06FC083F06EC082F022DCF7
:1010A00003C076F002C075F001C074F000C073F0A8
:1010B000D89203C085F002C084F001C083F000C064
:1010C00082F0896B886B876B7F0E866FD3EC01F0A3
:1010D00003C06DF002C06CF001C06BF000C06AF09C
:1010E00065C081F064C080F063C07FF062C07EF0B4
:1010F00069C085F068C084F067C083F066C082F084
:1011000072EC04F003C076F002C075F001C074F018
:1011100000C073F003C07AF002C079F001C078F02B
:1011200000C077F06DC07EF06CC07DF06BC07CF0CD
:101130006AC07BF008EC03F003C069F002C068F0FD
:1011400001C067F000C066F05E0EE96EEA6A7E0ECE
:10115000EF5C726F72AF12D0000ED8807255756B53
:10116000746F74BF75078ADE00C06AF00150800A90
:101170006B6F02C06CF003C06DF00ED0756B72C067
:1011800074F074BF75077ADE03C06DF002C06CF0B6
:1011900001C06BF000C06AF06DC081F06CC080F0DF
:1011A0006BC07FF06AC07EF0180E856F720E846F80
:1011B000310E836F7E0E826F72EC04F0D89269C09C
:1011C00085F068C084F067C083F066C082F003C019
:1011D00089F002C088F001C087F000C086F0D3EC2F
:1011E00001F003C069F002C068F001C067F000C000
:1011F00066F004D0696B686B676B666B66C000F065
:1012000067C001F068C002F069C003F0120061C05D
:1012100081F060C080F05FC07FF05EC07EF03B0E6A
:10122000856FAA0E846F380E836F7F0E826F72EC0B
:1012300004F003C081F002C080F001C07FF000C064
:101240007EF056EC04F001C06EF06F9161C065F065
:1012500060C064F05FC063F05EC062F061C081F0A6
:1012600060C080F05FC07FF05EC07EF0856B846BF5
:10127000836B826B1BEC04F005E36F816E6D635131
:10128000800A636F696B686B676B666B660EE96EED
:10129000EA6A7F0E6E25EF6E65C081F064C080F053
:1012A00063C07FF062C07EF03B0E856FAA0E846F34
:1012B000380E836F7F0E826F72EC04F003C073F000
:1012C00002C072F001C071F000C070F0756B6EC0AA
:1012D00074F074BF7507D2DDD88273C085F072C018
:1012E00084F071C083F070C082F003C089F002C046
:1012F00088F001C087F000C086F0D3EC01F003C095
:1013000065F002C064F001C063F000C062F07C0EC2
:10131000816F880E806F590E7F6F720E7E6F65C071
:1013200085F064C084F063C083F062C082F072EC28
:1013300004F003C073F002C072F001C071F000C08D
:1013400070F0D89203C085F002C084F001C083F031
:1013500000C082F0E00E896F970E886F260E876FAF
:10136000750E866FD3EC01F003C06DF002C06CF017
:1013700001C06BF000C06AF06DC081F06CC080F0FD
:101380006BC07FF06AC07EF065C085F064C084F0F9
:1013900063C083F062C082F072EC04F003C073F0AB
:1013A00002C072F001C071F000C070F0D89203C0AA
:1013B00085F002C084F001C083F000C082F0C40E4A
:1013C000896F1D0E886F1E0E876F780E866FD3ECA7
:1013D00001F003C06DF002C06CF001C06BF000C002
:1013E0006AF06DC081F06CC080F06BC07FF06AC0A5
:1013F0007EF065C085F064C084F063C083F062C095
:1014000082F072EC04F003C073F002C072F001C00D
:1014100071F000C070F0D89203C085F002C084F073
:1014200001C083F000C082F05E0E896F500E886F9D
:10143000630E876F7A0E866FD3EC01F003C06DF0F8
:1014400002C06CF001C06BF000C06AF06DC081F0AA
:101450006CC080F06BC07FF06AC07EF065C085F024
:1014600064C084F063C083F062C082F072EC04F068
:1014700003C073F002C072F001C071F000C070F0E0
:10148000D89203C085F002C084F001C083F000C090
:1014900082F01A0E896FFE0E886F750E876F7C0EB4
:1014A000866FD3EC01F003C06DF002C06CF001C098
:1014B0006BF000C06AF06DC081F06CC080F06BC052
:1014C0007FF06AC07EF065C085F064C084F063C0C0
:1014D00083F062C082F072EC04F003C073F002C0CB
:1014E00072F001C071F000C070F0D89203C085F0B6
:1014F00002C084F001C083F000C082F0180E896F32
:10150000720E886F310E876F7E0E866FD3EC01F0FE
:1015100003C06DF002C06CF001C06BF000C06AF057
:1015200065C081F064C080F063C07FF062C07EF06F
:101530006DC085F06CC084F06BC083F06AC082F02F
:1015400072EC04F0D892856B846B836B7F0E826F94
:1015500003C089F002C088F001C087F000C086F0A7
:10156000D3EC01F069C081F068C080F067C07FF003
:1015700066C07EF003C085F002C084F001C083F035
:1015800000C082F072EC04F003C069F002C068F0A1
:1015900001C067F000C066F06FA117D07A6B796B5D
:1015A000786B7F0E776F69C07EF068C07DF067C092
:1015B0007CF066C07BF008EC03F003C069F002C069
:1015C00068F001C067F000C066F066C000F067C058
:1015D00001F068C002F069C003F0120055C081F04C
:1015E00054C080F053C07FF052C07EF0856B846B96
:1015F000836B826B1BEC04F0D8A0C0D059C05DF0A7
:1016000058C05CF057C05BF056C05AF0616B606B1D
:101610005F6A7F0E5E6E95EC06F003C05DF002C05F
:101620005CF001C05BF000C05AF003C081F002C062
:1016300080F001C07FF000C07EF0856B846B836B0F
:10164000826B1BEC04F0D8A499D059C05DF058C04F
:101650005CF057C05BF056C05AF0616B606B5F6A1C
:10166000800E5E6E95EC06F003C05DF002C05CF08B
:1016700001C05BF000C05AF003C081F002C080F0EE
:1016800001C07FF000C07EF0856B846B836B826B42
:101690001BEC04F038E15350800A5B6E55C061F0DA
:1016A00054C060F05F6E52C05EF00CDC03C05DF0B1
:1016B00002C05CF001C05BF000C05AF003C081F0D2
:1016C00002C080F001C07FF000C07EF059C085F0FC
:1016D00058C084F057C083F056C082F072EC04F01A
:1016E00003C05DF002C05CF001C05BF000C05AF0C6
:1016F00003C061F002C060F001C05FF000C05EF0A6
:1017000086DDD1D03AD05350800A5B6E55C061F06F
:1017100054C060F05F6E52C05EF062EC07F003C030
:101720005DF002C05CF001C05BF000C05AF003C085
:1017300081F002C080F001C07FF000C07EF059C08F
:1017400085F058C084F057C083F056C082F072EC28
:1017500004F003C05DF002C05CF001C05BF000C0AB
:101760005AF003C061F002C060F001C05FF000C039
:101770005EF04DDD800E011A96D095D055C081F0F7
:1017800054C080F053C07FF052C07EF0856B846BF4
:10179000836B826B1BEC04F02CE359C05DF058C0E6
:1017A0005CF057C05BF056C05AF0616B606B5F6ACB
:1017B0007F0E5E6E95EC06F003C05DF002C05CF03B
:1017C00001C05BF000C05AF003C081F002C080F09D
:1017D00001C07FF000C07EF0856B846B836B826BF1
:1017E0001BEC04F006E0006A016A026A036A5BD03F
:1017F0005AD055C081F054C080F053C07FF052C021
:101800007EF0856B846B836B826B1BEC04F010E1C4
:1018100059C081F058C080F057C07FF056C07EF0AC
:10182000856B846B836B826B1BEC04F001E237E108
:1018300055C061F054C060F053C05FF052C05EF01C
:1018400062EC07F003C05DF002C05CF001C05BF029
:1018500000C05AF003C081F002C080F001C07FF0E8
:1018600000C07EF059C085F058C084F057C083F0A6
:1018700056C082F072EC04F003C05DF002C05CF070
:1018800001C05BF000C05AF003C061F002C060F01C
:1018900001C05FF000C05EF0BADC05D004D0006A81
:1018A000016A026A036A23EF0DF051C07AF050C05A
:1018B00079F04FC078F04EC077F07E6B7D6B7C6B1B
:1018C0007F0E7B6F08EC03F003C081F002C080F054
:1018D00001C07FF000C07EF056EC04F002C038F08A
:1018E00001C037F038C083F037C082F0B8EC01F0A7
:1018F000D88251C085F050C084F04FC083F04EC0F4
:1019000082F003C089F002C088F001C087F000C0F7
:1019100086F0D3EC01F003C051F002C050F001C0DA
:101920004FF000C04EF051C081F050C080F04FC069
:101930007FF04EC07EF0856B846B480E836F850E02
:10194000826F72EC04F003C051F002C050F001C08D
:101950004FF000C04EF051C07AF050C079F04FC047
:1019600078F04EC077F07E6B7D6B7C6B7F0E7B6F6B
:1019700008EC03F003C081F002C080F001C07FF0EA
:1019800000C07EF056EC04F002C03AF001C039F01D
:1019900059EF0DF0016A026A006A036A515002E1D0
:1019A000505018E0100E526ED8904E364F3600361A
:1019B00003365150035C02E15050005C07E3505085
:1019C000005ED8A003065150035ED880013602366F
:1019D000522EEAD7120042C04EF0030E4F6EB5EF02
:1019E00003F003C047F002C046F001C045F000C05C
:1019F00044F07A6BA80E796F050E786F8B0E776FB7
:101A000047C07EF046C07DF045C07CF044C07BF00E
:101A100008EC03F003C051F002C050F001C04FF0D9
:101A200000C04EF003C055F002C054F001C053F0A6
:101A300000C052F0680E596E910E586E0D0E576E22
:101A40007F0E566ECBD503C047F002C046F001C0F2
:101A500045F000C044F047C081F046C080F045C06A
:101A60007FF044C07EF056EC04F002C041F001C0AB
:101A700040F0816B806B200E7F6F850E7E6F47C0BC
:101A800085F046C084F045C083F044C082F01BEC72
:101A900004F006E3476A466A200E456E850E446EE2
:101AA00047C051F046C050F045C04FF044C04EF022
:101AB000FCD638C049F037C048F03AC04BF039C0C6
:101AC0004AF0010E4E6E020E4F6E90EC01F0A20E27
:101AD000F66E000EF76E000EF86E98EC01F04850AE
:101AE0004C5C03E149504D5C38E049C04DF048C0C2
:101AF0004CF0010E4E6E4F6A90EC01F049C04FF071
:101B000048C04EF0516A0A0E506E44DF02C04FF0DA
:101B100001C04EF0300E4E26000E4F224EC051F046
:101B20007AEC01F0010E4E6E4F6E90EC01F049C060
:101B30004FF048C04EF0516A0A0E506E2BDF00C0C5
:101B40004EF003C04FF0300E4E26000E4F224EC016
:101B500051F07AEC01F0B1EC00F0435234E0010EA8
:101B60004E6E030E4F6E90EC01F04BC04FF04AC02A
:101B70004EF0516A0A0E506E0DDF02C04FF001C0E8
:101B80004EF0300E4E26000E4F224EC051F07AEC31
:101B900001F0010E4E6E040E4F6E90EC01F04BC042
:101BA0004FF04AC04EF0516A0A0E506EF3DE00C08C
:101BB0004EF003C04FF0300E4E26000E4F224EC0A6
:101BC00051F07AEC01F0020E4E6E4F6A90EC01F08B
:101BD000A40EF66E000EF76E000EF86E98EC01F093
:101BE000020E4E6E030E4F6E90EC01F03FC04FF0B0
:101BF0003EC04EF0516A0A0E506ECCDE02C04FF06D
:101C000001C04EF0300E4E26000E4F224EC051F055
:101C10007AEC01F03FC04FF03EC04EF0516A0A0E20
:101C2000506EB8DE00C04EF003C04FF0300E4E26AE
:101C3000000E4F224EC051F07AEC01F061EF0FF030
:101C4000938C81BC16D0140E436E43EC01F0938C40
:101C500081BC0FD0938C81ACFDD73F5203E13E5045
:101C6000130804E23F6A140E3E6E03D03E2AD8B435
:101C70003F2A978285B217D0140E436E43EC01F0D1
:101C8000978285B210D0978285A2FDD73F5207E197
:101C90003E50080804E33F6A0A0E3E6E04D03E50F0
:101CA000D8B43F063E0662EF0FF044C046F045C090
:101CB00047F043C049F042C048F047C04BF046C02F
:101CC0004AF049C04DF048C04CF0D0EC00F0120092
:101CD000058A62EC00F01200059A62EC00F0120036
:101CE000665042C066FF6430FEE3665043C066FF44
:101CF0006430FEE3665044C066FF6430FEE3665025
:101D000045C066FF6430FEE393968A8693968A9672
:101D1000D8EF0EF0415203E140500A081FE2415053
:101D20003F5C1CE303E13E50405C18E2456A446AB4
:101D3000436A426ABADFCCDF040E426EFA0E436E8B
:101D400043EC01F0422EFAD7C7DF040E426EFA0EC2
:101D5000436E43EC01F0422EFAD72AD041521BE1E8
:101D600040500A0818E3456A446A436A426A9DDFA4
:101D7000AFDF020E426EFA0E436E43EC01F0422ECC
:101D8000FAD7AADF020E426EFA0E436E43EC01F060
:101D9000422EFAD70DD03F50415C0AE303E1405098
:101DA0003E5C06E299DF426A436A4468456A98D716
:101DB00063EF0FF0F86AD09E94869488310EC86E57
:101DC000280EC66EC78EC79C639A000E646E200EE6
:101DD000636E9598958A959C7E86080EAF6E020E6E
:101DE0007F6EA60EAC6E900EAB6E7C86080E6F6E8C
:101DF000020E7D6EA60E6C6E900E6B6E056A046A06
:101E0000166A2168236A226A36903C6A050E3D6E86
:101E10003F6A0A0E3E6EC150C00B0F09C16E070E1D
:101E2000B46E11D00840060008C0FF084019001227
:101E30000024303315031602219090303010082012
:101E4000022090960000000EF86E1E0EF76E240E13
:101E5000F66E0900F550006E000A13E00900F55017
:101E6000016EE8BE05D03F0BEA6E0900F5CFE9FF31
:101E700001BC090001AC0900F5CFEEFF004EE9D727
:101E8000F9D7F86AEFEF00F056EF01F07FEF01F0BD
:101E9000ACEF01F0010E4E6E4F6A90EC01F0380E7F
:101EA000516E7AEC01F0010E4E6E4F6E90EC01F027
:101EB000300E516E7AEC01F00A0E426E010E436E46
:0A1EC0008AD5BED627D7F8D7030055
:020000040030CA
:0E00000000C21E1EF385B100FFC0FFE0FF40EE
:00000001FF
;PIC18F6722
;CRC=8E87  CREATED="30-Nov-22 10:36"
