:1000000079EF02F0F76A180FF66E000EF722000E75
:10001000F86E0900F550120080C094D42E004E4FA7
:100020002044485431310000444F4320534149207B
:100030004455204C49455520444854313100313015
:100040000000545249202D203139313531303837B4
:10005000000049C04AF04B6A665049C066FF6430F0
:10006000FEE3665048C066FF6430FEE3120005C040
:1000700049F004C048F0EDDF97988E8897988E98E5
:10008000B8EF00F04450466E461E665046C066FF0C
:100090006430FEE345C046F0461E665046C066FF2B
:1000A0006430FEE3979E8E8E979E8E9EBBEF00F08F
:1000B00049504B6E4B1E66504BC066FF6430FEE3EA
:1000C0004AC04BF04B1E66504BC066FF6430FEE3E7
:1000D00098988F8898988F9812000DC049F00CC09E
:1000E00048F0B7DF0BC049F00AC048F0B2DF09C0E2
:1000F00049F008C048F0ADDF07C049F006C048F03D
:10010000A8DF979A8E8A979A8E9ABFEF00F0070E13
:10011000446E4450800A7F0814E2036A4450006E23
:10012000E8BE03060E0FE96E000E0320EA6EEF50E4
:10013000FF0A456E665045C066FF6430FEE3440624
:10014000E8D7979C8E8C979C8E9CC0EF00F045C0A2
:1001500049F044C048F07DDF47C049F046C048F050
:1001600078DF93968A8693968A96C5EF00F07FD7BC
:100170004468456887D749684A689ADFAED7C7D7C9
:10018000456A446A476A466AE2D7ECEF00F0FF0E20
:10019000926EF10E936EC10E946E949A8B8A949423
:1001A0008B9494928B92080E956E5F0E966E070E4E
:1001B000976E160E986E93968A96979C8E9C979A39
:1001C0008E9A98988F98979E8E9E97988E989796CD
:1001D0008E86056A046ACBD7949A8B9A95948C8400
:1001E000959E8C8E639A9598958A959C200E636E49
:1001F000400E646EC050C00BC06EC08EC280C15035
:10020000C00B0A09C16EE4EF02F0218021C049F061
:1002100048C04AF04DDF210E006E002EFED721901F
:1002200021C049F048C04AF043DF1200219447C082
:1002300048F0EBDF1200EA6A480EE96EEF500DE07D
:10024000060E016E006A002EFED7012EFBD77B0E34
:10025000006E002EFED7EF2EF3D7120021902192D0
:1002600021842196380E476EE1DF420E006E002E8B
:10027000FED700000C0E476ED9DF420E006E002E36
:10028000FED70000010E476ED1DF020E486ED3DFAD
:10029000060E476ECBDF420E006E002EFED700002A
:1002A000E5EF02F0938C81BC1DD0140E486EC3DFC5
:1002B000938C81BC14D0445203E0938C81ACFDD765
:1002C00046C047F0472A4706D8B403D04868B3DF92
:1002D000FAD745C048F0AFDF010E016E05D0000E21
:1002E000016E02D0000E016E7BEF01F0010E446E34
:1002F000466A456AD7D7012C0CD03F5203E13E50E5
:100300000A0804E23F6A0A0E3E6E03D03E2AD8B4C1
:100310003F2AE6EF02F0978285B21DD0140E486E98
:100320008ADF978285B214D0445203E0978285A277
:10033000FDD746C047F0472A4706D8B403D04868DF
:100340007ADFFAD745C048F076DF010E016E05D09E
:10035000000E016E02D0000E016EB4EF01F0010E2E
:10036000446E466A456AD7D7012C04D03E50D8B4B3
:100370003F063E06E7EF02F0036A445043DE4524A1
:10038000466E476E53DF1200218447C048F03DDFC0
:1003900012000900F55210E0F6CF44F0F7CF45F017
:1003A000F8CF46F0F5CF47F0EFDF44C0F6FF45C089
:1003B000F7FF46C0F8FFEDD71200016A026A006A33
:1003C000036A475002E1465018E0100E486ED8907C
:1003D00044364536003603364750035C02E146504A
:1003E000005C07E34650005ED8A003064750035E5A
:1003F000D88001360236482EEAD712003E50405CC3
:10040000426E3F504158436E010E446E456AB4DF60
:100410003E0EF66E000EF76E000EF86EBADF446AFE
:10042000456AAADF420EF66E000EF76E000EF86EF9
:10043000B0DF020E446E456A9FDF3FC045F03EC00C
:1004400044F0476A0A0E466EB8DF02C045F001C0AC
:1004500044F0300E4426000E452244C047F094DF9D
:10046000020E446E010E456E87DF3FC045F03EC070
:1004700044F0476A0A0E466EA0DF00C044F003C095
:1004800045F0300E4426000E452244C047F07CDF84
:10049000030E446E456A70DF43C045F042C044F02D
:1004A000476A0A0E466E89DF02C045F001C044F07B
:1004B000300E4426000E452244C047F065DF030E8F
:1004C000446E010E456E58DF43C045F042C044F013
:1004D000476A0A0E466E71DF00C044F003C045F063
:1004E000300E4426000E452244C047F04DDFE8EFB1
:1004F00002F0F86AD09E94869488310EC86E280E59
:10050000C66EC78EC79C639A000E646E200E636E23
:100510009598958A959C7E86080EAF6E020E7F6E2A
:10052000A60EAC6E900EAB6E7C86080E6F6E020E41
:100530007D6EA60E6C6E900E6B6E056A046A166A6E
:100540002168236A226A36903C6A050E3D6E3F6A36
:100550003E6A416A0A0E406EC150C00B0F09C16E5F
:10056000070EB46E11D00840060008C0FF084019FD
:100570000012002430331503160221909030301001
:100580000820022090960000000EF86E050EF76E0F
:10059000660EF66E0900F550006E000A13E00900C1
:1005A000F550016EE8BE05D03F0BEA6E0900F5CFAD
:1005B000E9FF01BC090001AC0900F5CFEEFF004ED8
:1005C000E9D7F9D7F86AE3D549D690D6C8D616D771
:0A05D000C80E486E30DEF9D70300B4
:020000040030CA
:0E00000000C21E1EF385B100FFC0FFE0FF40EE
:00000001FF
;PIC18F6722
;CRC=647A  CREATED="24-Nov-22 16:22"
