:10000000DFEF0EF0F76A180FF66E000EF722000E03
:10001000F86E0900F550120080C094D4F76A300FD2
:10002000F66E000EF722000EF86E0900F550120071
:10003000070F1F1F1F1F1F1F1F1F1F000000000093
:100040001C1E1F1F1F1F1F1F00000000001F1F1F5F
:100050001F1F1F1F1F1F0F071F1F1F1F1F1F1E1CDC
:100060001F1F1F0000001F1F1F1F1F1F1F1F1F1FFD
:100070002E004E4F2044485431310000444F43205D
:10008000534149204455204C49455520444854315A
:100090003100547269202D203139313531303837F3
:1000A000000048435352303400002E00543A2000E0
:1000B0002E0059C05AF05B6A665059C066FF643022
:1000C000FEE3665058C066FF6430FEE3120005C0D0
:1000D00059F004C058F0EDDF97988E8897988E9865
:1000E00012004C504E6E4E1E66504EC066FF64307D
:1000F000FEE34DC04EF04E1E66504EC066FF6430AB
:10010000FEE3979E8E8E979E8E9EE8EF00F05D50E8
:100110005F6E5F1E66505FC066FF6430FEE35EC0C8
:100120005FF05F1E66505FC066FF6430FEE3989824
:100130008F8898988F9812000DC059F00CC058F015
:10014000B8DF0BC059F00AC058F0B3DF09C059F04E
:1001500008C058F0AEDF07C059F006C058F0A9DF5C
:10016000979A8E8A979A8E9AECEF00F0070E586E47
:100170005850800A7F0814E2036A5850006EE8BEA7
:1001800003060E0FE96E000E0320EA6EEF50FF0A21
:10019000596E665059C066FF6430FEE35806E8D7D2
:1001A000979C8E8C979C8E9C120055C059F054C021
:1001B00058F07FDF57C059F056C058F07ADF939659
:1001C0008A8693968A96120082DF4C684D6889D79A
:1001D0005D685E689CDFB0D7C9DF556A546A576AAC
:1001E000566AE3DF19EF01F0FF0E926EF10E936E87
:1001F000C10E946E949A8B8A94948B9494928B9261
:10020000080E956E5F0E966E070E976E160E986E20
:1002100093968A96979C8E9C979A8E9A98988F9888
:10022000979E8E9E97988E9897968E86056A046AFA
:10023000CBD7949A8B9A95948C84959E8C8E639A46
:100240009598958A959C200E636E400E646EC05002
:10025000C00BC06EC08EC280C150C00B0A09C16EF7
:100260004BEF0FF0218021C05DF05CC05EF04FDFEE
:10027000210E006E002EFED7219021C05DF05CC0E3
:100280005EF045DF120021945BC05CF0EBDF1200F2
:10029000EA6A4D0EE96EEF500DE0060E016E006A3F
:1002A000002EFED7012EFBD77B0E006E002EFED750
:1002B000EF2EF3D712002190219221842196380E3F
:1002C0005B6EE1DF420E006E002EFED700000C0ECA
:1002D0005B6ED9DF420E006E002EFED70000010ECD
:1002E0005B6ED1DF020E4D6ED3DF060E5B6ECBDF91
:1002F000420E006E002EFED700004DEF0FF021845D
:100300005BC05CF0AFDF1200400E5B6EBCDF4C6A7E
:100310004C503F0808E3036A4C5080DE4D6E5B6E24
:10032000EEDF4C2AF5D74FEF0FF0036A58506ADE24
:1003300059245A6E5B6EA7DF12000900F55210E0D7
:10034000F6CF58F0F7CF59F0F8CF5AF0F5CF5BF071
:10035000D6DF58C0F6FF59C0F7FF5AC0F8FFEDD7F7
:100360001200586A596AE1DF920EF66E000EF76EBF
:10037000000EF86EE2DF51EF0FF08E0E006E8DC0B2
:1003800001F08CC002F0036A015209E102C001F0E1
:10039000026A080E005E015202E1006A08D0D8909D
:1003A00001BE04D0023601360006F9D7019E1200C4
:1003B000800ED8B2911B966B976B8DC095F09151C2
:1003C000951B8C51D8B4DCD0946F006E9051D8B48A
:1003D000E0D0945FD8B481D03DE391C09AF09A8F79
:1003E00092C099F093C098F0976BD8909A33993354
:1003F00098339733942FF8D795AF03D09681DDD0FB
:10040000969194919689EA6A8F0EE96EE9D0969951
:1004100095BF0AD094A113D09A3399339833973368
:10042000002AD8B4C5D00BD09ABF0CD0D89097373B
:10043000983799379A370006D8B4BAD0F5D7968D41
:100440006BD0969D8DC095F08DAF02D09A8FA9D0BC
:100450009A9FA7D090C094F090C000F08C51945F08
:100460008DC09AF09A8F8EC099F08FC098F0976BDC
:10047000D8909A33993398339733942FF8D795AF10
:1004800003D096839AD096939491968BEA6A930EB2
:10049000E96EA6D0969B95BF0AD094A113D09A334B
:1004A000993398339733002AD8B482D00BD09ABFAF
:1004B0000CD0D8909737983799379A370006D8B428
:1004C00077D0F5D7968F28D0969F91C095F091AFB1
:1004D00002D09A8F66D09A9F64D091C09AF09A8F7A
:1004E00092C099F093C098F095AF04D09A9F9685EA
:1004F00064D09695976B9491EA6A8F0EE96E70D0EE
:1005000095BF1CD08DC095F094A106D09A33993335
:1005100098339733002A4CE097AF0BD0982B09E122
:10052000992B07E19A2B05E19A3399339833002AE6
:100530003FE096BD86D796BFC7D71CD0800E9A1BCA
:100540009AAF04D03AD091C095F00AD08DC095F002
:100550009A5306E1995304E1985302E1006A21D0CD
:100560009ABF08D0D8909737983799379A37002E86
:10057000F7D71ED095AF02D09A8F13D09A9F11D083
:1005800090C000F091C09AF092C099F093C098F09A
:1005900008D08CC000F08DC09AF08EC099F08FC04A
:1005A00098F09AC001F099C002F098C003F034D0DE
:1005B000006A016A026A036A2FD0976B981F991F1D
:1005C0009A1F971F972B05E1982B03E1992B01E1C7
:1005D0009A2B96B115D796B356D796B58AD7B3D777
:1005E000EF50982705E3992B03E19A2BD8B4948117
:1005F000ED52EF50992703E39A2BD8B49481ED5232
:10060000EF50EFBE01D0800A9A27D8B0948196B9F6
:10061000FED696BB3FD774D712008151D8B4A5D06F
:100620008D6F8551D8B4A1D08D5F05E37F0E8D27E6
:10063000D8B09BD006D0810E8D5FD8A096D0D8B40C
:1006400094D08DC000F0016A026A036A8C6B82C08C
:100650008BF08B8F83C08AF084C089F0190E8D6F68
:100660008851895F0DE2010E8A5F0AE28B5F08E222
:100670008C5F06E28C2B8B2B8A2B8851892728D004
:1006800087518A5F12E2010E8B5F0FE28C5F0DE2F1
:100690008C2B8B2B87518A278851892719E38A2B2A
:1006A00017E18B2B15E18C2B13D0865180098B5FC2
:1006B0000EE2010E8C5F0BE28C2B865180098B279A
:1006C00087518A27E9E38B2BE7E18C2BE5D7038061
:1006D0008D2F01D00BD0D89089378A378B378C3744
:1006E000D8900336023601368E37BAD78EA106D09F
:1006F000D8900132023203328E3302D0000635E048
:100700008EBF1ED0D89089378A378B378C37885167
:10071000895F07E2010E8A5F04E28B5F02E28C5F71
:100720001AE387518A5F05E2010E8B5F02E28C5F5C
:1007300012E3865180098B5F03E2010E8C5F0BE3AD
:10074000032A09E1022A07E1012A05E1002A0DE056
:1007500001320232033282C08DF086518D1B8DAF83
:1007600002D0018E06D0019E04D0006A016A026A9E
:10077000036A12005934006E0036FC0E0016C25097
:10078000C30B0010C26E210E006E002EFED75D6AF4
:100790005C6A5B6A5A6A5E6A58505E5C2AE2C28290
:1007A000C2B2FED7C4CF02F0C3CF01F0C4CF03F072
:1007B000C3CF8CF0C4CF8DF0E0DDD8925DC08FF058
:1007C0005CC08EF05BC08DF05AC08CF003C093F01B
:1007D00002C092F001C091F000C090F0E9DD03C0CA
:1007E0005DF002C05CF001C05BF000C05AF05E2A10
:1007F000D3D78D6B58C08CF0C0DD5DC084F05CC079
:1008000083F05BC082F05AC081F003C088F002C060
:1008100087F001C086F000C085F0FFDE03C05DF008
:1008200002C05CF001C05BF000C05AF05AC000F09A
:100830005BC001F05CC002F05DC003F0F6EF0CF0AD
:1008400089C090F08D51901B90AF05D0D894D8906E
:1008500089BFD8802FD089C090F08CC091F088518A
:10086000915F06E090AF26D0D850010AD86E22D012
:100870008DC091F08951915F06E090AF1BD0D850A8
:10088000010AD86E17D08EC091F08A51915F06E0B0
:1008900090AF10D0D850010AD86E0CD08FC091F014
:1008A0008B51915F06E090AF05D0D850010AD86E09
:1008B00001D0D89012008E0E006E8851005E89C063
:1008C00002F08AC001F0028E005209E0D890025274
:1008D00002E1015204E002320132002EF7D789AF63
:1008E00005D0011E021E012AD8B4022A1200885126
:1008F000D8B471D0006E8C51D8B46DD0002604E30A
:10090000810E002668E204D07F0E005E64E363E09F
:1009100089C090F08D51901B898F8D8F8B518F03E3
:10092000F4CF92F08A518E03F4CF03F0F3CF91F01D
:100930008F03F3509227F4509123000E03228B5122
:100940008E03F3509227F4509123000E026A032283
:10095000022289518F03F3509127F4500322000E95
:10096000022289518E03F3500326F4500222000E16
:10097000016A01228B518D03F3509127F450032219
:10098000000E022201228A518D03F3500326F450F7
:100990000222000E012289518D03F3500226F450E9
:1009A0000122002A01BE05D09137033602360136F6
:1009B0000006000E91AF0AD0032A02220122015044
:1009C00005E1025003E1035001E1002A90BF018ECE
:1009D00090AF019E04D0006A016A026A036A1200A5
:1009E00087917BC080F07AC07FF079C07EF078C0BC
:1009F0007DF07BC08BF07AC08AF079C089F078C036
:100A000088F08F6B8E6B8D6B8C6B1ADF04E38781A4
:100A10007E51800A7E6F80C08BF07FC08AF07EC0DE
:100A200089F07DC088F08F6B8E6B8D6B8E0E8C6F16
:100A300007DF01E217E180C08BF07FC08AF07EC043
:100A400089F07DC088F037DF02C08DF001C08CF0E6
:100A500094DC03C084F002C083F001C082F000C0C7
:100A600081F0BFD080C08BF07FC08AF07EC089F05B
:100A70007DC088F0800E8F6F960E8E6F180E8D6F72
:100A8000960E8C6FDDDED8A0A4D080C08BF07FC026
:100A90008AF07EC089F07DC088F08F6B8E6B8D6B85
:100AA000700E8C6F24DF03C08BF002C08AF001C08F
:100AB00089F000C088F0FFDE02C086F001C085F03A
:100AC00080C08BF07FC08AF07EC089F07DC088F046
:100AD0008F6B8E6B8D6B700E8C6F09DF03C08BF08C
:100AE00002C08AF001C089F000C088F086C08DF095
:100AF00085C08CF042DCD8828BC08FF08AC08EF02B
:100B000089C08DF088C08CF003C093F002C092F0D1
:100B100001C091F000C090F04BDC8B6B8A6B896B4D
:100B20008E0E886F03C08FF002C08EF001C08DF072
:100B300000C08CF0DCDE03C080F002C07FF001C09A
:100B40007EF000C07DF086C08DF085C08CF015DC95
:100B50008B6B8A6B896B8E0E886F03C08FF002C01F
:100B60008EF001C08DF000C08CF0C1DE03C084F0B7
:100B700002C083F001C082F000C081F080C08BF021
:100B80007FC08AF07EC089F07DC088F094DE02C00C
:100B90008DF001C08CF0BDEC01F0D89284C08FF0D4
:100BA00083C08EF082C08DF081C08CF003C093F0C2
:100BB00002C092F001C091F000C090F0D8EC01F0BA
:100BC00003C084F002C083F001C082F000C081F055
:100BD00008D080C084F07FC083F07EC082F07DC0EA
:100BE00081F080C08BF07FC08AF07EC089F07DC02C
:100BF00088F061DE02C08DF001C08CF0BDEC01F028
:100C0000D88280C08FF07FC08EF07EC08DF07DC016
:100C10008CF003C093F002C092F001C091F000C0CC
:100C200090F0D8EC01F003C080F002C07FF001C06A
:100C30007EF000C07DF087A103D08251800A826FD0
:100C400080C08BF07FC08AF07EC089F07DC088F0C4
:100C50008F6B8E6B8D6B8C6BF3DD38E087A11AD0B8
:100C60007C5318E1D88284C08FF083C08EF082C09C
:100C70008DF081C08CF0936B926B916B7F0E906FB7
:100C8000D8EC01F003C084F002C083F001C082F010
:100C900000C081F087B11AD07C2D18D0D89284C0C2
:100CA0008FF083C08EF082C08DF081C08CF0936B8A
:100CB000926B916B7F0E906FD8EC01F003C084F0C3
:100CC00002C083F001C082F000C081F07BC08BF0D5
:100CD0007AC08AF079C089F078C088F08F6B8E6B0B
:100CE0008D6B8C6BADDD04E1846B836B826B816BF0
:100CF00081C000F082C001F083C002F084C003F024
:100D0000120077C07BF076C07AF075C079F074C0BD
:100D100078F0010E7C6F64DEF2EF06F077C07BF0B6
:100D200076C07AF075C079F074C078F07C6B58DECC
:100D300015EF07F06BC08BF06AC08AF069C089F0CC
:100D400068C088F08F6B8E6B8D6B8C6B79DDD8B43F
:100D500099D067C084F066C083F065C082F064C03B
:100D600081F06BC088F06AC087F069C086F068C007
:100D700085F053DC03C073F002C072F001C071F063
:100D800000C070F003C08BF002C08AF001C089F08F
:100D900000C088F08F6B8E6B8D6B8C6B51DD23E305
:100DA00067C084F066C083F065C082F064C081F0E3
:100DB0006BC088F06AC087F069C086F068C085F0B3
:100DC0002CDC03C073F002C072F001C071F000C0EF
:100DD00070F003C077F002C076F001C075F000C07B
:100DE00074F08FD722D067C084F066C083F065C0EE
:100DF00082F064C081F06BC088F06AC087F069C07F
:100E000086F068C085F009DC03C073F002C072F0A0
:100E100001C071F000C070F003C077F002C076F03E
:100E200001C075F000C074F079D703C06FF002C044
:100E30006EF001C06DF000C06CF06FC08BF06EC042
:100E40008AF06DC089F06CC088F06BC08FF06AC00A
:100E50008EF069C08DF068C08CF049DDD88267C023
:100E60008FF066C08EF065C08DF064C08CF003C05A
:100E700093F002C092F001C091F000C090F0D8EC65
:100E800001F000D012008E0E006E7FC001F07EC017
:100E900002F0036A7FAF05D0011E021E022A01E1A3
:100EA000012A015209E102C001F0026A080E005E47
:100EB000015202E1006A0AD0D89001BE04D0023685
:100EC00001360006F9D77FBF01D0019E12006BC02A
:100ED0006FF06AC06EF069C06DF068C06CF06FC0F2
:100EE0008BF06EC08AF06DC089F06CC088F08F6B9B
:100EF0008E6B8D6B7F0E8C6FA3DCD8B480D16C0EA3
:100F0000E96EEA6A7E0EEF6ED8826FC08FF06EC017
:100F10008EF06DC08DF06CC08CF0936B926B916B0A
:100F20007F0E906FD8EC01F003C080F002C07FF01C
:100F300001C07EF000C07DF0D8926FC08FF06EC00F
:100F40008EF06DC08DF06CC08CF0936B926B916BDA
:100F50007F0E906FD8EC01F080C084F07FC083F0EA
:100F60007EC082F07DC081F003C088F002C087F0AF
:100F700001C086F000C085F00DEC03F003C06FF0F7
:100F800002C06EF001C06DF000C06CF06FC08BF05D
:100F90006EC08AF06DC089F06CC088F06FC08FF0B1
:100FA0006EC08EF06DC08DF06CC08CF0A0DC03C004
:100FB0007BF002C07AF001C079F000C078F0990EA1
:100FC0008B6F470E8A6F8A0E896F7F0E886F7BC08A
:100FD0008FF07AC08EF079C08DF078C08CF087DC0D
:100FE00003C080F002C07FF001C07EF000C07DF041
:100FF000D89203C08FF002C08EF001C08DF000C007
:101000008CF0936B926B916B800E906FD8EC01F02B
:1010100003C073F002C072F001C071F000C070F044
:101020004C0E8B6FF30E8A6F3A0E896F7B0E886FB2
:101030007BC08FF07AC08EF079C08DF078C08CF0D4
:1010400056DC03C080F002C07FF001C07EF000C01B
:101050007DF0D89203C08FF002C08EF001C08DF0F9
:1010600000C08CF02B0E936F9D0E926FDF0E916F70
:101070007E0E906FD8EC01F003C077F002C076F0DE
:1010800001C075F000C074F077C08BF076C08AF0B4
:1010900075C089F074C088F07BC08FF07AC08EF084
:1010A00079C08DF078C08CF022DC03C080F002C0E3
:1010B0007FF001C07EF000C07DF0D89203C08FF0B9
:1010C00002C08EF001C08DF000C08CF0936B926B6B
:1010D000916B7F0E906FD8EC01F003C077F002C0E7
:1010E00076F001C075F000C074F06FC08BF06EC078
:1010F0008AF06DC089F06CC088F073C08FF072C048
:101100008EF071C08DF070C08CF077EC04F003C0ED
:1011100080F002C07FF001C07EF000C07DF003C00F
:1011200084F002C083F001C082F000C081F077C07B
:1011300088F076C087F075C086F074C085F00DEC3D
:1011400003F003C073F002C072F001C071F000C080
:1011500070F0680EE96EEA6A7E0EEF5C7C6F7CAF21
:1011600012D0000ED8807C557F6B7E6F7EBF7F07CC
:101170008ADE00C074F00150800A756F02C076F0FC
:1011800003C077F00ED07F6B7CC07EF07EBF7F0700
:101190007ADE03C077F002C076F001C075F000C0BF
:1011A00074F077C08BF076C08AF075C089F074C097
:1011B00088F0180E8F6F720E8E6F310E8D6F7E0E4F
:1011C0008C6F77EC04F0D89273C08FF072C08EF001
:1011D00071C08DF070C08CF003C093F002C092F02B
:1011E00001C091F000C090F0D8EC01F003C073F0A2
:1011F00002C072F001C071F000C070F004D0736BD7
:10120000726B716B706B70C000F071C001F072C0D6
:1012100002F073C003F012006BC08BF06AC08AF05A
:1012200069C089F068C088F03B0E8F6FAA0E8E6F80
:10123000380E8D6F7F0E8C6F77EC04F003C08BF04F
:1012400002C08AF001C089F000C088F05BEC04F0B5
:1012500001C078F079916BC06FF06AC06EF069C020
:101260006DF068C06CF06BC08BF06AC08AF069C02A
:1012700089F068C088F08F6B8E6B8D6B8C6B20EC67
:1012800004F005E37981786D6D51800A6D6F736BA1
:10129000726B716B706B700EE96EEA6A7F0E782567
:1012A000EF6E6FC08BF06EC08AF06DC089F06CC0BD
:1012B00088F03B0E8F6FAA0E8E6F380E8D6F7F0EEB
:1012C0008C6F77EC04F003C07DF002C07CF001C0AD
:1012D0007BF000C07AF07F6B78C07EF07EBF7F0726
:1012E000D2DDD8827DC08FF07CC08EF07BC08DF0C7
:1012F0007AC08CF003C093F002C092F001C091F06C
:1013000000C090F0D8EC01F003C06FF002C06EF0A6
:1013100001C06DF000C06CF07C0E8B6F880E8A6F80
:10132000590E896F720E886F6FC08FF06EC08EF08D
:101330006DC08DF06CC08CF077EC04F003C07DF0D4
:1013400002C07CF001C07BF000C07AF0D89203C0EC
:101350008FF002C08EF001C08DF000C08CF0E00E66
:10136000936F970E926F260E916F750E906FD8EC5B
:1013700001F003C077F002C076F001C075F000C044
:1013800074F077C08BF076C08AF075C089F074C0B5
:1013900088F06FC08FF06EC08EF06DC08DF06CC0A5
:1013A0008CF077EC04F003C07DF002C07CF001C04B
:1013B0007BF000C07AF0D89203C08FF002C08EF0AC
:1013C00001C08DF000C08CF0C40E936F1D0E926FA3
:1013D0001E0E916F780E906FD8EC01F003C077F07D
:1013E00002C076F001C075F000C074F077C08BF0D9
:1013F00076C08AF075C089F074C088F06FC08FF035
:101400006EC08EF06DC08DF06CC08CF077EC04F087
:1014100003C07DF002C07CF001C07BF000C07AF018
:10142000D89203C08FF002C08EF001C08DF000C0D2
:101430008CF05E0E936F500E926F630E916F7A0E6A
:10144000906FD8EC01F003C077F002C076F001C0D5
:1014500075F000C074F077C08BF076C08AF075C06C
:1014600089F074C088F06FC08FF06EC08EF06DC0D0
:101470008DF06CC08CF077EC04F003C07DF002C0FE
:101480007CF001C07BF000C07AF0D89203C08FF0EE
:1014900002C08EF001C08DF000C08CF01A0E936F68
:1014A000FE0E926F750E916F7C0E906FD8EC01F06E
:1014B00003C077F002C076F001C075F000C074F090
:1014C00077C08BF076C08AF075C089F074C088F060
:1014D0006FC08FF06EC08EF06DC08DF06CC08CF060
:1014E00077EC04F003C07DF002C07CF001C07BF01B
:1014F00000C07AF0D89203C08FF002C08EF001C015
:101500008DF000C08CF0180E936F720E926F310E3A
:10151000916F7E0E906FD8EC01F003C077F002C09F
:1015200076F001C075F000C074F06FC08BF06EC033
:101530008AF06DC089F06CC088F077C08FF076C0FB
:101540008EF075C08DF074C08CF077EC04F0D892FA
:101550008F6B8E6B8D6B7F0E8C6F03C093F002C010
:1015600092F001C091F000C090F0D8EC01F073C08F
:101570008BF072C08AF071C089F070C088F003C02F
:101580008FF002C08EF001C08DF000C08CF077ECBF
:1015900004F003C073F002C072F001C071F000C02B
:1015A00070F079A117D0846B836B826B7F0E816F93
:1015B00073C088F072C087F071C086F070C085F08B
:1015C0000DEC03F003C073F002C072F001C071F0C3
:1015D00000C070F070C000F071C001F072C002F085
:1015E00073C003F012005FC08BF05EC08AF05DC074
:1015F00089F05CC088F08F6B8E6B8D6B8C6B20ECF0
:1016000004F0D8A0C0D063C067F062C066F061C0CB
:1016100065F060C064F06B6B6A6B696B7F0E686F1E
:101620009AEC06F003C067F002C066F001C065F0F6
:1016300000C064F003C08BF002C08AF001C089F0E2
:1016400000C088F08F6B8E6B8D6B8C6B20EC04F080
:10165000D8A499D063C067F062C066F061C065F03D
:1016600060C064F06B6B6A6B696B800E686F9AEC9C
:1016700006F003C067F002C066F001C065F000C06C
:1016800064F003C08BF002C08AF001C089F000C092
:1016900088F08F6B8E6B8D6B8C6B20EC04F038E1D7
:1016A0005D50800A656F5FC06BF05EC06AF0696F65
:1016B0005CC068F00CDC03C067F002C066F001C0DB
:1016C00065F000C064F003C08BF002C08AF001C076
:1016D00089F000C088F063C08FF062C08EF061C0F6
:1016E0008DF060C08CF077EC04F003C067F002C0AE
:1016F00066F001C065F000C064F003C06BF002C08A
:101700006AF001C069F000C068F086DDD1D03AD03F
:101710005D50800A656F5FC06BF05EC06AF0696FF4
:101720005CC068F067EC07F003C067F002C066F0C9
:1017300001C065F000C064F003C08BF002C08AF005
:1017400001C089F000C088F063C08FF062C08EF0E5
:1017500061C08DF060C08CF077EC04F003C067F0DE
:1017600002C066F001C065F000C064F003C06BF019
:1017700002C06AF001C069F000C068F04DDD800E63
:10178000011A96D095D05FC08BF05EC08AF05DC024
:1017900089F05CC088F08F6B8E6B8D6B8C6B20EC4E
:1017A00004F02CE363C067F062C066F061C065F0CE
:1017B00060C064F06B6B6A6B696B7F0E686F9AEC4C
:1017C00006F003C067F002C066F001C065F000C01B
:1017D00064F003C08BF002C08AF001C089F000C041
:1017E00088F08F6B8E6B8D6B8C6B20EC04F006E0B9
:1017F000006A016A026A036A5BD05AD05FC08BF04C
:101800005EC08AF05DC089F05CC088F08F6B8E6B23
:101810008D6B8C6B20EC04F010E163C08BF062C028
:101820008AF061C089F060C088F08F6B8E6B8D6B21
:101830008C6B20EC04F001E237E15FC06BF05EC01E
:101840006AF05DC069F05CC068F067EC07F003C047
:1018500067F002C066F001C065F000C064F003C02C
:101860008BF002C08AF001C089F000C088F063C02C
:101870008FF062C08EF061C08DF060C08CF077ECAC
:1018800004F003C067F002C066F001C065F000C05C
:1018900064F003C06BF002C06AF001C069F000C0E0
:1018A00068F0BADC05D004D0006A016A026A036AF3
:1018B00028EF0DF05BC084F05AC083F059C082F06D
:1018C00058C081F0886B876B866B7F0E856F0DEC3F
:1018D00003F003C08BF002C08AF001C089F000C0A1
:1018E00088F05BEC04F002C038F001C037F038C07B
:1018F0008DF037C08CF0BDEC01F0D8825BC08FF06A
:101900005AC08EF059C08DF058C08CF003C093F0CF
:1019100002C092F001C091F000C090F0D8EC01F04C
:1019200003C05BF002C05AF001C059F000C058F08B
:101930005BC08BF05AC08AF059C089F058C088F05B
:101940008F6B8E6B480E8D6F850E8C6F77EC04F06D
:1019500003C05BF002C05AF001C059F000C058F05B
:101960005BC084F05AC083F059C082F058C081F047
:10197000886B876B866B7F0E856F0DEC03F003C061
:101980008BF002C08AF001C089F000C088F05BECE7
:1019900004F002C03AF001C039F05EEF0DF0016AC8
:1019A000026A006A036A5B5002E15A5018E0100EA6
:1019B0005C6ED89058365936003603365B50035C5F
:1019C00002E15A50005C07E35A50005ED8A00306BB
:1019D0005B50035ED880013602365C2EEAD71200D7
:1019E0004CC058F0030E596EBAEF03F003C051F02B
:1019F00002C050F001C04FF000C04EF0846BA80E42
:101A0000836F050E826F8B0E816F51C088F050C0BE
:101A100087F04FC086F04EC085F00DEC03F003C098
:101A20005BF002C05AF001C059F000C058F003C08A
:101A30005FF002C05EF001C05DF000C05CF0680EB7
:101A4000636F910E626F0D0E616F7F0E606FCBD56D
:101A500003C051F002C050F001C04FF000C04EF082
:101A600051C08BF050C08AF04FC089F04EC088F052
:101A70005BEC04F002C047F001C046F08B6B8A6B50
:101A8000200E896F850E886F51C08FF050C08EF088
:101A90004FC08DF04EC08CF020EC04F006E3516A8C
:101AA000506A200E4F6E850E4E6E51C05BF050C0D6
:101AB0005AF04FC059F04EC058F0FCD638C053F021
:101AC00037C052F03AC055F039C054F0010E586E8C
:101AD000020E596E95EC01F0AA0EF66E000EF76E2E
:101AE000000EF86E9DEC01F05250565C03E153502D
:101AF000575C38E053C057F052C056F0010E586E94
:101B0000596A95EC01F053C059F052C058F05B6A25
:101B10000A0E5A6E44DF02C059F001C058F0300E70
:101B20005826000E592258C05BF07FEC01F0010EE0
:101B3000586E596E95EC01F053C059F052C058F0F0
:101B40005B6A0A0E5A6E2BDF00C058F003C059F0D2
:101B5000300E5826000E592258C05BF07FEC01F081
:101B6000B6EC00F04D5234E0010E586E030E596E83
:101B700095EC01F055C059F054C058F05B6A0A0E5C
:101B80005A6E0DDF02C059F001C058F0300E5826D1
:101B9000000E592258C05BF07FEC01F0010E586E28
:101BA000040E596E95EC01F055C059F054C058F030
:101BB0005B6A0A0E5A6EF3DE00C058F003C059F09B
:101BC000300E5826000E592258C05BF07FEC01F011
:101BD000020E586E596A95EC01F0AC0EF66E000ECE
:101BE000F76E000EF86E9DEC01F0020E586E030EBB
:101BF000596E95EC01F045C059F044C058F05B6A4D
:101C00000A0E5A6ECCDE02C059F001C058F0300EF8
:101C10005826000E592258C05BF07FEC01F045C0F9
:101C200059F044C058F05B6A0A0E5A6EB8DE00C024
:101C300058F003C059F0300E5826000E592258C0F3
:101C40005BF07FEC01F068EF0FF0938C81BC16D055
:101C5000140E4D6E48EC01F0938C81BC0FD0938C28
:101C600081ACFDD7455203E14450130804E2456AB4
:101C7000140E446E03D0442AD8B4452A978285B204
:101C800017D0140E4D6E48EC01F0978285B210D03B
:101C9000978285A2FDD7455207E14450080804E326
:101CA000456A0A0E446E04D04450D8B44506440632
:101CB00069EF0FF04EC050F04FC051F04DC053F0DF
:101CC0004CC052F051C055F050C054F053C057F0C2
:101CD00052C056F0D5EC00F01200058A67EC00F017
:101CE0001200059A67EC00F0120066504CC066FFC7
:101CF0006430FEE366504DC066FF6430FEE366501C
:101D00004EC066FF6430FEE366504FC066FF64302D
:101D1000FEE393968A8693968A96DDEF0EF04752FD
:101D200003E146500A081FE24750455C1CE303E10B
:101D30004450465C18E24F6A4E6A4D6A4C6ABADFFC
:101D4000CCDF040E4C6EFA0E4D6E48EC01F04C2EBA
:101D5000FAD7C7DF040E4C6EFA0E4D6E48EC01F058
:101D60004C2EFAD72AD047521BE146500A0818E3F6
:101D70004F6A4E6A4D6A4C6A9DDFAFDF020E4C6EB1
:101D8000FA0E4D6E48EC01F04C2EFAD7AADF020E87
:101D90004C6EFA0E4D6E48EC01F04C2EFAD70DD079
:101DA0004550475C0AE303E14650445C06E299DF94
:101DB0004C6A4D6A4E684F6A98D76AEF0FF0F86A1E
:101DC000D09E94869488310EC86E280EC66EC78E3B
:101DD000C79C639A000E646E200E636E9598958A78
:101DE000959C7E86080EAF6E020E7F6EA60EAC6EC0
:101DF000900EAB6E7C86080E6F6E020E7D6EA60E88
:101E00006C6E900E6B6E056A046A166A2168236A0E
:101E1000226A36903C6A050E3D6E436A426A456A04
:101E20000A0E446EC150C00B0F09C16E070EB46E8E
:101E300011D00840060008C0FF0840190012002415
:101E40003033150316022190903030100820022004
:101E500090960000000EF86E1E0EF76E320EF66EB3
:101E60000900F550006E000A13E00900F550016EFC
:101E7000E8BE05D03F0BEA6E0900F5CFE9FF01BCD3
:101E8000090001AC0900F5CFEEFF004EE9D7F9D704
:101E9000F86AF4EF00F05BEF01F084EF01F0B1EFCE
:101EA00001F0010E586E596A95EC01F0380E5B6E28
:101EB0007FEC01F0010E586E596E95EC01F0300E7A
:101EC0005B6E7FEC01F00A0E4C6E010E4D6E88D5F4
:081ED000BCD625D7F8D70300AA
:020000040030CA
:0E00000000C21E1EF385B100FFC0FFE0FF40EE
:00000001FF
;PIC18F6722
;CRC=D8A3  CREATED="07-Dec-22 08:32"
